


ARM Macro Assembler    Page 1 


    1 00000000         ; * ----------------------------------------------------
                       -----------------------------------
    2 00000000         ; *  @file:    startup_MK66F18.s
    3 00000000         ; *  @purpose: CMSIS Cortex-M4 Core Device Startup File
    4 00000000         ; *            MK66F18
    5 00000000         ; *  @version: 3.0
    6 00000000         ; *  @date:    2015-3-25
    7 00000000         ; *  @build:   b150325
    8 00000000         ; * ----------------------------------------------------
                       -----------------------------------
    9 00000000         ; *
   10 00000000         ; * Copyright (c) 1997 - 2015 , Freescale Semiconductor,
                        Inc.
   11 00000000         ; * All rights reserved.
   12 00000000         ; *
   13 00000000         ; * Redistribution and use in source and binary forms, w
                       ith or without modification,
   14 00000000         ; * are permitted provided that the following conditions
                        are met:
   15 00000000         ; *
   16 00000000         ; * o Redistributions of source code must retain the abo
                       ve copyright notice, this list
   17 00000000         ; *   of conditions and the following disclaimer.
   18 00000000         ; *
   19 00000000         ; * o Redistributions in binary form must reproduce the 
                       above copyright notice, this
   20 00000000         ; *   list of conditions and the following disclaimer in
                        the documentation and/or
   21 00000000         ; *   other materials provided with the distribution.
   22 00000000         ; *
   23 00000000         ; * o Neither the name of Freescale Semiconductor, Inc. 
                       nor the names of its
   24 00000000         ; *   contributors may be used to endorse or promote pro
                       ducts derived from this
   25 00000000         ; *   software without specific prior written permission
                       .
   26 00000000         ; *
   27 00000000         ; * THIS SOFTWARE IS PROVIDED BY THE COPYRIGHT HOLDERS A
                       ND CONTRIBUTORS "AS IS" AND
   28 00000000         ; * ANY EXPRESS OR IMPLIED WARRANTIES, INCLUDING, BUT NO
                       T LIMITED TO, THE IMPLIED
   29 00000000         ; * WARRANTIES OF MERCHANTABILITY AND FITNESS FOR A PART
                       ICULAR PURPOSE ARE
   30 00000000         ; * DISCLAIMED. IN NO EVENT SHALL THE COPYRIGHT HOLDER O
                       R CONTRIBUTORS BE LIABLE FOR
   31 00000000         ; * ANY DIRECT, INDIRECT, INCIDENTAL, SPECIAL, EXEMPLARY
                       , OR CONSEQUENTIAL DAMAGES
   32 00000000         ; * (INCLUDING, BUT NOT LIMITED TO, PROCUREMENT OF SUBST
                       ITUTE GOODS OR SERVICES;
   33 00000000         ; * LOSS OF USE, DATA, OR PROFITS; OR BUSINESS INTERRUPT
                       ION) HOWEVER CAUSED AND ON
   34 00000000         ; * ANY THEORY OF LIABILITY, WHETHER IN CONTRACT, STRICT
                        LIABILITY, OR TORT
   35 00000000         ; * (INCLUDING NEGLIGENCE OR OTHERWISE) ARISING IN ANY W
                       AY OUT OF THE USE OF THIS
   36 00000000         ; * SOFTWARE, EVEN IF ADVISED OF THE POSSIBILITY OF SUCH
                        DAMAGE.
   37 00000000         ; *
   38 00000000         ; *------- <<< Use Configuration Wizard in Context Menu 



ARM Macro Assembler    Page 2 


                       >>> ------------------
   39 00000000         ; *
   40 00000000         ; ******************************************************
                       ***********************/
   41 00000000         
   42 00000000         
   43 00000000         ; <h> Stack Configuration
   44 00000000         ;   <o> Stack Size (in Bytes) <0x0-0xFFFFFFFF:8>
   45 00000000         ; </h>
   46 00000000         
   47 00000000 00000400 
                       Stack_Size
                               EQU              0x00000400
   48 00000000         
   49 00000000                 AREA             STACK, NOINIT, READWRITE, ALIGN
=3
   50 00000000         Stack_Mem
                               SPACE            Stack_Size
   51 00000400         __initial_sp
   52 00000400         
   53 00000400         
   54 00000400         ; <h> Heap Configuration
   55 00000400         ;   <o>  Heap Size (in Bytes) <0x0-0xFFFFFFFF:8>
   56 00000400         ; </h>
   57 00000400         
   58 00000400 00000000 
                       Heap_Size
                               EQU              0x00000000
   59 00000400         
   60 00000400                 AREA             HEAP, NOINIT, READWRITE, ALIGN=
3
   61 00000000         __heap_base
   62 00000000         Heap_Mem
                               SPACE            Heap_Size
   63 00000000         __heap_limit
   64 00000000         
   65 00000000         
   66 00000000                 PRESERVE8
   67 00000000                 THUMB
   68 00000000         
   69 00000000         
   70 00000000         ; Vector Table Mapped to Address 0 at Reset
   71 00000000         
   72 00000000                 AREA             RESET, DATA, READONLY
   73 00000000                 EXPORT           __Vectors
   74 00000000                 EXPORT           __Vectors_End
   75 00000000                 EXPORT           __Vectors_Size
   76 00000000         
   77 00000000 00000000 
                       __Vectors
                               DCD              __initial_sp ; Top of Stack
   78 00000004 00000000        DCD              Reset_Handler ; Reset Handler
   79 00000008 00000000        DCD              NMI_Handler ;NMI Handler
   80 0000000C 00000000        DCD              HardFault_Handler 
                                                            ;Hard Fault Handler
                                                            
   81 00000010 00000000        DCD              MemManage_Handler 
                                                            ;MPU Fault Handler
   82 00000014 00000000        DCD              BusFault_Handler 



ARM Macro Assembler    Page 3 


                                                            ;Bus Fault Handler
   83 00000018 00000000        DCD              UsageFault_Handler ;Usage Fault
                                                             Handler
   84 0000001C 00000000        DCD              0           ;Reserved
   85 00000020 00000000        DCD              0           ;Reserved
   86 00000024 00000000        DCD              0           ;Reserved
   87 00000028 00000000        DCD              0           ;Reserved
   88 0000002C 00000000        DCD              SVC_Handler ;SVCall Handler
   89 00000030 00000000        DCD              DebugMon_Handler ;Debug Monitor
                                                             Handler
   90 00000034 00000000        DCD              0           ;Reserved
   91 00000038 00000000        DCD              PendSV_Handler ;PendSV Handler
   92 0000003C 00000000        DCD              SysTick_Handler 
                                                            ;SysTick Handler
   93 00000040         
   94 00000040         ;External Interrupts
   95 00000040 00000000        DCD              DMA0_IRQHandler ;DMA Channel 0,
                                                             16 Transfer Comple
                                                            te
   96 00000044 00000000        DCD              DMA1_IRQHandler ;DMA Channel 1,
                                                             17 Transfer Comple
                                                            te
   97 00000048 00000000        DCD              DMA2_IRQHandler ;DMA Channel 2,
                                                             18 Transfer Comple
                                                            te
   98 0000004C 00000000        DCD              DMA3_IRQHandler ;DMA Channel 3,
                                                             19 Transfer Comple
                                                            te
   99 00000050 00000000        DCD              DMA4_IRQHandler ;DMA Channel 4,
                                                             20 Transfer Comple
                                                            te
  100 00000054 00000000        DCD              DMA5_IRQHandler ;DMA Channel 5,
                                                             21 Transfer Comple
                                                            te
  101 00000058 00000000        DCD              DMA6_IRQHandler ;DMA Channel 6,
                                                             22 Transfer Comple
                                                            te
  102 0000005C 00000000        DCD              DMA7_IRQHandler ;DMA Channel 7,
                                                             23 Transfer Comple
                                                            te
  103 00000060 00000000        DCD              DMA8_IRQHandler ;DMA Channel 8,
                                                             24 Transfer Comple
                                                            te
  104 00000064 00000000        DCD              DMA9_IRQHandler ;DMA Channel 9,
                                                             25 Transfer Comple
                                                            te
  105 00000068 00000000        DCD              DMA10_IRQHandler ;DMA Channel 1
                                                            0, 26 Transfer Comp
                                                            lete
  106 0000006C 00000000        DCD              DMA11_IRQHandler ;DMA Channel 1
                                                            1, 27 Transfer Comp
                                                            lete
  107 00000070 00000000        DCD              DMA12_IRQHandler ;DMA Channel 1
                                                            2, 28 Transfer Comp
                                                            lete
  108 00000074 00000000        DCD              DMA13_IRQHandler ;DMA Channel 1
                                                            3, 29 Transfer Comp
                                                            lete
  109 00000078 00000000        DCD              DMA14_IRQHandler ;DMA Channel 1



ARM Macro Assembler    Page 4 


                                                            4, 30 Transfer Comp
                                                            lete
  110 0000007C 00000000        DCD              DMA15_IRQHandler ;DMA Channel 1
                                                            5, 31 Transfer Comp
                                                            lete
  111 00000080 00000000        DCD              DMA_Error_IRQHandler ;DMA Error
                                                             Interrupt
  112 00000084 00000000        DCD              MCM_IRQHandler 
                                                            ;Normal Interrupt
  113 00000088 00000000        DCD              FTFE_IRQHandler ;FTFE Command c
                                                            omplete interrupt
  114 0000008C 00000000        DCD              Read_Collision_IRQHandler ;Read
                                                             Collision Interrup
                                                            t
  115 00000090 00000000        DCD              LVD_LVW_IRQHandler ;Low Voltage
                                                             Detect, Low Voltag
                                                            e Warning
  116 00000094 00000000        DCD              LLWU_IRQHandler ;Low Leakage Wa
                                                            keup Unit
  117 00000098 00000000        DCD              WDOG_EWM_IRQHandler 
                                                            ;WDOG Interrupt
  118 0000009C 00000000        DCD              RNG_IRQHandler ;RNG Interrupt
  119 000000A0 00000000        DCD              I2C0_IRQHandler ;I2C0 interrupt
                                                            
  120 000000A4 00000000        DCD              I2C1_IRQHandler ;I2C1 interrupt
                                                            
  121 000000A8 00000000        DCD              SPI0_IRQHandler ;SPI0 Interrupt
                                                            
  122 000000AC 00000000        DCD              SPI1_IRQHandler ;SPI1 Interrupt
                                                            
  123 000000B0 00000000        DCD              I2S0_Tx_IRQHandler ;I2S0 transm
                                                            it interrupt
  124 000000B4 00000000        DCD              I2S0_Rx_IRQHandler ;I2S0 receiv
                                                            e interrupt
  125 000000B8 00000000        DCD              Reserved46_IRQHandler ;Reserved
                                                             interrupt 46
  126 000000BC 00000000        DCD              UART0_RX_TX_IRQHandler ;UART0 R
                                                            eceive/Transmit int
                                                            errupt
  127 000000C0 00000000        DCD              UART0_ERR_IRQHandler ;UART0 Err
                                                            or interrupt
  128 000000C4 00000000        DCD              UART1_RX_TX_IRQHandler ;UART1 R
                                                            eceive/Transmit int
                                                            errupt
  129 000000C8 00000000        DCD              UART1_ERR_IRQHandler ;UART1 Err
                                                            or interrupt
  130 000000CC 00000000        DCD              UART2_RX_TX_IRQHandler ;UART2 R
                                                            eceive/Transmit int
                                                            errupt
  131 000000D0 00000000        DCD              UART2_ERR_IRQHandler ;UART2 Err
                                                            or interrupt
  132 000000D4 00000000        DCD              UART3_RX_TX_IRQHandler ;UART3 R
                                                            eceive/Transmit int
                                                            errupt
  133 000000D8 00000000        DCD              UART3_ERR_IRQHandler ;UART3 Err
                                                            or interrupt
  134 000000DC 00000000        DCD              ADC0_IRQHandler ;ADC0 interrupt
                                                            
  135 000000E0 00000000        DCD              CMP0_IRQHandler ;CMP0 interrupt



ARM Macro Assembler    Page 5 


                                                            
  136 000000E4 00000000        DCD              CMP1_IRQHandler ;CMP1 interrupt
                                                            
  137 000000E8 00000000        DCD              FTM0_IRQHandler ;FTM0 fault, ov
                                                            erflow and channels
                                                             interrupt
  138 000000EC 00000000        DCD              FTM1_IRQHandler ;FTM1 fault, ov
                                                            erflow and channels
                                                             interrupt
  139 000000F0 00000000        DCD              FTM2_IRQHandler ;FTM2 fault, ov
                                                            erflow and channels
                                                             interrupt
  140 000000F4 00000000        DCD              CMT_IRQHandler ;CMT interrupt
  141 000000F8 00000000        DCD              RTC_IRQHandler ;RTC interrupt
  142 000000FC 00000000        DCD              RTC_Seconds_IRQHandler ;RTC sec
                                                            onds interrupt
  143 00000100 00000000        DCD              PIT0_IRQHandler ;PIT timer chan
                                                            nel 0 interrupt
  144 00000104 00000000        DCD              PIT1_IRQHandler ;PIT timer chan
                                                            nel 1 interrupt
  145 00000108 00000000        DCD              PIT2_IRQHandler ;PIT timer chan
                                                            nel 2 interrupt
  146 0000010C 00000000        DCD              PIT3_IRQHandler ;PIT timer chan
                                                            nel 3 interrupt
  147 00000110 00000000        DCD              PDB0_IRQHandler ;PDB0 Interrupt
                                                            
  148 00000114 00000000        DCD              USB0_IRQHandler ;USB0 interrupt
                                                            
  149 00000118 00000000        DCD              USBDCD_IRQHandler 
                                                            ;USBDCD Interrupt
  150 0000011C 00000000        DCD              Reserved71_IRQHandler ;Reserved
                                                             interrupt 71
  151 00000120 00000000        DCD              DAC0_IRQHandler ;DAC0 interrupt
                                                            
  152 00000124 00000000        DCD              MCG_IRQHandler ;MCG Interrupt
  153 00000128 00000000        DCD              LPTMR0_IRQHandler 
                                                            ;LPTimer interrupt
  154 0000012C 00000000        DCD              PORTA_IRQHandler 
                                                            ;Port A interrupt
  155 00000130 00000000        DCD              PORTB_IRQHandler 
                                                            ;Port B interrupt
  156 00000134 00000000        DCD              PORTC_IRQHandler 
                                                            ;Port C interrupt
  157 00000138 00000000        DCD              PORTD_IRQHandler 
                                                            ;Port D interrupt
  158 0000013C 00000000        DCD              PORTE_IRQHandler 
                                                            ;Port E interrupt
  159 00000140 00000000        DCD              SWI_IRQHandler 
                                                            ;Software interrupt
                                                            
  160 00000144 00000000        DCD              SPI2_IRQHandler ;SPI2 Interrupt
                                                            
  161 00000148 00000000        DCD              UART4_RX_TX_IRQHandler ;UART4 R
                                                            eceive/Transmit int
                                                            errupt
  162 0000014C 00000000        DCD              UART4_ERR_IRQHandler ;UART4 Err
                                                            or interrupt
  163 00000150 00000000        DCD              Reserved84_IRQHandler ;Reserved
                                                             interrupt 84



ARM Macro Assembler    Page 6 


  164 00000154 00000000        DCD              Reserved85_IRQHandler ;Reserved
                                                             interrupt 85
  165 00000158 00000000        DCD              CMP2_IRQHandler ;CMP2 interrupt
                                                            
  166 0000015C 00000000        DCD              FTM3_IRQHandler ;FTM3 fault, ov
                                                            erflow and channels
                                                             interrupt
  167 00000160 00000000        DCD              DAC1_IRQHandler ;DAC1 interrupt
                                                            
  168 00000164 00000000        DCD              ADC1_IRQHandler ;ADC1 interrupt
                                                            
  169 00000168 00000000        DCD              I2C2_IRQHandler ;I2C2 interrupt
                                                            
  170 0000016C 00000000        DCD              CAN0_ORed_Message_buffer_IRQHan
dler 
                                                            ;CAN0 OR'd message 
                                                            buffers interrupt
  171 00000170 00000000        DCD              CAN0_Bus_Off_IRQHandler ;CAN0 b
                                                            us off interrupt
  172 00000174 00000000        DCD              CAN0_Error_IRQHandler ;CAN0 err
                                                            or interrupt
  173 00000178 00000000        DCD              CAN0_Tx_Warning_IRQHandler ;CAN
                                                            0 Tx warning interr
                                                            upt
  174 0000017C 00000000        DCD              CAN0_Rx_Warning_IRQHandler ;CAN
                                                            0 Rx warning interr
                                                            upt
  175 00000180 00000000        DCD              CAN0_Wake_Up_IRQHandler ;CAN0 w
                                                            ake up interrupt
  176 00000184 00000000        DCD              SDHC_IRQHandler ;SDHC interrupt
                                                            
  177 00000188 00000000        DCD              ENET_1588_Timer_IRQHandler ;Eth
                                                            ernet MAC IEEE 1588
                                                             Timer Interrupt
  178 0000018C 00000000        DCD              ENET_Transmit_IRQHandler ;Ether
                                                            net MAC Transmit In
                                                            terrupt
  179 00000190 00000000        DCD              ENET_Receive_IRQHandler ;Ethern
                                                            et MAC Receive Inte
                                                            rrupt
  180 00000194 00000000        DCD              ENET_Error_IRQHandler ;Ethernet
                                                             MAC Error and misc
                                                            elaneous Interrupt
  181 00000198 00000000        DCD              LPUART0_IRQHandler ;LPUART0 sta
                                                            tus/error interrupt
                                                            
  182 0000019C 00000000        DCD              TSI0_IRQHandler ;TSI0 interrupt
                                                            
  183 000001A0 00000000        DCD              TPM1_IRQHandler ;TPM1 fault, ov
                                                            erflow and channels
                                                             interrupt
  184 000001A4 00000000        DCD              TPM2_IRQHandler ;TPM2 fault, ov
                                                            erflow and channels
                                                             interrupt
  185 000001A8 00000000        DCD              USBHSDCD_IRQHandler ;USBHSDCD, 
                                                            USBHS Phy Interrupt
                                                            
  186 000001AC 00000000        DCD              I2C3_IRQHandler ;I2C3 interrupt
                                                            



ARM Macro Assembler    Page 7 


  187 000001B0 00000000        DCD              CMP3_IRQHandler ;CMP3 interrupt
                                                            
  188 000001B4 00000000        DCD              USBHS_IRQHandler ;USB high spee
                                                            d OTG interrupt
  189 000001B8 00000000        DCD              CAN1_ORed_Message_buffer_IRQHan
dler 
                                                            ;CAN1 OR'd message 
                                                            buffers interrupt
  190 000001BC 00000000        DCD              CAN1_Bus_Off_IRQHandler ;CAN1 b
                                                            us off interrupt
  191 000001C0 00000000        DCD              CAN1_Error_IRQHandler ;CAN1 err
                                                            or interrupt
  192 000001C4 00000000        DCD              CAN1_Tx_Warning_IRQHandler ;CAN
                                                            1 Tx warning interr
                                                            upt
  193 000001C8 00000000        DCD              CAN1_Rx_Warning_IRQHandler ;CAN
                                                            1 Rx warning interr
                                                            upt
  194 000001CC 00000000        DCD              CAN1_Wake_Up_IRQHandler ;CAN1 w
                                                            ake up interrupt
  195 000001D0 00000000        DCD              DefaultISR  ;116
  196 000001D4 00000000        DCD              DefaultISR  ;117
  197 000001D8 00000000        DCD              DefaultISR  ;118
  198 000001DC 00000000        DCD              DefaultISR  ;119
  199 000001E0 00000000        DCD              DefaultISR  ;120
  200 000001E4 00000000        DCD              DefaultISR  ;121
  201 000001E8 00000000        DCD              DefaultISR  ;122
  202 000001EC 00000000        DCD              DefaultISR  ;123
  203 000001F0 00000000        DCD              DefaultISR  ;124
  204 000001F4 00000000        DCD              DefaultISR  ;125
  205 000001F8 00000000        DCD              DefaultISR  ;126
  206 000001FC 00000000        DCD              DefaultISR  ;127
  207 00000200 00000000        DCD              DefaultISR  ;128
  208 00000204 00000000        DCD              DefaultISR  ;129
  209 00000208 00000000        DCD              DefaultISR  ;130
  210 0000020C 00000000        DCD              DefaultISR  ;131
  211 00000210 00000000        DCD              DefaultISR  ;132
  212 00000214 00000000        DCD              DefaultISR  ;133
  213 00000218 00000000        DCD              DefaultISR  ;134
  214 0000021C 00000000        DCD              DefaultISR  ;135
  215 00000220 00000000        DCD              DefaultISR  ;136
  216 00000224 00000000        DCD              DefaultISR  ;137
  217 00000228 00000000        DCD              DefaultISR  ;138
  218 0000022C 00000000        DCD              DefaultISR  ;139
  219 00000230 00000000        DCD              DefaultISR  ;140
  220 00000234 00000000        DCD              DefaultISR  ;141
  221 00000238 00000000        DCD              DefaultISR  ;142
  222 0000023C 00000000        DCD              DefaultISR  ;143
  223 00000240 00000000        DCD              DefaultISR  ;144
  224 00000244 00000000        DCD              DefaultISR  ;145
  225 00000248 00000000        DCD              DefaultISR  ;146
  226 0000024C 00000000        DCD              DefaultISR  ;147
  227 00000250 00000000        DCD              DefaultISR  ;148
  228 00000254 00000000        DCD              DefaultISR  ;149
  229 00000258 00000000        DCD              DefaultISR  ;150
  230 0000025C 00000000        DCD              DefaultISR  ;151
  231 00000260 00000000        DCD              DefaultISR  ;152
  232 00000264 00000000        DCD              DefaultISR  ;153
  233 00000268 00000000        DCD              DefaultISR  ;154



ARM Macro Assembler    Page 8 


  234 0000026C 00000000        DCD              DefaultISR  ;155
  235 00000270 00000000        DCD              DefaultISR  ;156
  236 00000274 00000000        DCD              DefaultISR  ;157
  237 00000278 00000000        DCD              DefaultISR  ;158
  238 0000027C 00000000        DCD              DefaultISR  ;159
  239 00000280 00000000        DCD              DefaultISR  ;160
  240 00000284 00000000        DCD              DefaultISR  ;161
  241 00000288 00000000        DCD              DefaultISR  ;162
  242 0000028C 00000000        DCD              DefaultISR  ;163
  243 00000290 00000000        DCD              DefaultISR  ;164
  244 00000294 00000000        DCD              DefaultISR  ;165
  245 00000298 00000000        DCD              DefaultISR  ;166
  246 0000029C 00000000        DCD              DefaultISR  ;167
  247 000002A0 00000000        DCD              DefaultISR  ;168
  248 000002A4 00000000        DCD              DefaultISR  ;169
  249 000002A8 00000000        DCD              DefaultISR  ;170
  250 000002AC 00000000        DCD              DefaultISR  ;171
  251 000002B0 00000000        DCD              DefaultISR  ;172
  252 000002B4 00000000        DCD              DefaultISR  ;173
  253 000002B8 00000000        DCD              DefaultISR  ;174
  254 000002BC 00000000        DCD              DefaultISR  ;175
  255 000002C0 00000000        DCD              DefaultISR  ;176
  256 000002C4 00000000        DCD              DefaultISR  ;177
  257 000002C8 00000000        DCD              DefaultISR  ;178
  258 000002CC 00000000        DCD              DefaultISR  ;179
  259 000002D0 00000000        DCD              DefaultISR  ;180
  260 000002D4 00000000        DCD              DefaultISR  ;181
  261 000002D8 00000000        DCD              DefaultISR  ;182
  262 000002DC 00000000        DCD              DefaultISR  ;183
  263 000002E0 00000000        DCD              DefaultISR  ;184
  264 000002E4 00000000        DCD              DefaultISR  ;185
  265 000002E8 00000000        DCD              DefaultISR  ;186
  266 000002EC 00000000        DCD              DefaultISR  ;187
  267 000002F0 00000000        DCD              DefaultISR  ;188
  268 000002F4 00000000        DCD              DefaultISR  ;189
  269 000002F8 00000000        DCD              DefaultISR  ;190
  270 000002FC 00000000        DCD              DefaultISR  ;191
  271 00000300 00000000        DCD              DefaultISR  ;192
  272 00000304 00000000        DCD              DefaultISR  ;193
  273 00000308 00000000        DCD              DefaultISR  ;194
  274 0000030C 00000000        DCD              DefaultISR  ;195
  275 00000310 00000000        DCD              DefaultISR  ;196
  276 00000314 00000000        DCD              DefaultISR  ;197
  277 00000318 00000000        DCD              DefaultISR  ;198
  278 0000031C 00000000        DCD              DefaultISR  ;199
  279 00000320 00000000        DCD              DefaultISR  ;200
  280 00000324 00000000        DCD              DefaultISR  ;201
  281 00000328 00000000        DCD              DefaultISR  ;202
  282 0000032C 00000000        DCD              DefaultISR  ;203
  283 00000330 00000000        DCD              DefaultISR  ;204
  284 00000334 00000000        DCD              DefaultISR  ;205
  285 00000338 00000000        DCD              DefaultISR  ;206
  286 0000033C 00000000        DCD              DefaultISR  ;207
  287 00000340 00000000        DCD              DefaultISR  ;208
  288 00000344 00000000        DCD              DefaultISR  ;209
  289 00000348 00000000        DCD              DefaultISR  ;210
  290 0000034C 00000000        DCD              DefaultISR  ;211
  291 00000350 00000000        DCD              DefaultISR  ;212
  292 00000354 00000000        DCD              DefaultISR  ;213



ARM Macro Assembler    Page 9 


  293 00000358 00000000        DCD              DefaultISR  ;214
  294 0000035C 00000000        DCD              DefaultISR  ;215
  295 00000360 00000000        DCD              DefaultISR  ;216
  296 00000364 00000000        DCD              DefaultISR  ;217
  297 00000368 00000000        DCD              DefaultISR  ;218
  298 0000036C 00000000        DCD              DefaultISR  ;219
  299 00000370 00000000        DCD              DefaultISR  ;220
  300 00000374 00000000        DCD              DefaultISR  ;221
  301 00000378 00000000        DCD              DefaultISR  ;222
  302 0000037C 00000000        DCD              DefaultISR  ;223
  303 00000380 00000000        DCD              DefaultISR  ;224
  304 00000384 00000000        DCD              DefaultISR  ;225
  305 00000388 00000000        DCD              DefaultISR  ;226
  306 0000038C 00000000        DCD              DefaultISR  ;227
  307 00000390 00000000        DCD              DefaultISR  ;228
  308 00000394 00000000        DCD              DefaultISR  ;229
  309 00000398 00000000        DCD              DefaultISR  ;230
  310 0000039C 00000000        DCD              DefaultISR  ;231
  311 000003A0 00000000        DCD              DefaultISR  ;232
  312 000003A4 00000000        DCD              DefaultISR  ;233
  313 000003A8 00000000        DCD              DefaultISR  ;234
  314 000003AC 00000000        DCD              DefaultISR  ;235
  315 000003B0 00000000        DCD              DefaultISR  ;236
  316 000003B4 00000000        DCD              DefaultISR  ;237
  317 000003B8 00000000        DCD              DefaultISR  ;238
  318 000003BC 00000000        DCD              DefaultISR  ;239
  319 000003C0 00000000        DCD              DefaultISR  ;240
  320 000003C4 00000000        DCD              DefaultISR  ;241
  321 000003C8 00000000        DCD              DefaultISR  ;242
  322 000003CC 00000000        DCD              DefaultISR  ;243
  323 000003D0 00000000        DCD              DefaultISR  ;244
  324 000003D4 00000000        DCD              DefaultISR  ;245
  325 000003D8 00000000        DCD              DefaultISR  ;246
  326 000003DC 00000000        DCD              DefaultISR  ;247
  327 000003E0 00000000        DCD              DefaultISR  ;248
  328 000003E4 00000000        DCD              DefaultISR  ;249
  329 000003E8 00000000        DCD              DefaultISR  ;250
  330 000003EC 00000000        DCD              DefaultISR  ;251
  331 000003F0 00000000        DCD              DefaultISR  ;252
  332 000003F4 00000000        DCD              DefaultISR  ;253
  333 000003F8 00000000        DCD              DefaultISR  ;254
  334 000003FC FFFFFFFF        DCD              0xFFFFFFFF  ; Reserved for user
                                                             TRIM value
  335 00000400         __Vectors_End
  336 00000400         
  337 00000400 00000400 
                       __Vectors_Size
                               EQU              __Vectors_End - __Vectors
  338 00000400         
  339 00000400         ; <h> Flash Configuration
  340 00000400         ;   <i> 16-byte flash configuration field that stores de
                       fault protection settings (loaded on reset)
  341 00000400         ;   <i> and security information that allows the MCU to 
                       restrict access to the FTFL module.
  342 00000400         ;   <h> Backdoor Comparison Key
  343 00000400         ;     <o0>  Backdoor Comparison Key 0.  <0x0-0xFF:2>
  344 00000400         ;     <o1>  Backdoor Comparison Key 1.  <0x0-0xFF:2>
  345 00000400         ;     <o2>  Backdoor Comparison Key 2.  <0x0-0xFF:2>
  346 00000400         ;     <o3>  Backdoor Comparison Key 3.  <0x0-0xFF:2>



ARM Macro Assembler    Page 10 


  347 00000400         ;     <o4>  Backdoor Comparison Key 4.  <0x0-0xFF:2>
  348 00000400         ;     <o5>  Backdoor Comparison Key 5.  <0x0-0xFF:2>
  349 00000400         ;     <o6>  Backdoor Comparison Key 6.  <0x0-0xFF:2>
  350 00000400         ;     <o7>  Backdoor Comparison Key 7.  <0x0-0xFF:2>
  351 00000400 000000FF 
                       BackDoorK0
                               EQU              0xFF
  352 00000400 000000FF 
                       BackDoorK1
                               EQU              0xFF
  353 00000400 000000FF 
                       BackDoorK2
                               EQU              0xFF
  354 00000400 000000FF 
                       BackDoorK3
                               EQU              0xFF
  355 00000400 000000FF 
                       BackDoorK4
                               EQU              0xFF
  356 00000400 000000FF 
                       BackDoorK5
                               EQU              0xFF
  357 00000400 000000FF 
                       BackDoorK6
                               EQU              0xFF
  358 00000400 000000FF 
                       BackDoorK7
                               EQU              0xFF
  359 00000400         ;   </h>
  360 00000400         ;   <h> Program flash protection bytes (FPROT)
  361 00000400         ;     <i> Each program flash region can be protected fro
                       m program and erase operation by setting the associated 
                       PROT bit.
  362 00000400         ;     <i> Each bit protects a 1/32 region of the program
                        flash memory.
  363 00000400         ;     <h> FPROT0
  364 00000400         ;       <i> Program Flash Region Protect Register 0
  365 00000400         ;       <i> 1/32 - 8/32 region
  366 00000400         ;       <o.0>   FPROT0.0
  367 00000400         ;       <o.1>   FPROT0.1
  368 00000400         ;       <o.2>   FPROT0.2
  369 00000400         ;       <o.3>   FPROT0.3
  370 00000400         ;       <o.4>   FPROT0.4
  371 00000400         ;       <o.5>   FPROT0.5
  372 00000400         ;       <o.6>   FPROT0.6
  373 00000400         ;       <o.7>   FPROT0.7
  374 00000400 00000000 
                       nFPROT0 EQU              0x00
  375 00000400 000000FF 
                       FPROT0  EQU              nFPROT0:EOR:0xFF
  376 00000400         ;     </h>
  377 00000400         ;     <h> FPROT1
  378 00000400         ;       <i> Program Flash Region Protect Register 1
  379 00000400         ;       <i> 9/32 - 16/32 region
  380 00000400         ;       <o.0>   FPROT1.0
  381 00000400         ;       <o.1>   FPROT1.1
  382 00000400         ;       <o.2>   FPROT1.2
  383 00000400         ;       <o.3>   FPROT1.3
  384 00000400         ;       <o.4>   FPROT1.4



ARM Macro Assembler    Page 11 


  385 00000400         ;       <o.5>   FPROT1.5
  386 00000400         ;       <o.6>   FPROT1.6
  387 00000400         ;       <o.7>   FPROT1.7
  388 00000400 00000000 
                       nFPROT1 EQU              0x00
  389 00000400 000000FF 
                       FPROT1  EQU              nFPROT1:EOR:0xFF
  390 00000400         ;     </h>
  391 00000400         ;     <h> FPROT2
  392 00000400         ;       <i> Program Flash Region Protect Register 2
  393 00000400         ;       <i> 17/32 - 24/32 region
  394 00000400         ;       <o.0>   FPROT2.0
  395 00000400         ;       <o.1>   FPROT2.1
  396 00000400         ;       <o.2>   FPROT2.2
  397 00000400         ;       <o.3>   FPROT2.3
  398 00000400         ;       <o.4>   FPROT2.4
  399 00000400         ;       <o.5>   FPROT2.5
  400 00000400         ;       <o.6>   FPROT2.6
  401 00000400         ;       <o.7>   FPROT2.7
  402 00000400 00000000 
                       nFPROT2 EQU              0x00
  403 00000400 000000FF 
                       FPROT2  EQU              nFPROT2:EOR:0xFF
  404 00000400         ;     </h>
  405 00000400         ;     <h> FPROT3
  406 00000400         ;       <i> Program Flash Region Protect Register 3
  407 00000400         ;       <i> 25/32 - 32/32 region
  408 00000400         ;       <o.0>   FPROT3.0
  409 00000400         ;       <o.1>   FPROT3.1
  410 00000400         ;       <o.2>   FPROT3.2
  411 00000400         ;       <o.3>   FPROT3.3
  412 00000400         ;       <o.4>   FPROT3.4
  413 00000400         ;       <o.5>   FPROT3.5
  414 00000400         ;       <o.6>   FPROT3.6
  415 00000400         ;       <o.7>   FPROT3.7
  416 00000400 00000000 
                       nFPROT3 EQU              0x00
  417 00000400 000000FF 
                       FPROT3  EQU              nFPROT3:EOR:0xFF
  418 00000400         ;     </h>
  419 00000400         ;   </h>
  420 00000400         ;   <h> Data flash protection byte (FDPROT)
  421 00000400         ;     <i> Each bit protects a 1/8 region of the data fla
                       sh memory.
  422 00000400         ;     <i> (Program flash only devices: Reserved)
  423 00000400         ;       <o.0>   FDPROT.0
  424 00000400         ;       <o.1>   FDPROT.1
  425 00000400         ;       <o.2>   FDPROT.2
  426 00000400         ;       <o.3>   FDPROT.3
  427 00000400         ;       <o.4>   FDPROT.4
  428 00000400         ;       <o.5>   FDPROT.5
  429 00000400         ;       <o.6>   FDPROT.6
  430 00000400         ;       <o.7>   FDPROT.7
  431 00000400 00000000 
                       nFDPROT EQU              0x00
  432 00000400 000000FF 
                       FDPROT  EQU              nFDPROT:EOR:0xFF
  433 00000400         ;   </h>
  434 00000400         ;   <h> EEPROM protection byte (FEPROT)



ARM Macro Assembler    Page 12 


  435 00000400         ;     <i> FlexNVM devices: Each bit protects a 1/8 regio
                       n of the EEPROM.
  436 00000400         ;     <i> (Program flash only devices: Reserved)
  437 00000400         ;       <o.0>   FEPROT.0
  438 00000400         ;       <o.1>   FEPROT.1
  439 00000400         ;       <o.2>   FEPROT.2
  440 00000400         ;       <o.3>   FEPROT.3
  441 00000400         ;       <o.4>   FEPROT.4
  442 00000400         ;       <o.5>   FEPROT.5
  443 00000400         ;       <o.6>   FEPROT.6
  444 00000400         ;       <o.7>   FEPROT.7
  445 00000400 00000000 
                       nFEPROT EQU              0x00
  446 00000400 000000FF 
                       FEPROT  EQU              nFEPROT:EOR:0xFF
  447 00000400         ;   </h>
  448 00000400         ;   <h> Flash nonvolatile option byte (FOPT)
  449 00000400         ;     <i> Allows the user to customize the operation of 
                       the MCU at boot time.
  450 00000400         ;     <o.0> LPBOOT
  451 00000400         ;       <0=> Low-power boot
  452 00000400         ;       <1=> Normal boot
  453 00000400         ;     <o.1> EZPORT_DIS
  454 00000400         ;       <0=> EzPort operation is disabled
  455 00000400         ;       <1=> EzPort operation is enabled
  456 00000400         ;     <o.2> NMI_DIS
  457 00000400         ;       <0=> NMI interrupts are always blocked
  458 00000400         ;       <1=> NMI_b pin/interrupts reset default to enabl
                       ed
  459 00000400 000000FF 
                       FOPT    EQU              0xFF
  460 00000400         ;   </h>
  461 00000400         ;   <h> Flash security byte (FSEC)
  462 00000400         ;     <i> WARNING: If SEC field is configured as "MCU se
                       curity status is secure" and MEEN field is configured as
                        "Mass erase is disabled",
  463 00000400         ;     <i> MCU's security status cannot be set back to un
                       secure state since Mass erase via the debugger is blocke
                       d !!!
  464 00000400         ;     <o.0..1> SEC
  465 00000400         ;       <2=> MCU security status is unsecure
  466 00000400         ;       <3=> MCU security status is secure
  467 00000400         ;         <i> Flash Security
  468 00000400         ;     <o.2..3> FSLACC
  469 00000400         ;       <2=> Freescale factory access denied
  470 00000400         ;       <3=> Freescale factory access granted
  471 00000400         ;         <i> Freescale Failure Analysis Access Code
  472 00000400         ;     <o.4..5> MEEN
  473 00000400         ;       <2=> Mass erase is disabled
  474 00000400         ;       <3=> Mass erase is enabled
  475 00000400         ;     <o.6..7> KEYEN
  476 00000400         ;       <2=> Backdoor key access enabled
  477 00000400         ;       <3=> Backdoor key access disabled
  478 00000400         ;         <i> Backdoor Key Security Enable
  479 00000400 000000FE 
                       FSEC    EQU              0xFE
  480 00000400         ;   </h>
  481 00000400         ; </h>
  482 00000400                 IF               :LNOT::DEF:RAM_TARGET



ARM Macro Assembler    Page 13 


  483 00000400                 AREA             |.ARM.__at_0x400|, CODE, READON
LY
  484 00000000 FF FF FF 
              FF               DCB              BackDoorK0, BackDoorK1, BackDoo
rK2, BackDoorK3
  485 00000004 FF FF FF 
              FF               DCB              BackDoorK4, BackDoorK5, BackDoo
rK6, BackDoorK7
  486 00000008 FF FF FF 
              FF               DCB              FPROT0    , FPROT1    , FPROT2 
   , FPROT3
  487 0000000C FE FF FF 
              FF               DCB              FSEC      , FOPT      , FEPROT 
   , FDPROT
  488 00000010                 ENDIF
  489 00000010         
  490 00000010         
  491 00000010                 AREA             |.text|, CODE, READONLY
  492 00000000         
  493 00000000         ; Reset Handler
  494 00000000         
  495 00000000         Reset_Handler
                               PROC
  496 00000000                 EXPORT           Reset_Handler             [WEAK
]
  497 00000000                 IMPORT           Start
  498 00000000                 IMPORT           __main
  499 00000000         
  500 00000000 B672            CPSID            I           ; Mask interrupts
  501 00000002 480A            LDR              R0, =Start
  502 00000004 4780            BLX              R0
  503 00000006 B662            CPSIE            i           ; Unmask interrupts
                                                            
  504 00000008 4809            LDR              R0, =__main
  505 0000000A 4700            BX               R0
  506 0000000C                 ENDP
  507 0000000C         
  508 0000000C         
  509 0000000C         ; Dummy Exception Handlers (infinite loops which can be 
                       modified)
  511 0000000C         NMI_Handler
                               PROC
  512 0000000C                 EXPORT           NMI_Handler         [WEAK]
  513 0000000C E7FE            B                .
  514 0000000E                 ENDP
  516 0000000E         HardFault_Handler
                               PROC
  517 0000000E                 EXPORT           HardFault_Handler         [WEAK
]
  518 0000000E E7FE            B                .
  519 00000010                 ENDP
  521 00000010         MemManage_Handler
                               PROC
  522 00000010                 EXPORT           MemManage_Handler         [WEAK
]
  523 00000010 E7FE            B                .
  524 00000012                 ENDP
  526 00000012         BusFault_Handler
                               PROC



ARM Macro Assembler    Page 14 


  527 00000012                 EXPORT           BusFault_Handler         [WEAK]
  528 00000012 E7FE            B                .
  529 00000014                 ENDP
  531 00000014         UsageFault_Handler
                               PROC
  532 00000014                 EXPORT           UsageFault_Handler         [WEA
K]
  533 00000014 E7FE            B                .
  534 00000016                 ENDP
  536 00000016         SVC_Handler
                               PROC
  537 00000016                 EXPORT           SVC_Handler         [WEAK]
  538 00000016 E7FE            B                .
  539 00000018                 ENDP
  541 00000018         DebugMon_Handler
                               PROC
  542 00000018                 EXPORT           DebugMon_Handler         [WEAK]
  543 00000018 E7FE            B                .
  544 0000001A                 ENDP
  546 0000001A         PendSV_Handler
                               PROC
  547 0000001A                 EXPORT           PendSV_Handler         [WEAK]
  548 0000001A E7FE            B                .
  549 0000001C                 ENDP
  551 0000001C         SysTick_Handler
                               PROC
  552 0000001C                 EXPORT           SysTick_Handler         [WEAK]
  553 0000001C E7FE            B                .
  554 0000001E                 ENDP
  556 0000001E         Default_Handler
                               PROC
  557 0000001E                 EXPORT           DMA0_IRQHandler         [WEAK]
  558 0000001E                 EXPORT           DMA1_IRQHandler         [WEAK]
  559 0000001E                 EXPORT           DMA2_IRQHandler         [WEAK]
  560 0000001E                 EXPORT           DMA3_IRQHandler         [WEAK]
  561 0000001E                 EXPORT           DMA4_IRQHandler         [WEAK]
  562 0000001E                 EXPORT           DMA5_IRQHandler         [WEAK]
  563 0000001E                 EXPORT           DMA6_IRQHandler         [WEAK]
  564 0000001E                 EXPORT           DMA7_IRQHandler         [WEAK]
  565 0000001E                 EXPORT           DMA8_IRQHandler         [WEAK]
  566 0000001E                 EXPORT           DMA9_IRQHandler         [WEAK]
  567 0000001E                 EXPORT           DMA10_IRQHandler         [WEAK]
  568 0000001E                 EXPORT           DMA11_IRQHandler         [WEAK]
  569 0000001E                 EXPORT           DMA12_IRQHandler         [WEAK]
  570 0000001E                 EXPORT           DMA13_IRQHandler         [WEAK]
  571 0000001E                 EXPORT           DMA14_IRQHandler         [WEAK]
  572 0000001E                 EXPORT           DMA15_IRQHandler         [WEAK]
  573 0000001E                 EXPORT           DMA_Error_IRQHandler         [W
EAK]
  574 0000001E                 EXPORT           MCM_IRQHandler         [WEAK]
  575 0000001E                 EXPORT           FTFE_IRQHandler         [WEAK]
  576 0000001E                 EXPORT           Read_Collision_IRQHandler      
   [WEAK]
  577 0000001E                 EXPORT           LVD_LVW_IRQHandler         [WEA
K]
  578 0000001E                 EXPORT           LLWU_IRQHandler         [WEAK]
  579 0000001E                 EXPORT           WDOG_EWM_IRQHandler         [WE
AK]
  580 0000001E                 EXPORT           RNG_IRQHandler         [WEAK]



ARM Macro Assembler    Page 15 


  581 0000001E                 EXPORT           I2C0_IRQHandler         [WEAK]
  582 0000001E                 EXPORT           I2C1_IRQHandler         [WEAK]
  583 0000001E                 EXPORT           SPI0_IRQHandler         [WEAK]
  584 0000001E                 EXPORT           SPI1_IRQHandler         [WEAK]
  585 0000001E                 EXPORT           I2S0_Tx_IRQHandler         [WEA
K]
  586 0000001E                 EXPORT           I2S0_Rx_IRQHandler         [WEA
K]
  587 0000001E                 EXPORT           Reserved46_IRQHandler         [
WEAK]
  588 0000001E                 EXPORT           UART0_RX_TX_IRQHandler         
[WEAK]
  589 0000001E                 EXPORT           UART0_ERR_IRQHandler         [W
EAK]
  590 0000001E                 EXPORT           UART1_RX_TX_IRQHandler         
[WEAK]
  591 0000001E                 EXPORT           UART1_ERR_IRQHandler         [W
EAK]
  592 0000001E                 EXPORT           UART2_RX_TX_IRQHandler         
[WEAK]
  593 0000001E                 EXPORT           UART2_ERR_IRQHandler         [W
EAK]
  594 0000001E                 EXPORT           UART3_RX_TX_IRQHandler         
[WEAK]
  595 0000001E                 EXPORT           UART3_ERR_IRQHandler         [W
EAK]
  596 0000001E                 EXPORT           ADC0_IRQHandler         [WEAK]
  597 0000001E                 EXPORT           CMP0_IRQHandler         [WEAK]
  598 0000001E                 EXPORT           CMP1_IRQHandler         [WEAK]
  599 0000001E                 EXPORT           FTM0_IRQHandler         [WEAK]
  600 0000001E                 EXPORT           FTM1_IRQHandler         [WEAK]
  601 0000001E                 EXPORT           FTM2_IRQHandler         [WEAK]
  602 0000001E                 EXPORT           CMT_IRQHandler         [WEAK]
  603 0000001E                 EXPORT           RTC_IRQHandler         [WEAK]
  604 0000001E                 EXPORT           RTC_Seconds_IRQHandler         
[WEAK]
  605 0000001E                 EXPORT           PIT0_IRQHandler         [WEAK]
  606 0000001E                 EXPORT           PIT1_IRQHandler         [WEAK]
  607 0000001E                 EXPORT           PIT2_IRQHandler         [WEAK]
  608 0000001E                 EXPORT           PIT3_IRQHandler         [WEAK]
  609 0000001E                 EXPORT           PDB0_IRQHandler         [WEAK]
  610 0000001E                 EXPORT           USB0_IRQHandler         [WEAK]
  611 0000001E                 EXPORT           USBDCD_IRQHandler         [WEAK
]
  612 0000001E                 EXPORT           Reserved71_IRQHandler         [
WEAK]
  613 0000001E                 EXPORT           DAC0_IRQHandler         [WEAK]
  614 0000001E                 EXPORT           MCG_IRQHandler         [WEAK]
  615 0000001E                 EXPORT           LPTMR0_IRQHandler         [WEAK
]
  616 0000001E                 EXPORT           PORTA_IRQHandler         [WEAK]
  617 0000001E                 EXPORT           PORTB_IRQHandler         [WEAK]
  618 0000001E                 EXPORT           PORTC_IRQHandler         [WEAK]
  619 0000001E                 EXPORT           PORTD_IRQHandler         [WEAK]
  620 0000001E                 EXPORT           PORTE_IRQHandler         [WEAK]
  621 0000001E                 EXPORT           SWI_IRQHandler         [WEAK]
  622 0000001E                 EXPORT           SPI2_IRQHandler         [WEAK]
  623 0000001E                 EXPORT           UART4_RX_TX_IRQHandler         
[WEAK]



ARM Macro Assembler    Page 16 


  624 0000001E                 EXPORT           UART4_ERR_IRQHandler         [W
EAK]
  625 0000001E                 EXPORT           Reserved84_IRQHandler         [
WEAK]
  626 0000001E                 EXPORT           Reserved85_IRQHandler         [
WEAK]
  627 0000001E                 EXPORT           CMP2_IRQHandler         [WEAK]
  628 0000001E                 EXPORT           FTM3_IRQHandler         [WEAK]
  629 0000001E                 EXPORT           DAC1_IRQHandler         [WEAK]
  630 0000001E                 EXPORT           ADC1_IRQHandler         [WEAK]
  631 0000001E                 EXPORT           I2C2_IRQHandler         [WEAK]
  632 0000001E                 EXPORT           CAN0_ORed_Message_buffer_IRQHan
dler         [WEAK]
  633 0000001E                 EXPORT           CAN0_Bus_Off_IRQHandler        
 [WEAK]
  634 0000001E                 EXPORT           CAN0_Error_IRQHandler         [
WEAK]
  635 0000001E                 EXPORT           CAN0_Tx_Warning_IRQHandler     
    [WEAK]
  636 0000001E                 EXPORT           CAN0_Rx_Warning_IRQHandler     
    [WEAK]
  637 0000001E                 EXPORT           CAN0_Wake_Up_IRQHandler        
 [WEAK]
  638 0000001E                 EXPORT           SDHC_IRQHandler         [WEAK]
  639 0000001E                 EXPORT           ENET_1588_Timer_IRQHandler     
    [WEAK]
  640 0000001E                 EXPORT           ENET_Transmit_IRQHandler       
  [WEAK]
  641 0000001E                 EXPORT           ENET_Receive_IRQHandler        
 [WEAK]
  642 0000001E                 EXPORT           ENET_Error_IRQHandler         [
WEAK]
  643 0000001E                 EXPORT           LPUART0_IRQHandler         [WEA
K]
  644 0000001E                 EXPORT           TSI0_IRQHandler         [WEAK]
  645 0000001E                 EXPORT           TPM1_IRQHandler         [WEAK]
  646 0000001E                 EXPORT           TPM2_IRQHandler         [WEAK]
  647 0000001E                 EXPORT           USBHSDCD_IRQHandler         [WE
AK]
  648 0000001E                 EXPORT           I2C3_IRQHandler         [WEAK]
  649 0000001E                 EXPORT           CMP3_IRQHandler         [WEAK]
  650 0000001E                 EXPORT           USBHS_IRQHandler         [WEAK]
  651 0000001E                 EXPORT           CAN1_ORed_Message_buffer_IRQHan
dler         [WEAK]
  652 0000001E                 EXPORT           CAN1_Bus_Off_IRQHandler        
 [WEAK]
  653 0000001E                 EXPORT           CAN1_Error_IRQHandler         [
WEAK]
  654 0000001E                 EXPORT           CAN1_Tx_Warning_IRQHandler     
    [WEAK]
  655 0000001E                 EXPORT           CAN1_Rx_Warning_IRQHandler     
    [WEAK]
  656 0000001E                 EXPORT           CAN1_Wake_Up_IRQHandler        
 [WEAK]
  657 0000001E                 EXPORT           DefaultISR         [WEAK]
  658 0000001E         DMA0_IRQHandler
  659 0000001E         DMA1_IRQHandler
  660 0000001E         DMA2_IRQHandler
  661 0000001E         DMA3_IRQHandler



ARM Macro Assembler    Page 17 


  662 0000001E         DMA4_IRQHandler
  663 0000001E         DMA5_IRQHandler
  664 0000001E         DMA6_IRQHandler
  665 0000001E         DMA7_IRQHandler
  666 0000001E         DMA8_IRQHandler
  667 0000001E         DMA9_IRQHandler
  668 0000001E         DMA10_IRQHandler
  669 0000001E         DMA11_IRQHandler
  670 0000001E         DMA12_IRQHandler
  671 0000001E         DMA13_IRQHandler
  672 0000001E         DMA14_IRQHandler
  673 0000001E         DMA15_IRQHandler
  674 0000001E         DMA_Error_IRQHandler
  675 0000001E         MCM_IRQHandler
  676 0000001E         FTFE_IRQHandler
  677 0000001E         Read_Collision_IRQHandler
  678 0000001E         LVD_LVW_IRQHandler
  679 0000001E         LLWU_IRQHandler
  680 0000001E         WDOG_EWM_IRQHandler
  681 0000001E         RNG_IRQHandler
  682 0000001E         I2C0_IRQHandler
  683 0000001E         I2C1_IRQHandler
  684 0000001E         SPI0_IRQHandler
  685 0000001E         SPI1_IRQHandler
  686 0000001E         I2S0_Tx_IRQHandler
  687 0000001E         I2S0_Rx_IRQHandler
  688 0000001E         Reserved46_IRQHandler
  689 0000001E         UART0_RX_TX_IRQHandler
  690 0000001E         UART0_ERR_IRQHandler
  691 0000001E         UART1_RX_TX_IRQHandler
  692 0000001E         UART1_ERR_IRQHandler
  693 0000001E         UART2_RX_TX_IRQHandler
  694 0000001E         UART2_ERR_IRQHandler
  695 0000001E         UART3_RX_TX_IRQHandler
  696 0000001E         UART3_ERR_IRQHandler
  697 0000001E         ADC0_IRQHandler
  698 0000001E         CMP0_IRQHandler
  699 0000001E         CMP1_IRQHandler
  700 0000001E         FTM0_IRQHandler
  701 0000001E         FTM1_IRQHandler
  702 0000001E         FTM2_IRQHandler
  703 0000001E         CMT_IRQHandler
  704 0000001E         RTC_IRQHandler
  705 0000001E         RTC_Seconds_IRQHandler
  706 0000001E         PIT0_IRQHandler
  707 0000001E         PIT1_IRQHandler
  708 0000001E         PIT2_IRQHandler
  709 0000001E         PIT3_IRQHandler
  710 0000001E         PDB0_IRQHandler
  711 0000001E         USB0_IRQHandler
  712 0000001E         USBDCD_IRQHandler
  713 0000001E         Reserved71_IRQHandler
  714 0000001E         DAC0_IRQHandler
  715 0000001E         MCG_IRQHandler
  716 0000001E         LPTMR0_IRQHandler
  717 0000001E         PORTA_IRQHandler
  718 0000001E         PORTB_IRQHandler
  719 0000001E         PORTC_IRQHandler
  720 0000001E         PORTD_IRQHandler



ARM Macro Assembler    Page 18 


  721 0000001E         PORTE_IRQHandler
  722 0000001E         SWI_IRQHandler
  723 0000001E         SPI2_IRQHandler
  724 0000001E         UART4_RX_TX_IRQHandler
  725 0000001E         UART4_ERR_IRQHandler
  726 0000001E         Reserved84_IRQHandler
  727 0000001E         Reserved85_IRQHandler
  728 0000001E         CMP2_IRQHandler
  729 0000001E         FTM3_IRQHandler
  730 0000001E         DAC1_IRQHandler
  731 0000001E         ADC1_IRQHandler
  732 0000001E         I2C2_IRQHandler
  733 0000001E         CAN0_ORed_Message_buffer_IRQHandler
  734 0000001E         CAN0_Bus_Off_IRQHandler
  735 0000001E         CAN0_Error_IRQHandler
  736 0000001E         CAN0_Tx_Warning_IRQHandler
  737 0000001E         CAN0_Rx_Warning_IRQHandler
  738 0000001E         CAN0_Wake_Up_IRQHandler
  739 0000001E         SDHC_IRQHandler
  740 0000001E         ENET_1588_Timer_IRQHandler
  741 0000001E         ENET_Transmit_IRQHandler
  742 0000001E         ENET_Receive_IRQHandler
  743 0000001E         ENET_Error_IRQHandler
  744 0000001E         LPUART0_IRQHandler
  745 0000001E         TSI0_IRQHandler
  746 0000001E         TPM1_IRQHandler
  747 0000001E         TPM2_IRQHandler
  748 0000001E         USBHSDCD_IRQHandler
  749 0000001E         I2C3_IRQHandler
  750 0000001E         CMP3_IRQHandler
  751 0000001E         USBHS_IRQHandler
  752 0000001E         CAN1_ORed_Message_buffer_IRQHandler
  753 0000001E         CAN1_Bus_Off_IRQHandler
  754 0000001E         CAN1_Error_IRQHandler
  755 0000001E         CAN1_Tx_Warning_IRQHandler
  756 0000001E         CAN1_Rx_Warning_IRQHandler
  757 0000001E         CAN1_Wake_Up_IRQHandler
  758 0000001E         DefaultISR
  759 0000001E E7FE            B                DefaultISR
  760 00000020                 ENDP
  761 00000020                 ALIGN
  762 00000020         
  763 00000020         
  764 00000020         ; User Initial Stack & Heap
  765 00000020         
  766 00000020                 IF               :DEF:__MICROLIB
  773 00000020         
  774 00000020                 IMPORT           __use_two_region_memory
  775 00000020                 EXPORT           __user_initial_stackheap
  776 00000020         __user_initial_stackheap
  777 00000020         
  778 00000020 4804            LDR              R0, =  Heap_Mem
  779 00000022 4905            LDR              R1, =(Stack_Mem + Stack_Size)
  780 00000024 4A03            LDR              R2, = (Heap_Mem +  Heap_Size)
  781 00000026 4B05            LDR              R3, = Stack_Mem
  782 00000028 4770            BX               LR
  783 0000002A         
  784 0000002A 00 00           ALIGN
  785 0000002C         



ARM Macro Assembler    Page 19 


  786 0000002C                 ENDIF
  787 0000002C         
  788 0000002C         
  789 0000002C                 END
              00000000 
              00000000 
              00000000 
              00000400 
              00000000 
Command Line: --debug --xref --diag_suppress=9931 --cpu=Cortex-M4.fp --apcs=int
erwork --depend=.\objects\startup_mk66f18.d -o.\objects\startup_mk66f18.o -I.\R
TE\_Target_1 -IS:\Keil_v5\Arm\Packs\Keil\Kinetis_K60_DFP\1.5.0\Device\Include -
IS:\Keil_v5\ARM\CMSIS\Include --predefine="__UVISION_VERSION SETA 528" --predef
ine="MK66FX1M0xxx18 SETA 1" --list=.\listings\startup_mk66f18.lst ..\STARTUP\st
artup_MK66F18.s



ARM Macro Assembler    Page 1 Alphabetic symbol ordering
Relocatable symbols

STACK 00000000

Symbol: STACK
   Definitions
      At line 49 in file ..\STARTUP\startup_MK66F18.s
   Uses
      None
Comment: STACK unused
Stack_Mem 00000000

Symbol: Stack_Mem
   Definitions
      At line 50 in file ..\STARTUP\startup_MK66F18.s
   Uses
      At line 779 in file ..\STARTUP\startup_MK66F18.s
      At line 781 in file ..\STARTUP\startup_MK66F18.s

__initial_sp 00000400

Symbol: __initial_sp
   Definitions
      At line 51 in file ..\STARTUP\startup_MK66F18.s
   Uses
      At line 77 in file ..\STARTUP\startup_MK66F18.s
Comment: __initial_sp used once
3 symbols



ARM Macro Assembler    Page 1 Alphabetic symbol ordering
Relocatable symbols

HEAP 00000000

Symbol: HEAP
   Definitions
      At line 60 in file ..\STARTUP\startup_MK66F18.s
   Uses
      None
Comment: HEAP unused
Heap_Mem 00000000

Symbol: Heap_Mem
   Definitions
      At line 62 in file ..\STARTUP\startup_MK66F18.s
   Uses
      At line 778 in file ..\STARTUP\startup_MK66F18.s
      At line 780 in file ..\STARTUP\startup_MK66F18.s

__heap_base 00000000

Symbol: __heap_base
   Definitions
      At line 61 in file ..\STARTUP\startup_MK66F18.s
   Uses
      None
Comment: __heap_base unused
__heap_limit 00000000

Symbol: __heap_limit
   Definitions
      At line 63 in file ..\STARTUP\startup_MK66F18.s
   Uses
      None
Comment: __heap_limit unused
4 symbols



ARM Macro Assembler    Page 1 Alphabetic symbol ordering
Relocatable symbols

RESET 00000000

Symbol: RESET
   Definitions
      At line 72 in file ..\STARTUP\startup_MK66F18.s
   Uses
      None
Comment: RESET unused
__Vectors 00000000

Symbol: __Vectors
   Definitions
      At line 77 in file ..\STARTUP\startup_MK66F18.s
   Uses
      At line 73 in file ..\STARTUP\startup_MK66F18.s
      At line 337 in file ..\STARTUP\startup_MK66F18.s

__Vectors_End 00000400

Symbol: __Vectors_End
   Definitions
      At line 335 in file ..\STARTUP\startup_MK66F18.s
   Uses
      At line 74 in file ..\STARTUP\startup_MK66F18.s
      At line 337 in file ..\STARTUP\startup_MK66F18.s

3 symbols



ARM Macro Assembler    Page 1 Alphabetic symbol ordering
Relocatable symbols

.ARM.__at_0x400 00000000

Symbol: .ARM.__at_0x400
   Definitions
      At line 483 in file ..\STARTUP\startup_MK66F18.s
   Uses
      None
Comment: .ARM.__at_0x400 unused
1 symbol



ARM Macro Assembler    Page 1 Alphabetic symbol ordering
Relocatable symbols

.text 00000000

Symbol: .text
   Definitions
      At line 491 in file ..\STARTUP\startup_MK66F18.s
   Uses
      None
Comment: .text unused
ADC0_IRQHandler 0000001E

Symbol: ADC0_IRQHandler
   Definitions
      At line 697 in file ..\STARTUP\startup_MK66F18.s
   Uses
      At line 134 in file ..\STARTUP\startup_MK66F18.s
      At line 596 in file ..\STARTUP\startup_MK66F18.s

ADC1_IRQHandler 0000001E

Symbol: ADC1_IRQHandler
   Definitions
      At line 731 in file ..\STARTUP\startup_MK66F18.s
   Uses
      At line 168 in file ..\STARTUP\startup_MK66F18.s
      At line 630 in file ..\STARTUP\startup_MK66F18.s

BusFault_Handler 00000012

Symbol: BusFault_Handler
   Definitions
      At line 526 in file ..\STARTUP\startup_MK66F18.s
   Uses
      At line 82 in file ..\STARTUP\startup_MK66F18.s
      At line 527 in file ..\STARTUP\startup_MK66F18.s

CAN0_Bus_Off_IRQHandler 0000001E

Symbol: CAN0_Bus_Off_IRQHandler
   Definitions
      At line 734 in file ..\STARTUP\startup_MK66F18.s
   Uses
      At line 171 in file ..\STARTUP\startup_MK66F18.s
      At line 633 in file ..\STARTUP\startup_MK66F18.s

CAN0_Error_IRQHandler 0000001E

Symbol: CAN0_Error_IRQHandler
   Definitions
      At line 735 in file ..\STARTUP\startup_MK66F18.s
   Uses
      At line 172 in file ..\STARTUP\startup_MK66F18.s
      At line 634 in file ..\STARTUP\startup_MK66F18.s

CAN0_ORed_Message_buffer_IRQHandler 0000001E

Symbol: CAN0_ORed_Message_buffer_IRQHandler
   Definitions
      At line 733 in file ..\STARTUP\startup_MK66F18.s
   Uses



ARM Macro Assembler    Page 2 Alphabetic symbol ordering
Relocatable symbols

      At line 170 in file ..\STARTUP\startup_MK66F18.s
      At line 632 in file ..\STARTUP\startup_MK66F18.s

CAN0_Rx_Warning_IRQHandler 0000001E

Symbol: CAN0_Rx_Warning_IRQHandler
   Definitions
      At line 737 in file ..\STARTUP\startup_MK66F18.s
   Uses
      At line 174 in file ..\STARTUP\startup_MK66F18.s
      At line 636 in file ..\STARTUP\startup_MK66F18.s

CAN0_Tx_Warning_IRQHandler 0000001E

Symbol: CAN0_Tx_Warning_IRQHandler
   Definitions
      At line 736 in file ..\STARTUP\startup_MK66F18.s
   Uses
      At line 173 in file ..\STARTUP\startup_MK66F18.s
      At line 635 in file ..\STARTUP\startup_MK66F18.s

CAN0_Wake_Up_IRQHandler 0000001E

Symbol: CAN0_Wake_Up_IRQHandler
   Definitions
      At line 738 in file ..\STARTUP\startup_MK66F18.s
   Uses
      At line 175 in file ..\STARTUP\startup_MK66F18.s
      At line 637 in file ..\STARTUP\startup_MK66F18.s

CAN1_Bus_Off_IRQHandler 0000001E

Symbol: CAN1_Bus_Off_IRQHandler
   Definitions
      At line 753 in file ..\STARTUP\startup_MK66F18.s
   Uses
      At line 190 in file ..\STARTUP\startup_MK66F18.s
      At line 652 in file ..\STARTUP\startup_MK66F18.s

CAN1_Error_IRQHandler 0000001E

Symbol: CAN1_Error_IRQHandler
   Definitions
      At line 754 in file ..\STARTUP\startup_MK66F18.s
   Uses
      At line 191 in file ..\STARTUP\startup_MK66F18.s
      At line 653 in file ..\STARTUP\startup_MK66F18.s

CAN1_ORed_Message_buffer_IRQHandler 0000001E

Symbol: CAN1_ORed_Message_buffer_IRQHandler
   Definitions
      At line 752 in file ..\STARTUP\startup_MK66F18.s
   Uses
      At line 189 in file ..\STARTUP\startup_MK66F18.s
      At line 651 in file ..\STARTUP\startup_MK66F18.s

CAN1_Rx_Warning_IRQHandler 0000001E




ARM Macro Assembler    Page 3 Alphabetic symbol ordering
Relocatable symbols

Symbol: CAN1_Rx_Warning_IRQHandler
   Definitions
      At line 756 in file ..\STARTUP\startup_MK66F18.s
   Uses
      At line 193 in file ..\STARTUP\startup_MK66F18.s
      At line 655 in file ..\STARTUP\startup_MK66F18.s

CAN1_Tx_Warning_IRQHandler 0000001E

Symbol: CAN1_Tx_Warning_IRQHandler
   Definitions
      At line 755 in file ..\STARTUP\startup_MK66F18.s
   Uses
      At line 192 in file ..\STARTUP\startup_MK66F18.s
      At line 654 in file ..\STARTUP\startup_MK66F18.s

CAN1_Wake_Up_IRQHandler 0000001E

Symbol: CAN1_Wake_Up_IRQHandler
   Definitions
      At line 757 in file ..\STARTUP\startup_MK66F18.s
   Uses
      At line 194 in file ..\STARTUP\startup_MK66F18.s
      At line 656 in file ..\STARTUP\startup_MK66F18.s

CMP0_IRQHandler 0000001E

Symbol: CMP0_IRQHandler
   Definitions
      At line 698 in file ..\STARTUP\startup_MK66F18.s
   Uses
      At line 135 in file ..\STARTUP\startup_MK66F18.s
      At line 597 in file ..\STARTUP\startup_MK66F18.s

CMP1_IRQHandler 0000001E

Symbol: CMP1_IRQHandler
   Definitions
      At line 699 in file ..\STARTUP\startup_MK66F18.s
   Uses
      At line 136 in file ..\STARTUP\startup_MK66F18.s
      At line 598 in file ..\STARTUP\startup_MK66F18.s

CMP2_IRQHandler 0000001E

Symbol: CMP2_IRQHandler
   Definitions
      At line 728 in file ..\STARTUP\startup_MK66F18.s
   Uses
      At line 165 in file ..\STARTUP\startup_MK66F18.s
      At line 627 in file ..\STARTUP\startup_MK66F18.s

CMP3_IRQHandler 0000001E

Symbol: CMP3_IRQHandler
   Definitions
      At line 750 in file ..\STARTUP\startup_MK66F18.s
   Uses
      At line 187 in file ..\STARTUP\startup_MK66F18.s



ARM Macro Assembler    Page 4 Alphabetic symbol ordering
Relocatable symbols

      At line 649 in file ..\STARTUP\startup_MK66F18.s

CMT_IRQHandler 0000001E

Symbol: CMT_IRQHandler
   Definitions
      At line 703 in file ..\STARTUP\startup_MK66F18.s
   Uses
      At line 140 in file ..\STARTUP\startup_MK66F18.s
      At line 602 in file ..\STARTUP\startup_MK66F18.s

DAC0_IRQHandler 0000001E

Symbol: DAC0_IRQHandler
   Definitions
      At line 714 in file ..\STARTUP\startup_MK66F18.s
   Uses
      At line 151 in file ..\STARTUP\startup_MK66F18.s
      At line 613 in file ..\STARTUP\startup_MK66F18.s

DAC1_IRQHandler 0000001E

Symbol: DAC1_IRQHandler
   Definitions
      At line 730 in file ..\STARTUP\startup_MK66F18.s
   Uses
      At line 167 in file ..\STARTUP\startup_MK66F18.s
      At line 629 in file ..\STARTUP\startup_MK66F18.s

DMA0_IRQHandler 0000001E

Symbol: DMA0_IRQHandler
   Definitions
      At line 658 in file ..\STARTUP\startup_MK66F18.s
   Uses
      At line 95 in file ..\STARTUP\startup_MK66F18.s
      At line 557 in file ..\STARTUP\startup_MK66F18.s

DMA10_IRQHandler 0000001E

Symbol: DMA10_IRQHandler
   Definitions
      At line 668 in file ..\STARTUP\startup_MK66F18.s
   Uses
      At line 105 in file ..\STARTUP\startup_MK66F18.s
      At line 567 in file ..\STARTUP\startup_MK66F18.s

DMA11_IRQHandler 0000001E

Symbol: DMA11_IRQHandler
   Definitions
      At line 669 in file ..\STARTUP\startup_MK66F18.s
   Uses
      At line 106 in file ..\STARTUP\startup_MK66F18.s
      At line 568 in file ..\STARTUP\startup_MK66F18.s

DMA12_IRQHandler 0000001E

Symbol: DMA12_IRQHandler



ARM Macro Assembler    Page 5 Alphabetic symbol ordering
Relocatable symbols

   Definitions
      At line 670 in file ..\STARTUP\startup_MK66F18.s
   Uses
      At line 107 in file ..\STARTUP\startup_MK66F18.s
      At line 569 in file ..\STARTUP\startup_MK66F18.s

DMA13_IRQHandler 0000001E

Symbol: DMA13_IRQHandler
   Definitions
      At line 671 in file ..\STARTUP\startup_MK66F18.s
   Uses
      At line 108 in file ..\STARTUP\startup_MK66F18.s
      At line 570 in file ..\STARTUP\startup_MK66F18.s

DMA14_IRQHandler 0000001E

Symbol: DMA14_IRQHandler
   Definitions
      At line 672 in file ..\STARTUP\startup_MK66F18.s
   Uses
      At line 109 in file ..\STARTUP\startup_MK66F18.s
      At line 571 in file ..\STARTUP\startup_MK66F18.s

DMA15_IRQHandler 0000001E

Symbol: DMA15_IRQHandler
   Definitions
      At line 673 in file ..\STARTUP\startup_MK66F18.s
   Uses
      At line 110 in file ..\STARTUP\startup_MK66F18.s
      At line 572 in file ..\STARTUP\startup_MK66F18.s

DMA1_IRQHandler 0000001E

Symbol: DMA1_IRQHandler
   Definitions
      At line 659 in file ..\STARTUP\startup_MK66F18.s
   Uses
      At line 96 in file ..\STARTUP\startup_MK66F18.s
      At line 558 in file ..\STARTUP\startup_MK66F18.s

DMA2_IRQHandler 0000001E

Symbol: DMA2_IRQHandler
   Definitions
      At line 660 in file ..\STARTUP\startup_MK66F18.s
   Uses
      At line 97 in file ..\STARTUP\startup_MK66F18.s
      At line 559 in file ..\STARTUP\startup_MK66F18.s

DMA3_IRQHandler 0000001E

Symbol: DMA3_IRQHandler
   Definitions
      At line 661 in file ..\STARTUP\startup_MK66F18.s
   Uses
      At line 98 in file ..\STARTUP\startup_MK66F18.s
      At line 560 in file ..\STARTUP\startup_MK66F18.s



ARM Macro Assembler    Page 6 Alphabetic symbol ordering
Relocatable symbols


DMA4_IRQHandler 0000001E

Symbol: DMA4_IRQHandler
   Definitions
      At line 662 in file ..\STARTUP\startup_MK66F18.s
   Uses
      At line 99 in file ..\STARTUP\startup_MK66F18.s
      At line 561 in file ..\STARTUP\startup_MK66F18.s

DMA5_IRQHandler 0000001E

Symbol: DMA5_IRQHandler
   Definitions
      At line 663 in file ..\STARTUP\startup_MK66F18.s
   Uses
      At line 100 in file ..\STARTUP\startup_MK66F18.s
      At line 562 in file ..\STARTUP\startup_MK66F18.s

DMA6_IRQHandler 0000001E

Symbol: DMA6_IRQHandler
   Definitions
      At line 664 in file ..\STARTUP\startup_MK66F18.s
   Uses
      At line 101 in file ..\STARTUP\startup_MK66F18.s
      At line 563 in file ..\STARTUP\startup_MK66F18.s

DMA7_IRQHandler 0000001E

Symbol: DMA7_IRQHandler
   Definitions
      At line 665 in file ..\STARTUP\startup_MK66F18.s
   Uses
      At line 102 in file ..\STARTUP\startup_MK66F18.s
      At line 564 in file ..\STARTUP\startup_MK66F18.s

DMA8_IRQHandler 0000001E

Symbol: DMA8_IRQHandler
   Definitions
      At line 666 in file ..\STARTUP\startup_MK66F18.s
   Uses
      At line 103 in file ..\STARTUP\startup_MK66F18.s
      At line 565 in file ..\STARTUP\startup_MK66F18.s

DMA9_IRQHandler 0000001E

Symbol: DMA9_IRQHandler
   Definitions
      At line 667 in file ..\STARTUP\startup_MK66F18.s
   Uses
      At line 104 in file ..\STARTUP\startup_MK66F18.s
      At line 566 in file ..\STARTUP\startup_MK66F18.s

DMA_Error_IRQHandler 0000001E

Symbol: DMA_Error_IRQHandler
   Definitions



ARM Macro Assembler    Page 7 Alphabetic symbol ordering
Relocatable symbols

      At line 674 in file ..\STARTUP\startup_MK66F18.s
   Uses
      At line 111 in file ..\STARTUP\startup_MK66F18.s
      At line 573 in file ..\STARTUP\startup_MK66F18.s

DebugMon_Handler 00000018

Symbol: DebugMon_Handler
   Definitions
      At line 541 in file ..\STARTUP\startup_MK66F18.s
   Uses
      At line 89 in file ..\STARTUP\startup_MK66F18.s
      At line 542 in file ..\STARTUP\startup_MK66F18.s

DefaultISR 0000001E

Symbol: DefaultISR
   Definitions
      At line 758 in file ..\STARTUP\startup_MK66F18.s
   Uses
      At line 195 in file ..\STARTUP\startup_MK66F18.s
      At line 196 in file ..\STARTUP\startup_MK66F18.s
      At line 197 in file ..\STARTUP\startup_MK66F18.s
      At line 198 in file ..\STARTUP\startup_MK66F18.s
      At line 199 in file ..\STARTUP\startup_MK66F18.s
      At line 200 in file ..\STARTUP\startup_MK66F18.s
      At line 201 in file ..\STARTUP\startup_MK66F18.s
      At line 202 in file ..\STARTUP\startup_MK66F18.s
      At line 203 in file ..\STARTUP\startup_MK66F18.s
      At line 204 in file ..\STARTUP\startup_MK66F18.s
      At line 205 in file ..\STARTUP\startup_MK66F18.s
      At line 206 in file ..\STARTUP\startup_MK66F18.s
      At line 207 in file ..\STARTUP\startup_MK66F18.s
      At line 208 in file ..\STARTUP\startup_MK66F18.s
      At line 209 in file ..\STARTUP\startup_MK66F18.s
      At line 210 in file ..\STARTUP\startup_MK66F18.s
      At line 211 in file ..\STARTUP\startup_MK66F18.s
      At line 212 in file ..\STARTUP\startup_MK66F18.s
      At line 213 in file ..\STARTUP\startup_MK66F18.s
      At line 214 in file ..\STARTUP\startup_MK66F18.s
      At line 215 in file ..\STARTUP\startup_MK66F18.s
      At line 216 in file ..\STARTUP\startup_MK66F18.s
      At line 217 in file ..\STARTUP\startup_MK66F18.s
      At line 218 in file ..\STARTUP\startup_MK66F18.s
      At line 219 in file ..\STARTUP\startup_MK66F18.s
      At line 220 in file ..\STARTUP\startup_MK66F18.s
      At line 221 in file ..\STARTUP\startup_MK66F18.s
      At line 222 in file ..\STARTUP\startup_MK66F18.s
      At line 223 in file ..\STARTUP\startup_MK66F18.s
      At line 224 in file ..\STARTUP\startup_MK66F18.s
      At line 225 in file ..\STARTUP\startup_MK66F18.s
      At line 226 in file ..\STARTUP\startup_MK66F18.s
      At line 227 in file ..\STARTUP\startup_MK66F18.s
      At line 228 in file ..\STARTUP\startup_MK66F18.s
      At line 229 in file ..\STARTUP\startup_MK66F18.s
      At line 230 in file ..\STARTUP\startup_MK66F18.s
      At line 231 in file ..\STARTUP\startup_MK66F18.s
      At line 232 in file ..\STARTUP\startup_MK66F18.s
      At line 233 in file ..\STARTUP\startup_MK66F18.s



ARM Macro Assembler    Page 8 Alphabetic symbol ordering
Relocatable symbols

      At line 234 in file ..\STARTUP\startup_MK66F18.s
      At line 235 in file ..\STARTUP\startup_MK66F18.s
      At line 236 in file ..\STARTUP\startup_MK66F18.s
      At line 237 in file ..\STARTUP\startup_MK66F18.s
      At line 238 in file ..\STARTUP\startup_MK66F18.s
      At line 239 in file ..\STARTUP\startup_MK66F18.s
      At line 240 in file ..\STARTUP\startup_MK66F18.s
      At line 241 in file ..\STARTUP\startup_MK66F18.s
      At line 242 in file ..\STARTUP\startup_MK66F18.s
      At line 243 in file ..\STARTUP\startup_MK66F18.s
      At line 244 in file ..\STARTUP\startup_MK66F18.s
      At line 245 in file ..\STARTUP\startup_MK66F18.s
      At line 246 in file ..\STARTUP\startup_MK66F18.s
      At line 247 in file ..\STARTUP\startup_MK66F18.s
      At line 248 in file ..\STARTUP\startup_MK66F18.s
      At line 249 in file ..\STARTUP\startup_MK66F18.s
      At line 250 in file ..\STARTUP\startup_MK66F18.s
      At line 251 in file ..\STARTUP\startup_MK66F18.s
      At line 252 in file ..\STARTUP\startup_MK66F18.s
      At line 253 in file ..\STARTUP\startup_MK66F18.s
      At line 254 in file ..\STARTUP\startup_MK66F18.s
      At line 255 in file ..\STARTUP\startup_MK66F18.s
      At line 256 in file ..\STARTUP\startup_MK66F18.s
      At line 257 in file ..\STARTUP\startup_MK66F18.s
      At line 258 in file ..\STARTUP\startup_MK66F18.s
      At line 259 in file ..\STARTUP\startup_MK66F18.s
      At line 260 in file ..\STARTUP\startup_MK66F18.s
      At line 261 in file ..\STARTUP\startup_MK66F18.s
      At line 262 in file ..\STARTUP\startup_MK66F18.s
      At line 263 in file ..\STARTUP\startup_MK66F18.s
      At line 264 in file ..\STARTUP\startup_MK66F18.s
      At line 265 in file ..\STARTUP\startup_MK66F18.s
      At line 266 in file ..\STARTUP\startup_MK66F18.s
      At line 267 in file ..\STARTUP\startup_MK66F18.s
      At line 268 in file ..\STARTUP\startup_MK66F18.s
      At line 269 in file ..\STARTUP\startup_MK66F18.s
      At line 270 in file ..\STARTUP\startup_MK66F18.s
      At line 271 in file ..\STARTUP\startup_MK66F18.s
      At line 272 in file ..\STARTUP\startup_MK66F18.s
      At line 273 in file ..\STARTUP\startup_MK66F18.s
      At line 274 in file ..\STARTUP\startup_MK66F18.s
      At line 275 in file ..\STARTUP\startup_MK66F18.s
      At line 276 in file ..\STARTUP\startup_MK66F18.s
      At line 277 in file ..\STARTUP\startup_MK66F18.s
      At line 278 in file ..\STARTUP\startup_MK66F18.s
      At line 279 in file ..\STARTUP\startup_MK66F18.s
      At line 280 in file ..\STARTUP\startup_MK66F18.s
      At line 281 in file ..\STARTUP\startup_MK66F18.s
      At line 282 in file ..\STARTUP\startup_MK66F18.s
      At line 283 in file ..\STARTUP\startup_MK66F18.s
      At line 284 in file ..\STARTUP\startup_MK66F18.s
      At line 285 in file ..\STARTUP\startup_MK66F18.s
      At line 286 in file ..\STARTUP\startup_MK66F18.s
      At line 287 in file ..\STARTUP\startup_MK66F18.s
      At line 288 in file ..\STARTUP\startup_MK66F18.s
      At line 289 in file ..\STARTUP\startup_MK66F18.s
      At line 290 in file ..\STARTUP\startup_MK66F18.s
      At line 291 in file ..\STARTUP\startup_MK66F18.s
      At line 292 in file ..\STARTUP\startup_MK66F18.s



ARM Macro Assembler    Page 9 Alphabetic symbol ordering
Relocatable symbols

      At line 293 in file ..\STARTUP\startup_MK66F18.s
      At line 294 in file ..\STARTUP\startup_MK66F18.s
      At line 295 in file ..\STARTUP\startup_MK66F18.s
      At line 296 in file ..\STARTUP\startup_MK66F18.s
      At line 297 in file ..\STARTUP\startup_MK66F18.s
      At line 298 in file ..\STARTUP\startup_MK66F18.s
      At line 299 in file ..\STARTUP\startup_MK66F18.s
      At line 300 in file ..\STARTUP\startup_MK66F18.s
      At line 301 in file ..\STARTUP\startup_MK66F18.s
      At line 302 in file ..\STARTUP\startup_MK66F18.s
      At line 303 in file ..\STARTUP\startup_MK66F18.s
      At line 304 in file ..\STARTUP\startup_MK66F18.s
      At line 305 in file ..\STARTUP\startup_MK66F18.s
      At line 306 in file ..\STARTUP\startup_MK66F18.s
      At line 307 in file ..\STARTUP\startup_MK66F18.s
      At line 308 in file ..\STARTUP\startup_MK66F18.s
      At line 309 in file ..\STARTUP\startup_MK66F18.s
      At line 310 in file ..\STARTUP\startup_MK66F18.s
      At line 311 in file ..\STARTUP\startup_MK66F18.s
      At line 312 in file ..\STARTUP\startup_MK66F18.s
      At line 313 in file ..\STARTUP\startup_MK66F18.s
      At line 314 in file ..\STARTUP\startup_MK66F18.s
      At line 315 in file ..\STARTUP\startup_MK66F18.s
      At line 316 in file ..\STARTUP\startup_MK66F18.s
      At line 317 in file ..\STARTUP\startup_MK66F18.s
      At line 318 in file ..\STARTUP\startup_MK66F18.s
      At line 319 in file ..\STARTUP\startup_MK66F18.s
      At line 320 in file ..\STARTUP\startup_MK66F18.s
      At line 321 in file ..\STARTUP\startup_MK66F18.s
      At line 322 in file ..\STARTUP\startup_MK66F18.s
      At line 323 in file ..\STARTUP\startup_MK66F18.s
      At line 324 in file ..\STARTUP\startup_MK66F18.s
      At line 325 in file ..\STARTUP\startup_MK66F18.s
      At line 326 in file ..\STARTUP\startup_MK66F18.s
      At line 327 in file ..\STARTUP\startup_MK66F18.s
      At line 328 in file ..\STARTUP\startup_MK66F18.s
      At line 329 in file ..\STARTUP\startup_MK66F18.s
      At line 330 in file ..\STARTUP\startup_MK66F18.s
      At line 331 in file ..\STARTUP\startup_MK66F18.s
      At line 332 in file ..\STARTUP\startup_MK66F18.s
      At line 333 in file ..\STARTUP\startup_MK66F18.s
      At line 657 in file ..\STARTUP\startup_MK66F18.s
      At line 759 in file ..\STARTUP\startup_MK66F18.s

Default_Handler 0000001E

Symbol: Default_Handler
   Definitions
      At line 556 in file ..\STARTUP\startup_MK66F18.s
   Uses
      None
Comment: Default_Handler unused
ENET_1588_Timer_IRQHandler 0000001E

Symbol: ENET_1588_Timer_IRQHandler
   Definitions
      At line 740 in file ..\STARTUP\startup_MK66F18.s
   Uses
      At line 177 in file ..\STARTUP\startup_MK66F18.s



ARM Macro Assembler    Page 10 Alphabetic symbol ordering
Relocatable symbols

      At line 639 in file ..\STARTUP\startup_MK66F18.s

ENET_Error_IRQHandler 0000001E

Symbol: ENET_Error_IRQHandler
   Definitions
      At line 743 in file ..\STARTUP\startup_MK66F18.s
   Uses
      At line 180 in file ..\STARTUP\startup_MK66F18.s
      At line 642 in file ..\STARTUP\startup_MK66F18.s

ENET_Receive_IRQHandler 0000001E

Symbol: ENET_Receive_IRQHandler
   Definitions
      At line 742 in file ..\STARTUP\startup_MK66F18.s
   Uses
      At line 179 in file ..\STARTUP\startup_MK66F18.s
      At line 641 in file ..\STARTUP\startup_MK66F18.s

ENET_Transmit_IRQHandler 0000001E

Symbol: ENET_Transmit_IRQHandler
   Definitions
      At line 741 in file ..\STARTUP\startup_MK66F18.s
   Uses
      At line 178 in file ..\STARTUP\startup_MK66F18.s
      At line 640 in file ..\STARTUP\startup_MK66F18.s

FTFE_IRQHandler 0000001E

Symbol: FTFE_IRQHandler
   Definitions
      At line 676 in file ..\STARTUP\startup_MK66F18.s
   Uses
      At line 113 in file ..\STARTUP\startup_MK66F18.s
      At line 575 in file ..\STARTUP\startup_MK66F18.s

FTM0_IRQHandler 0000001E

Symbol: FTM0_IRQHandler
   Definitions
      At line 700 in file ..\STARTUP\startup_MK66F18.s
   Uses
      At line 137 in file ..\STARTUP\startup_MK66F18.s
      At line 599 in file ..\STARTUP\startup_MK66F18.s

FTM1_IRQHandler 0000001E

Symbol: FTM1_IRQHandler
   Definitions
      At line 701 in file ..\STARTUP\startup_MK66F18.s
   Uses
      At line 138 in file ..\STARTUP\startup_MK66F18.s
      At line 600 in file ..\STARTUP\startup_MK66F18.s

FTM2_IRQHandler 0000001E

Symbol: FTM2_IRQHandler



ARM Macro Assembler    Page 11 Alphabetic symbol ordering
Relocatable symbols

   Definitions
      At line 702 in file ..\STARTUP\startup_MK66F18.s
   Uses
      At line 139 in file ..\STARTUP\startup_MK66F18.s
      At line 601 in file ..\STARTUP\startup_MK66F18.s

FTM3_IRQHandler 0000001E

Symbol: FTM3_IRQHandler
   Definitions
      At line 729 in file ..\STARTUP\startup_MK66F18.s
   Uses
      At line 166 in file ..\STARTUP\startup_MK66F18.s
      At line 628 in file ..\STARTUP\startup_MK66F18.s

HardFault_Handler 0000000E

Symbol: HardFault_Handler
   Definitions
      At line 516 in file ..\STARTUP\startup_MK66F18.s
   Uses
      At line 80 in file ..\STARTUP\startup_MK66F18.s
      At line 517 in file ..\STARTUP\startup_MK66F18.s

I2C0_IRQHandler 0000001E

Symbol: I2C0_IRQHandler
   Definitions
      At line 682 in file ..\STARTUP\startup_MK66F18.s
   Uses
      At line 119 in file ..\STARTUP\startup_MK66F18.s
      At line 581 in file ..\STARTUP\startup_MK66F18.s

I2C1_IRQHandler 0000001E

Symbol: I2C1_IRQHandler
   Definitions
      At line 683 in file ..\STARTUP\startup_MK66F18.s
   Uses
      At line 120 in file ..\STARTUP\startup_MK66F18.s
      At line 582 in file ..\STARTUP\startup_MK66F18.s

I2C2_IRQHandler 0000001E

Symbol: I2C2_IRQHandler
   Definitions
      At line 732 in file ..\STARTUP\startup_MK66F18.s
   Uses
      At line 169 in file ..\STARTUP\startup_MK66F18.s
      At line 631 in file ..\STARTUP\startup_MK66F18.s

I2C3_IRQHandler 0000001E

Symbol: I2C3_IRQHandler
   Definitions
      At line 749 in file ..\STARTUP\startup_MK66F18.s
   Uses
      At line 186 in file ..\STARTUP\startup_MK66F18.s
      At line 648 in file ..\STARTUP\startup_MK66F18.s



ARM Macro Assembler    Page 12 Alphabetic symbol ordering
Relocatable symbols


I2S0_Rx_IRQHandler 0000001E

Symbol: I2S0_Rx_IRQHandler
   Definitions
      At line 687 in file ..\STARTUP\startup_MK66F18.s
   Uses
      At line 124 in file ..\STARTUP\startup_MK66F18.s
      At line 586 in file ..\STARTUP\startup_MK66F18.s

I2S0_Tx_IRQHandler 0000001E

Symbol: I2S0_Tx_IRQHandler
   Definitions
      At line 686 in file ..\STARTUP\startup_MK66F18.s
   Uses
      At line 123 in file ..\STARTUP\startup_MK66F18.s
      At line 585 in file ..\STARTUP\startup_MK66F18.s

LLWU_IRQHandler 0000001E

Symbol: LLWU_IRQHandler
   Definitions
      At line 679 in file ..\STARTUP\startup_MK66F18.s
   Uses
      At line 116 in file ..\STARTUP\startup_MK66F18.s
      At line 578 in file ..\STARTUP\startup_MK66F18.s

LPTMR0_IRQHandler 0000001E

Symbol: LPTMR0_IRQHandler
   Definitions
      At line 716 in file ..\STARTUP\startup_MK66F18.s
   Uses
      At line 153 in file ..\STARTUP\startup_MK66F18.s
      At line 615 in file ..\STARTUP\startup_MK66F18.s

LPUART0_IRQHandler 0000001E

Symbol: LPUART0_IRQHandler
   Definitions
      At line 744 in file ..\STARTUP\startup_MK66F18.s
   Uses
      At line 181 in file ..\STARTUP\startup_MK66F18.s
      At line 643 in file ..\STARTUP\startup_MK66F18.s

LVD_LVW_IRQHandler 0000001E

Symbol: LVD_LVW_IRQHandler
   Definitions
      At line 678 in file ..\STARTUP\startup_MK66F18.s
   Uses
      At line 115 in file ..\STARTUP\startup_MK66F18.s
      At line 577 in file ..\STARTUP\startup_MK66F18.s

MCG_IRQHandler 0000001E

Symbol: MCG_IRQHandler
   Definitions



ARM Macro Assembler    Page 13 Alphabetic symbol ordering
Relocatable symbols

      At line 715 in file ..\STARTUP\startup_MK66F18.s
   Uses
      At line 152 in file ..\STARTUP\startup_MK66F18.s
      At line 614 in file ..\STARTUP\startup_MK66F18.s

MCM_IRQHandler 0000001E

Symbol: MCM_IRQHandler
   Definitions
      At line 675 in file ..\STARTUP\startup_MK66F18.s
   Uses
      At line 112 in file ..\STARTUP\startup_MK66F18.s
      At line 574 in file ..\STARTUP\startup_MK66F18.s

MemManage_Handler 00000010

Symbol: MemManage_Handler
   Definitions
      At line 521 in file ..\STARTUP\startup_MK66F18.s
   Uses
      At line 81 in file ..\STARTUP\startup_MK66F18.s
      At line 522 in file ..\STARTUP\startup_MK66F18.s

NMI_Handler 0000000C

Symbol: NMI_Handler
   Definitions
      At line 511 in file ..\STARTUP\startup_MK66F18.s
   Uses
      At line 79 in file ..\STARTUP\startup_MK66F18.s
      At line 512 in file ..\STARTUP\startup_MK66F18.s

PDB0_IRQHandler 0000001E

Symbol: PDB0_IRQHandler
   Definitions
      At line 710 in file ..\STARTUP\startup_MK66F18.s
   Uses
      At line 147 in file ..\STARTUP\startup_MK66F18.s
      At line 609 in file ..\STARTUP\startup_MK66F18.s

PIT0_IRQHandler 0000001E

Symbol: PIT0_IRQHandler
   Definitions
      At line 706 in file ..\STARTUP\startup_MK66F18.s
   Uses
      At line 143 in file ..\STARTUP\startup_MK66F18.s
      At line 605 in file ..\STARTUP\startup_MK66F18.s

PIT1_IRQHandler 0000001E

Symbol: PIT1_IRQHandler
   Definitions
      At line 707 in file ..\STARTUP\startup_MK66F18.s
   Uses
      At line 144 in file ..\STARTUP\startup_MK66F18.s
      At line 606 in file ..\STARTUP\startup_MK66F18.s




ARM Macro Assembler    Page 14 Alphabetic symbol ordering
Relocatable symbols

PIT2_IRQHandler 0000001E

Symbol: PIT2_IRQHandler
   Definitions
      At line 708 in file ..\STARTUP\startup_MK66F18.s
   Uses
      At line 145 in file ..\STARTUP\startup_MK66F18.s
      At line 607 in file ..\STARTUP\startup_MK66F18.s

PIT3_IRQHandler 0000001E

Symbol: PIT3_IRQHandler
   Definitions
      At line 709 in file ..\STARTUP\startup_MK66F18.s
   Uses
      At line 146 in file ..\STARTUP\startup_MK66F18.s
      At line 608 in file ..\STARTUP\startup_MK66F18.s

PORTA_IRQHandler 0000001E

Symbol: PORTA_IRQHandler
   Definitions
      At line 717 in file ..\STARTUP\startup_MK66F18.s
   Uses
      At line 154 in file ..\STARTUP\startup_MK66F18.s
      At line 616 in file ..\STARTUP\startup_MK66F18.s

PORTB_IRQHandler 0000001E

Symbol: PORTB_IRQHandler
   Definitions
      At line 718 in file ..\STARTUP\startup_MK66F18.s
   Uses
      At line 155 in file ..\STARTUP\startup_MK66F18.s
      At line 617 in file ..\STARTUP\startup_MK66F18.s

PORTC_IRQHandler 0000001E

Symbol: PORTC_IRQHandler
   Definitions
      At line 719 in file ..\STARTUP\startup_MK66F18.s
   Uses
      At line 156 in file ..\STARTUP\startup_MK66F18.s
      At line 618 in file ..\STARTUP\startup_MK66F18.s

PORTD_IRQHandler 0000001E

Symbol: PORTD_IRQHandler
   Definitions
      At line 720 in file ..\STARTUP\startup_MK66F18.s
   Uses
      At line 157 in file ..\STARTUP\startup_MK66F18.s
      At line 619 in file ..\STARTUP\startup_MK66F18.s

PORTE_IRQHandler 0000001E

Symbol: PORTE_IRQHandler
   Definitions
      At line 721 in file ..\STARTUP\startup_MK66F18.s



ARM Macro Assembler    Page 15 Alphabetic symbol ordering
Relocatable symbols

   Uses
      At line 158 in file ..\STARTUP\startup_MK66F18.s
      At line 620 in file ..\STARTUP\startup_MK66F18.s

PendSV_Handler 0000001A

Symbol: PendSV_Handler
   Definitions
      At line 546 in file ..\STARTUP\startup_MK66F18.s
   Uses
      At line 91 in file ..\STARTUP\startup_MK66F18.s
      At line 547 in file ..\STARTUP\startup_MK66F18.s

RNG_IRQHandler 0000001E

Symbol: RNG_IRQHandler
   Definitions
      At line 681 in file ..\STARTUP\startup_MK66F18.s
   Uses
      At line 118 in file ..\STARTUP\startup_MK66F18.s
      At line 580 in file ..\STARTUP\startup_MK66F18.s

RTC_IRQHandler 0000001E

Symbol: RTC_IRQHandler
   Definitions
      At line 704 in file ..\STARTUP\startup_MK66F18.s
   Uses
      At line 141 in file ..\STARTUP\startup_MK66F18.s
      At line 603 in file ..\STARTUP\startup_MK66F18.s

RTC_Seconds_IRQHandler 0000001E

Symbol: RTC_Seconds_IRQHandler
   Definitions
      At line 705 in file ..\STARTUP\startup_MK66F18.s
   Uses
      At line 142 in file ..\STARTUP\startup_MK66F18.s
      At line 604 in file ..\STARTUP\startup_MK66F18.s

Read_Collision_IRQHandler 0000001E

Symbol: Read_Collision_IRQHandler
   Definitions
      At line 677 in file ..\STARTUP\startup_MK66F18.s
   Uses
      At line 114 in file ..\STARTUP\startup_MK66F18.s
      At line 576 in file ..\STARTUP\startup_MK66F18.s

Reserved46_IRQHandler 0000001E

Symbol: Reserved46_IRQHandler
   Definitions
      At line 688 in file ..\STARTUP\startup_MK66F18.s
   Uses
      At line 125 in file ..\STARTUP\startup_MK66F18.s
      At line 587 in file ..\STARTUP\startup_MK66F18.s

Reserved71_IRQHandler 0000001E



ARM Macro Assembler    Page 16 Alphabetic symbol ordering
Relocatable symbols


Symbol: Reserved71_IRQHandler
   Definitions
      At line 713 in file ..\STARTUP\startup_MK66F18.s
   Uses
      At line 150 in file ..\STARTUP\startup_MK66F18.s
      At line 612 in file ..\STARTUP\startup_MK66F18.s

Reserved84_IRQHandler 0000001E

Symbol: Reserved84_IRQHandler
   Definitions
      At line 726 in file ..\STARTUP\startup_MK66F18.s
   Uses
      At line 163 in file ..\STARTUP\startup_MK66F18.s
      At line 625 in file ..\STARTUP\startup_MK66F18.s

Reserved85_IRQHandler 0000001E

Symbol: Reserved85_IRQHandler
   Definitions
      At line 727 in file ..\STARTUP\startup_MK66F18.s
   Uses
      At line 164 in file ..\STARTUP\startup_MK66F18.s
      At line 626 in file ..\STARTUP\startup_MK66F18.s

Reset_Handler 00000000

Symbol: Reset_Handler
   Definitions
      At line 495 in file ..\STARTUP\startup_MK66F18.s
   Uses
      At line 78 in file ..\STARTUP\startup_MK66F18.s
      At line 496 in file ..\STARTUP\startup_MK66F18.s

SDHC_IRQHandler 0000001E

Symbol: SDHC_IRQHandler
   Definitions
      At line 739 in file ..\STARTUP\startup_MK66F18.s
   Uses
      At line 176 in file ..\STARTUP\startup_MK66F18.s
      At line 638 in file ..\STARTUP\startup_MK66F18.s

SPI0_IRQHandler 0000001E

Symbol: SPI0_IRQHandler
   Definitions
      At line 684 in file ..\STARTUP\startup_MK66F18.s
   Uses
      At line 121 in file ..\STARTUP\startup_MK66F18.s
      At line 583 in file ..\STARTUP\startup_MK66F18.s

SPI1_IRQHandler 0000001E

Symbol: SPI1_IRQHandler
   Definitions
      At line 685 in file ..\STARTUP\startup_MK66F18.s
   Uses



ARM Macro Assembler    Page 17 Alphabetic symbol ordering
Relocatable symbols

      At line 122 in file ..\STARTUP\startup_MK66F18.s
      At line 584 in file ..\STARTUP\startup_MK66F18.s

SPI2_IRQHandler 0000001E

Symbol: SPI2_IRQHandler
   Definitions
      At line 723 in file ..\STARTUP\startup_MK66F18.s
   Uses
      At line 160 in file ..\STARTUP\startup_MK66F18.s
      At line 622 in file ..\STARTUP\startup_MK66F18.s

SVC_Handler 00000016

Symbol: SVC_Handler
   Definitions
      At line 536 in file ..\STARTUP\startup_MK66F18.s
   Uses
      At line 88 in file ..\STARTUP\startup_MK66F18.s
      At line 537 in file ..\STARTUP\startup_MK66F18.s

SWI_IRQHandler 0000001E

Symbol: SWI_IRQHandler
   Definitions
      At line 722 in file ..\STARTUP\startup_MK66F18.s
   Uses
      At line 159 in file ..\STARTUP\startup_MK66F18.s
      At line 621 in file ..\STARTUP\startup_MK66F18.s

SysTick_Handler 0000001C

Symbol: SysTick_Handler
   Definitions
      At line 551 in file ..\STARTUP\startup_MK66F18.s
   Uses
      At line 92 in file ..\STARTUP\startup_MK66F18.s
      At line 552 in file ..\STARTUP\startup_MK66F18.s

TPM1_IRQHandler 0000001E

Symbol: TPM1_IRQHandler
   Definitions
      At line 746 in file ..\STARTUP\startup_MK66F18.s
   Uses
      At line 183 in file ..\STARTUP\startup_MK66F18.s
      At line 645 in file ..\STARTUP\startup_MK66F18.s

TPM2_IRQHandler 0000001E

Symbol: TPM2_IRQHandler
   Definitions
      At line 747 in file ..\STARTUP\startup_MK66F18.s
   Uses
      At line 184 in file ..\STARTUP\startup_MK66F18.s
      At line 646 in file ..\STARTUP\startup_MK66F18.s

TSI0_IRQHandler 0000001E




ARM Macro Assembler    Page 18 Alphabetic symbol ordering
Relocatable symbols

Symbol: TSI0_IRQHandler
   Definitions
      At line 745 in file ..\STARTUP\startup_MK66F18.s
   Uses
      At line 182 in file ..\STARTUP\startup_MK66F18.s
      At line 644 in file ..\STARTUP\startup_MK66F18.s

UART0_ERR_IRQHandler 0000001E

Symbol: UART0_ERR_IRQHandler
   Definitions
      At line 690 in file ..\STARTUP\startup_MK66F18.s
   Uses
      At line 127 in file ..\STARTUP\startup_MK66F18.s
      At line 589 in file ..\STARTUP\startup_MK66F18.s

UART0_RX_TX_IRQHandler 0000001E

Symbol: UART0_RX_TX_IRQHandler
   Definitions
      At line 689 in file ..\STARTUP\startup_MK66F18.s
   Uses
      At line 126 in file ..\STARTUP\startup_MK66F18.s
      At line 588 in file ..\STARTUP\startup_MK66F18.s

UART1_ERR_IRQHandler 0000001E

Symbol: UART1_ERR_IRQHandler
   Definitions
      At line 692 in file ..\STARTUP\startup_MK66F18.s
   Uses
      At line 129 in file ..\STARTUP\startup_MK66F18.s
      At line 591 in file ..\STARTUP\startup_MK66F18.s

UART1_RX_TX_IRQHandler 0000001E

Symbol: UART1_RX_TX_IRQHandler
   Definitions
      At line 691 in file ..\STARTUP\startup_MK66F18.s
   Uses
      At line 128 in file ..\STARTUP\startup_MK66F18.s
      At line 590 in file ..\STARTUP\startup_MK66F18.s

UART2_ERR_IRQHandler 0000001E

Symbol: UART2_ERR_IRQHandler
   Definitions
      At line 694 in file ..\STARTUP\startup_MK66F18.s
   Uses
      At line 131 in file ..\STARTUP\startup_MK66F18.s
      At line 593 in file ..\STARTUP\startup_MK66F18.s

UART2_RX_TX_IRQHandler 0000001E

Symbol: UART2_RX_TX_IRQHandler
   Definitions
      At line 693 in file ..\STARTUP\startup_MK66F18.s
   Uses
      At line 130 in file ..\STARTUP\startup_MK66F18.s



ARM Macro Assembler    Page 19 Alphabetic symbol ordering
Relocatable symbols

      At line 592 in file ..\STARTUP\startup_MK66F18.s

UART3_ERR_IRQHandler 0000001E

Symbol: UART3_ERR_IRQHandler
   Definitions
      At line 696 in file ..\STARTUP\startup_MK66F18.s
   Uses
      At line 133 in file ..\STARTUP\startup_MK66F18.s
      At line 595 in file ..\STARTUP\startup_MK66F18.s

UART3_RX_TX_IRQHandler 0000001E

Symbol: UART3_RX_TX_IRQHandler
   Definitions
      At line 695 in file ..\STARTUP\startup_MK66F18.s
   Uses
      At line 132 in file ..\STARTUP\startup_MK66F18.s
      At line 594 in file ..\STARTUP\startup_MK66F18.s

UART4_ERR_IRQHandler 0000001E

Symbol: UART4_ERR_IRQHandler
   Definitions
      At line 725 in file ..\STARTUP\startup_MK66F18.s
   Uses
      At line 162 in file ..\STARTUP\startup_MK66F18.s
      At line 624 in file ..\STARTUP\startup_MK66F18.s

UART4_RX_TX_IRQHandler 0000001E

Symbol: UART4_RX_TX_IRQHandler
   Definitions
      At line 724 in file ..\STARTUP\startup_MK66F18.s
   Uses
      At line 161 in file ..\STARTUP\startup_MK66F18.s
      At line 623 in file ..\STARTUP\startup_MK66F18.s

USB0_IRQHandler 0000001E

Symbol: USB0_IRQHandler
   Definitions
      At line 711 in file ..\STARTUP\startup_MK66F18.s
   Uses
      At line 148 in file ..\STARTUP\startup_MK66F18.s
      At line 610 in file ..\STARTUP\startup_MK66F18.s

USBDCD_IRQHandler 0000001E

Symbol: USBDCD_IRQHandler
   Definitions
      At line 712 in file ..\STARTUP\startup_MK66F18.s
   Uses
      At line 149 in file ..\STARTUP\startup_MK66F18.s
      At line 611 in file ..\STARTUP\startup_MK66F18.s

USBHSDCD_IRQHandler 0000001E

Symbol: USBHSDCD_IRQHandler



ARM Macro Assembler    Page 20 Alphabetic symbol ordering
Relocatable symbols

   Definitions
      At line 748 in file ..\STARTUP\startup_MK66F18.s
   Uses
      At line 185 in file ..\STARTUP\startup_MK66F18.s
      At line 647 in file ..\STARTUP\startup_MK66F18.s

USBHS_IRQHandler 0000001E

Symbol: USBHS_IRQHandler
   Definitions
      At line 751 in file ..\STARTUP\startup_MK66F18.s
   Uses
      At line 188 in file ..\STARTUP\startup_MK66F18.s
      At line 650 in file ..\STARTUP\startup_MK66F18.s

UsageFault_Handler 00000014

Symbol: UsageFault_Handler
   Definitions
      At line 531 in file ..\STARTUP\startup_MK66F18.s
   Uses
      At line 83 in file ..\STARTUP\startup_MK66F18.s
      At line 532 in file ..\STARTUP\startup_MK66F18.s

WDOG_EWM_IRQHandler 0000001E

Symbol: WDOG_EWM_IRQHandler
   Definitions
      At line 680 in file ..\STARTUP\startup_MK66F18.s
   Uses
      At line 117 in file ..\STARTUP\startup_MK66F18.s
      At line 579 in file ..\STARTUP\startup_MK66F18.s

__user_initial_stackheap 00000020

Symbol: __user_initial_stackheap
   Definitions
      At line 776 in file ..\STARTUP\startup_MK66F18.s
   Uses
      At line 775 in file ..\STARTUP\startup_MK66F18.s
Comment: __user_initial_stackheap used once
114 symbols



ARM Macro Assembler    Page 1 Alphabetic symbol ordering
Absolute symbols

BackDoorK0 000000FF

Symbol: BackDoorK0
   Definitions
      At line 351 in file ..\STARTUP\startup_MK66F18.s
   Uses
      At line 484 in file ..\STARTUP\startup_MK66F18.s
Comment: BackDoorK0 used once
BackDoorK1 000000FF

Symbol: BackDoorK1
   Definitions
      At line 352 in file ..\STARTUP\startup_MK66F18.s
   Uses
      At line 484 in file ..\STARTUP\startup_MK66F18.s
Comment: BackDoorK1 used once
BackDoorK2 000000FF

Symbol: BackDoorK2
   Definitions
      At line 353 in file ..\STARTUP\startup_MK66F18.s
   Uses
      At line 484 in file ..\STARTUP\startup_MK66F18.s
Comment: BackDoorK2 used once
BackDoorK3 000000FF

Symbol: BackDoorK3
   Definitions
      At line 354 in file ..\STARTUP\startup_MK66F18.s
   Uses
      At line 484 in file ..\STARTUP\startup_MK66F18.s
Comment: BackDoorK3 used once
BackDoorK4 000000FF

Symbol: BackDoorK4
   Definitions
      At line 355 in file ..\STARTUP\startup_MK66F18.s
   Uses
      At line 485 in file ..\STARTUP\startup_MK66F18.s
Comment: BackDoorK4 used once
BackDoorK5 000000FF

Symbol: BackDoorK5
   Definitions
      At line 356 in file ..\STARTUP\startup_MK66F18.s
   Uses
      At line 485 in file ..\STARTUP\startup_MK66F18.s
Comment: BackDoorK5 used once
BackDoorK6 000000FF

Symbol: BackDoorK6
   Definitions
      At line 357 in file ..\STARTUP\startup_MK66F18.s
   Uses
      At line 485 in file ..\STARTUP\startup_MK66F18.s
Comment: BackDoorK6 used once
BackDoorK7 000000FF

Symbol: BackDoorK7



ARM Macro Assembler    Page 2 Alphabetic symbol ordering
Absolute symbols

   Definitions
      At line 358 in file ..\STARTUP\startup_MK66F18.s
   Uses
      At line 485 in file ..\STARTUP\startup_MK66F18.s
Comment: BackDoorK7 used once
FDPROT 000000FF

Symbol: FDPROT
   Definitions
      At line 432 in file ..\STARTUP\startup_MK66F18.s
   Uses
      At line 487 in file ..\STARTUP\startup_MK66F18.s
Comment: FDPROT used once
FEPROT 000000FF

Symbol: FEPROT
   Definitions
      At line 446 in file ..\STARTUP\startup_MK66F18.s
   Uses
      At line 487 in file ..\STARTUP\startup_MK66F18.s
Comment: FEPROT used once
FOPT 000000FF

Symbol: FOPT
   Definitions
      At line 459 in file ..\STARTUP\startup_MK66F18.s
   Uses
      At line 487 in file ..\STARTUP\startup_MK66F18.s
Comment: FOPT used once
FPROT0 000000FF

Symbol: FPROT0
   Definitions
      At line 375 in file ..\STARTUP\startup_MK66F18.s
   Uses
      At line 486 in file ..\STARTUP\startup_MK66F18.s
Comment: FPROT0 used once
FPROT1 000000FF

Symbol: FPROT1
   Definitions
      At line 389 in file ..\STARTUP\startup_MK66F18.s
   Uses
      At line 486 in file ..\STARTUP\startup_MK66F18.s
Comment: FPROT1 used once
FPROT2 000000FF

Symbol: FPROT2
   Definitions
      At line 403 in file ..\STARTUP\startup_MK66F18.s
   Uses
      At line 486 in file ..\STARTUP\startup_MK66F18.s
Comment: FPROT2 used once
FPROT3 000000FF

Symbol: FPROT3
   Definitions
      At line 417 in file ..\STARTUP\startup_MK66F18.s
   Uses



ARM Macro Assembler    Page 3 Alphabetic symbol ordering
Absolute symbols

      At line 486 in file ..\STARTUP\startup_MK66F18.s
Comment: FPROT3 used once
FSEC 000000FE

Symbol: FSEC
   Definitions
      At line 479 in file ..\STARTUP\startup_MK66F18.s
   Uses
      At line 487 in file ..\STARTUP\startup_MK66F18.s
Comment: FSEC used once
Heap_Size 00000000

Symbol: Heap_Size
   Definitions
      At line 58 in file ..\STARTUP\startup_MK66F18.s
   Uses
      At line 62 in file ..\STARTUP\startup_MK66F18.s
      At line 780 in file ..\STARTUP\startup_MK66F18.s

Stack_Size 00000400

Symbol: Stack_Size
   Definitions
      At line 47 in file ..\STARTUP\startup_MK66F18.s
   Uses
      At line 50 in file ..\STARTUP\startup_MK66F18.s
      At line 779 in file ..\STARTUP\startup_MK66F18.s

__Vectors_Size 00000400

Symbol: __Vectors_Size
   Definitions
      At line 337 in file ..\STARTUP\startup_MK66F18.s
   Uses
      At line 75 in file ..\STARTUP\startup_MK66F18.s
Comment: __Vectors_Size used once
nFDPROT 00000000

Symbol: nFDPROT
   Definitions
      At line 431 in file ..\STARTUP\startup_MK66F18.s
   Uses
      At line 432 in file ..\STARTUP\startup_MK66F18.s
Comment: nFDPROT used once
nFEPROT 00000000

Symbol: nFEPROT
   Definitions
      At line 445 in file ..\STARTUP\startup_MK66F18.s
   Uses
      At line 446 in file ..\STARTUP\startup_MK66F18.s
Comment: nFEPROT used once
nFPROT0 00000000

Symbol: nFPROT0
   Definitions
      At line 374 in file ..\STARTUP\startup_MK66F18.s
   Uses
      At line 375 in file ..\STARTUP\startup_MK66F18.s



ARM Macro Assembler    Page 4 Alphabetic symbol ordering
Absolute symbols

Comment: nFPROT0 used once
nFPROT1 00000000

Symbol: nFPROT1
   Definitions
      At line 388 in file ..\STARTUP\startup_MK66F18.s
   Uses
      At line 389 in file ..\STARTUP\startup_MK66F18.s
Comment: nFPROT1 used once
nFPROT2 00000000

Symbol: nFPROT2
   Definitions
      At line 402 in file ..\STARTUP\startup_MK66F18.s
   Uses
      At line 403 in file ..\STARTUP\startup_MK66F18.s
Comment: nFPROT2 used once
nFPROT3 00000000

Symbol: nFPROT3
   Definitions
      At line 416 in file ..\STARTUP\startup_MK66F18.s
   Uses
      At line 417 in file ..\STARTUP\startup_MK66F18.s
Comment: nFPROT3 used once
25 symbols



ARM Macro Assembler    Page 1 Alphabetic symbol ordering
External symbols

Start 00000000

Symbol: Start
   Definitions
      At line 497 in file ..\STARTUP\startup_MK66F18.s
   Uses
      At line 501 in file ..\STARTUP\startup_MK66F18.s
Comment: Start used once
__main 00000000

Symbol: __main
   Definitions
      At line 498 in file ..\STARTUP\startup_MK66F18.s
   Uses
      At line 504 in file ..\STARTUP\startup_MK66F18.s
Comment: __main used once
__use_two_region_memory 00000000

Symbol: __use_two_region_memory
   Definitions
      At line 774 in file ..\STARTUP\startup_MK66F18.s
   Uses
      None
Comment: __use_two_region_memory unused
3 symbols
492 symbols in table
