Component: ARM Compiler 5.06 update 6 (build 750) Tool: armlink [4d35ed]

==============================================================================

Section Cross References

    startup_mk66f18.o(STACK) refers (Special) to heapauxi.o(.text) for __use_two_region_memory
    startup_mk66f18.o(HEAP) refers (Special) to heapauxi.o(.text) for __use_two_region_memory
    startup_mk66f18.o(RESET) refers (Special) to heapauxi.o(.text) for __use_two_region_memory
    startup_mk66f18.o(RESET) refers to startup_mk66f18.o(STACK) for __initial_sp
    startup_mk66f18.o(RESET) refers to startup_mk66f18.o(.text) for Reset_Handler
    startup_mk66f18.o(RESET) refers to system_mk66.o(i.NMI_Handler) for NMI_Handler
    startup_mk66f18.o(RESET) refers to isr.o(i.PIT0_IRQHandler) for PIT0_IRQHandler
    startup_mk66f18.o(RESET) refers to isr.o(i.PIT1_IRQHandler) for PIT1_IRQHandler
    startup_mk66f18.o(RESET) refers to isr.o(i.PORTA_IRQHandler) for PORTA_IRQHandler
    startup_mk66f18.o(RESET) refers to isr.o(i.PORTC_IRQHandler) for PORTC_IRQHandler
    startup_mk66f18.o(RESET) refers to isr.o(i.UART4_RX_TX_IRQHandler) for UART4_RX_TX_IRQHandler
    startup_mk66f18.o(.ARM.__at_0x400) refers (Special) to heapauxi.o(.text) for __use_two_region_memory
    startup_mk66f18.o(.text) refers (Special) to heapauxi.o(.text) for __use_two_region_memory
    startup_mk66f18.o(.text) refers to system_mk66.o(i.Start) for Start
    startup_mk66f18.o(.text) refers to __main.o(!!!main) for __main
    startup_mk66f18.o(.text) refers to startup_mk66f18.o(HEAP) for Heap_Mem
    startup_mk66f18.o(.text) refers to startup_mk66f18.o(STACK) for Stack_Mem
    system_mk66.o(i.SYSTEM_CLK) refers to system_mk66.o(i.div_set) for div_set
==============================================================================

Removing Unused input sections from the image.

    Removing system_mk66.o(.rev16_text), (4 bytes).
    Removing system_mk66.o(.revsh_text), (4 bytes).
    Removing system_mk66.o(.constdata), (16 bytes).
    Removing isr.o(.rev16_text), (4 bytes).
    Removing isr.o(.revsh_text), (4 bytes).
    Removing isr.o(.constdata), (16 bytes).
    Removing main.o(.rev16_text), (4 bytes).
    Removing main.o(.revsh_text), (4 bytes).
    Removing main.o(.constdata), (16 bytes).
    Removing power.o(.rev16_text), (4 bytes).
    Removing power.o(.revsh_text), (4 bytes).
    Removing power.o(.constdata), (16 bytes).
    Removing bluetooth.o(.rev16_text), (4 bytes).
    Removing bluetooth.o(.revsh_text), (4 bytes).
    Removing bluetooth.o(i.PC_wave_32), (96 bytes).
    Removing bluetooth.o(i.Send_ANO_Ele1), (388 bytes).
    Removing bluetooth.o(.constdata), (20 bytes).
    Removing ele.o(.rev16_text), (4 bytes).
==============================================================================

Image Symbol Table

    Local Symbols

    Symbol Name                              Value     Ov Type        Size  Object(Section)

    RESET                                    0x00000000   Section     1024  startup_mk66f18.o(RESET)
    ../clib/angel/boardlib.s                 0x00000000   Number         0  boardinit1.o ABSOLUTE
    ../clib/angel/boardlib.s                 0x00000000   Number         0  boardinit2.o ABSOLUTE
    ../clib/angel/boardlib.s                 0x00000000   Number         0  boardinit3.o ABSOLUTE
    ../clib/angel/boardlib.s                 0x00000000   Number         0  boardshut.o ABSOLUTE
    ../clib/angel/dczerorl2.s                0x00000000   Number         0  __dczerorl2.o ABSOLUTE
    ../clib/angel/handlers.s                 0x00000000   Number         0  __scatter_zi.o ABSOLUTE
    ../clib/angel/kernel.s                   0x00000000   Number         0  __rtentry2.o ABSOLUTE
    ../clib/angel/kernel.s                   0x00000000   Number         0  __rtentry4.o ABSOLUTE
    ../clib/angel/kernel.s                   0x00000000   Number         0  rtexit.o ABSOLUTE
    ../clib/angel/kernel.s                   0x00000000   Number         0  rtexit2.o ABSOLUTE
    ../clib/angel/kernel.s                   0x00000000   Number         0  __rtentry.o ABSOLUTE
    ../clib/angel/rt.s                       0x00000000   Number         0  rt_errno_addr_intlibspace.o ABSOLUTE
    ../clib/angel/rt.s                       0x00000000   Number         0  rt_heap_descriptor.o ABSOLUTE
    ../clib/angel/rt.s                       0x00000000   Number         0  rt_heap_descriptor_intlibspace.o ABSOLUTE
    ../clib/angel/rt.s                       0x00000000   Number         0  aeabi_ldiv0.o ABSOLUTE
    ../clib/angel/rt.s                       0x00000000   Number         0  aeabi_ldiv0_sigfpe.o ABSOLUTE
    ../clib/angel/rt.s                       0x00000000   Number         0  rt_raise.o ABSOLUTE
    ../clib/angel/rt.s                       0x00000000   Number         0  rt_errno_addr.o ABSOLUTE
    ../clib/angel/rt.s                       0x00000000   Number         0  rt_div0.o ABSOLUTE
    ../clib/angel/scatter.s                  0x00000000   Number         0  __scatter.o ABSOLUTE
    ../clib/angel/startup.s                  0x00000000   Number         0  __main.o ABSOLUTE
    ../clib/angel/sys.s                      0x00000000   Number         0  indicate_semi.o ABSOLUTE
    ../clib/angel/sys.s                      0x00000000   Number         0  use_no_semi.o ABSOLUTE
    ../clib/angel/sys.s                      0x00000000   Number         0  sys_stackheap_outer.o ABSOLUTE
    ../clib/angel/sys.s                      0x00000000   Number         0  mutex_dummy.o ABSOLUTE
    ../clib/angel/sys.s                      0x00000000   Number         0  libspace.o ABSOLUTE
    ../clib/angel/sysapp.c                   0x00000000   Number         0  sys_exit.o ABSOLUTE
    ../clib/angel/sysapp.c                   0x00000000   Number         0  sys_wrch.o ABSOLUTE
    ../clib/angel/sysapp.c                   0x00000000   Number         0  sys_command.o ABSOLUTE
    ../clib/armsys.c                         0x00000000   Number         0  argv_veneer.o ABSOLUTE
    ../clib/armsys.c                         0x00000000   Number         0  _get_argv.o ABSOLUTE
    ../clib/armsys.c                         0x00000000   Number         0  no_argv.o ABSOLUTE
    ../clib/armsys.c                         0x00000000   Number         0  argv_veneer.o ABSOLUTE
    ../clib/armsys.c                         0x00000000   Number         0  _get_argv_nomalloc.o ABSOLUTE
    ../clib/fenv.c                           0x00000000   Number         0  _rserrno.o ABSOLUTE
    ../clib/heap1.c                          0x00000000   Number         0  h1_final_mt.o ABSOLUTE
    ../clib/heap1.c                          0x00000000   Number         0  h1_free.o ABSOLUTE
    ../clib/heap1.c                          0x00000000   Number         0  h1_init.o ABSOLUTE
    ../clib/heap1.c                          0x00000000   Number         0  h1_extend_mt.o ABSOLUTE
    ../clib/heap1.c                          0x00000000   Number         0  h1_final.o ABSOLUTE
    ../clib/heap1.c                          0x00000000   Number         0  h1_alloc_mt.o ABSOLUTE
    ../clib/heap1.c                          0x00000000   Number         0  h1_alloc.o ABSOLUTE
    ../clib/heap1.c                          0x00000000   Number         0  h1_extend.o ABSOLUTE
    ../clib/heap1.c                          0x00000000   Number         0  h1_free_mt.o ABSOLUTE
    ../clib/heap1.c                          0x00000000   Number         0  h1_init_mt.o ABSOLUTE
    ../clib/heap2.c                          0x00000000   Number         0  fdtree.o ABSOLUTE
    ../clib/heap2.c                          0x00000000   Number         0  heap2mt.o ABSOLUTE
    ../clib/heap2.c                          0x00000000   Number         0  heap2.o ABSOLUTE
    ../clib/heapalloc.c                      0x00000000   Number         0  hrguard.o ABSOLUTE
    ../clib/heapalloc.c                      0x00000000   Number         0  maybetermalloc2.o ABSOLUTE
    ../clib/heapalloc.c                      0x00000000   Number         0  term_alloc.o ABSOLUTE
    ../clib/heapalloc.c                      0x00000000   Number         0  maybetermalloc2.o ABSOLUTE
    ../clib/heapalloc.c                      0x00000000   Number         0  maybetermalloc1.o ABSOLUTE
    ../clib/heapalloc.c                      0x00000000   Number         0  heapstubs.o ABSOLUTE
    ../clib/heapalloc.c                      0x00000000   Number         0  free.o ABSOLUTE
    ../clib/heapalloc.c                      0x00000000   Number         0  init_alloc.o ABSOLUTE
    ../clib/heapalloc.c                      0x00000000   Number         0  hguard.o ABSOLUTE
    ../clib/heapalloc.c                      0x00000000   Number         0  malloc.o ABSOLUTE
    ../clib/heapalloc.c                      0x00000000   Number         0  maybetermalloc1.o ABSOLUTE
    ../clib/heapaux.c                        0x00000000   Number         0  heapauxi.o ABSOLUTE
    ../clib/heapaux.c                        0x00000000   Number         0  heapauxa.o ABSOLUTE
    ../clib/libinit.s                        0x00000000   Number         0  libinit2.o ABSOLUTE
    ../clib/libinit.s                        0x00000000   Number         0  libshutdown2.o ABSOLUTE
    ../clib/libinit.s                        0x00000000   Number         0  libinit.o ABSOLUTE
    ../clib/libinit.s                        0x00000000   Number         0  libshutdown.o ABSOLUTE
    ../clib/longlong.s                       0x00000000   Number         0  lludivv7m.o ABSOLUTE
    ../clib/longlong.s                       0x00000000   Number         0  llsdiv.o ABSOLUTE
    ../clib/memcpset.s                       0x00000000   Number         0  rt_memcpy_w.o ABSOLUTE
    ../clib/signal.c                         0x00000000   Number         0  defsig_abrt_inner.o ABSOLUTE
    ../clib/signal.c                         0x00000000   Number         0  defsig_fpe_outer.o ABSOLUTE
    ../clib/signal.c                         0x00000000   Number         0  defsig_general.o ABSOLUTE
    ../clib/signal.c                         0x00000000   Number         0  defsig_exit.o ABSOLUTE
    ../clib/signal.c                         0x00000000   Number         0  __raise.o ABSOLUTE
    ../clib/signal.c                         0x00000000   Number         0  defsig_other.o ABSOLUTE
    ../clib/signal.c                         0x00000000   Number         0  defsig_stak_inner.o ABSOLUTE
    ../clib/signal.c                         0x00000000   Number         0  defsig_rtmem_inner.o ABSOLUTE
    ../clib/signal.c                         0x00000000   Number         0  defsig_rtmem_formal.o ABSOLUTE
    ../clib/signal.c                         0x00000000   Number         0  defsig_segv_inner.o ABSOLUTE
    ../clib/signal.c                         0x00000000   Number         0  defsig_fpe_formal.o ABSOLUTE
    ../clib/signal.c                         0x00000000   Number         0  defsig_pvfn_inner.o ABSOLUTE
    ../clib/signal.c                         0x00000000   Number         0  defsig_cppl_inner.o ABSOLUTE
    ../clib/signal.c                         0x00000000   Number         0  defsig_rtmem_outer.o ABSOLUTE
    ../clib/signal.c                         0x00000000   Number         0  defsig_fpe_inner.o ABSOLUTE
    ../clib/signal.c                         0x00000000   Number         0  defsig_rtred_inner.o ABSOLUTE
    ../clib/signal.s                         0x00000000   Number         0  defsig.o ABSOLUTE
    ../clib/stdlib.c                         0x00000000   Number         0  exit.o ABSOLUTE
    ../fplib/basic.s                         0x00000000   Number         0  basic.o ABSOLUTE
    ../fplib/d2f.s                           0x00000000   Number         0  d2f.o ABSOLUTE
    ../fplib/daddsub.s                       0x00000000   Number         0  daddsub_clz.o ABSOLUTE
    ../fplib/dcheck1.s                       0x00000000   Number         0  dcheck1.o ABSOLUTE
    ../fplib/dcmpi.s                         0x00000000   Number         0  dcmpi.o ABSOLUTE
    ../fplib/ddiv.s                          0x00000000   Number         0  ddiv.o ABSOLUTE
    ../fplib/dfix.s                          0x00000000   Number         0  dfix.o ABSOLUTE
    ../fplib/dflt.s                          0x00000000   Number         0  dflt_clz.o ABSOLUTE
    ../fplib/dleqf.s                         0x00000000   Number         0  dleqf.o ABSOLUTE
    ../fplib/dmul.s                          0x00000000   Number         0  dmul.o ABSOLUTE
    ../fplib/dnaninf.s                       0x00000000   Number         0  dnaninf.o ABSOLUTE
    ../fplib/dretinf.s                       0x00000000   Number         0  dretinf.o ABSOLUTE
    ../fplib/drleqf.s                        0x00000000   Number         0  drleqf.o ABSOLUTE
    ../fplib/dsqrt.s                         0x00000000   Number         0  dsqrt_umaal.o ABSOLUTE
    ../fplib/f2d.s                           0x00000000   Number         0  f2d.o ABSOLUTE
    ../fplib/fnaninf.s                       0x00000000   Number         0  fnaninf.o ABSOLUTE
    ../fplib/fpinit.s                        0x00000000   Number         0  fpinit.o ABSOLUTE
    ../fplib/fretinf.s                       0x00000000   Number         0  fretinf.o ABSOLUTE
    ../fplib/retnan.s                        0x00000000   Number         0  retnan.o ABSOLUTE
    ../fplib/scalbn.s                        0x00000000   Number         0  scalbn.o ABSOLUTE
    ../fplib/trapv.s                         0x00000000   Number         0  trapv.o ABSOLUTE
    ../fplib/usenofp.s                       0x00000000   Number         0  usenofp.o ABSOLUTE
    ../mathlib/dunder.c                      0x00000000   Number         0  dunder.o ABSOLUTE
    ../mathlib/fabs.c                        0x00000000   Number         0  fabs.o ABSOLUTE
    ../mathlib/fpclassify.c                  0x00000000   Number         0  fpclassify.o ABSOLUTE
    ../mathlib/poly.c                        0x00000000   Number         0  poly.o ABSOLUTE
    ../mathlib/pow.c                         0x00000000   Number         0  pow_x.o ABSOLUTE
    ../mathlib/pow.c                         0x00000000   Number         0  pow.o ABSOLUTE
    ../mathlib/qnan.c                        0x00000000   Number         0  qnan.o ABSOLUTE
    ../mathlib/sqrt.c                        0x00000000   Number         0  sqrt.o ABSOLUTE
    ../mathlib/sqrt.c                        0x00000000   Number         0  sqrt_x.o ABSOLUTE
    ..\CONTROL\Bluetooth.c                   0x00000000   Number         0  bluetooth.o ABSOLUTE
    ..\CONTROL\Ele.c                         0x00000000   Number         0  ele.o ABSOLUTE
    ..\CONTROL\PD_Control.c                  0x00000000   Number         0  pd_control.o ABSOLUTE
    ..\CONTROL\Path.c                        0x00000000   Number         0  path.o ABSOLUTE
    ..\CONTROL\Peripheral.c                  0x00000000   Number         0  peripheral.o ABSOLUTE
    ..\DRIVERS\MK60_adc.c                    0x00000000   Number         0  mk60_adc.o ABSOLUTE
    ..\DRIVERS\MK60_ftm.c                    0x00000000   Number         0  mk60_ftm.o ABSOLUTE
    ..\DRIVERS\MK60_gpio.c                   0x00000000   Number         0  mk60_gpio.o ABSOLUTE
    ..\DRIVERS\MK60_i2c.c                    0x00000000   Number         0  mk60_i2c.o ABSOLUTE
    ..\DRIVERS\MK60_pit.c                    0x00000000   Number         0  mk60_pit.o ABSOLUTE
    ..\DRIVERS\MK60_port.c                   0x00000000   Number         0  mk60_port.o ABSOLUTE
    ..\DRIVERS\MK60_sdhc.c                   0x00000000   Number         0  mk60_sdhc.o ABSOLUTE
    ..\DRIVERS\MK60_systick.c                0x00000000   Number         0  mk60_systick.o ABSOLUTE
    ..\DRIVERS\MK60_uart.c                   0x00000000   Number         0  mk60_uart.o ABSOLUTE
    ..\DRIVERS\OLED.c                        0x00000000   Number         0  oled.o ABSOLUTE
    ..\DRIVERS\common.c                      0x00000000   Number         0  common.o ABSOLUTE
    ..\DRIVERS\misc.c                        0x00000000   Number         0  misc.o ABSOLUTE
    ..\FATFS\diskio.c                        0x00000000   Number         0  diskio.o ABSOLUTE
    ..\FATFS\ff.c                            0x00000000   Number         0  ff.o ABSOLUTE
    ..\STARTUP\startup_MK66F18.s             0x00000000   Number         0  startup_mk66f18.o ABSOLUTE
    ..\STARTUP\system_MK66.c                 0x00000000   Number         0  system_mk66.o ABSOLUTE
    ..\USER\isr.c                            0x00000000   Number         0  isr.o ABSOLUTE
    ..\USER\main.c                           0x00000000   Number         0  main.o ABSOLUTE
    ..\USER\power.c                          0x00000000   Number         0  power.o ABSOLUTE
    ..\\CONTROL\\Bluetooth.c                 0x00000000   Number         0  bluetooth.o ABSOLUTE
    ..\\CONTROL\\Ele.c                       0x00000000   Number         0  ele.o ABSOLUTE
    ..\\CONTROL\\PD_Control.c                0x00000000   Number         0  pd_control.o ABSOLUTE
    ..\\CONTROL\\Path.c                      0x00000000   Number         0  path.o ABSOLUTE
    ..\\CONTROL\\Peripheral.c                0x00000000   Number         0  peripheral.o ABSOLUTE
    ..\\DRIVERS\\MK60_adc.c                  0x00000000   Number         0  mk60_adc.o ABSOLUTE
    ..\\DRIVERS\\MK60_ftm.c                  0x00000000   Number         0  mk60_ftm.o ABSOLUTE
    ..\\DRIVERS\\MK60_gpio.c                 0x00000000   Number         0  mk60_gpio.o ABSOLUTE
    ..\\DRIVERS\\MK60_i2c.c                  0x00000000   Number         0  mk60_i2c.o ABSOLUTE
    ..\\DRIVERS\\MK60_pit.c                  0x00000000   Number         0  mk60_pit.o ABSOLUTE
    ..\\DRIVERS\\MK60_port.c                 0x00000000   Number         0  mk60_port.o ABSOLUTE
    ..\\DRIVERS\\MK60_sdhc.c                 0x00000000   Number         0  mk60_sdhc.o ABSOLUTE
    ..\\DRIVERS\\MK60_systick.c              0x00000000   Number         0  mk60_systick.o ABSOLUTE
    ..\\DRIVERS\\MK60_uart.c                 0x00000000   Number         0  mk60_uart.o ABSOLUTE
    ..\\DRIVERS\\OLED.c                      0x00000000   Number         0  oled.o ABSOLUTE
    ..\\DRIVERS\\common.c                    0x00000000   Number         0  common.o ABSOLUTE
    ..\\DRIVERS\\misc.c                      0x00000000   Number         0  misc.o ABSOLUTE
    ..\\FATFS\\diskio.c                      0x00000000   Number         0  diskio.o ABSOLUTE
    ..\\STARTUP\\system_MK66.c               0x00000000   Number         0  system_mk66.o ABSOLUTE
    ..\\USER\\isr.c                          0x00000000   Number         0  isr.o ABSOLUTE
    ..\\USER\\main.c                         0x00000000   Number         0  main.o ABSOLUTE
    ..\\USER\\power.c                        0x00000000   Number         0  power.o ABSOLUTE
    dc.s                                     0x00000000   Number         0  dc.o ABSOLUTE
    .ARM.__at_0x400                          0x00000400   Section       16  startup_mk66f18.o(.ARM.__at_0x400)
    !!!main                                  0x00000410   Section        8  __main.o(!!!main)
    !!!scatter                               0x00000418   Section       52  __scatter.o(!!!scatter)
    !!dczerorl2                              0x0000044c   Section       90  __dczerorl2.o(!!dczerorl2)
    !!handler_zi                             0x000004a8   Section       28  __scatter_zi.o(!!handler_zi)
    .ARM.Collect$$libinit$$00000000          0x000004c4   Section        2  libinit.o(.ARM.Collect$$libinit$$00000000)
    .ARM.Collect$$libinit$$00000001          0x000004c6   Section        4  libinit2.o(.ARM.Collect$$libinit$$00000001)
    .ARM.Collect$$libinit$$00000004          0x000004ca   Section        0  libinit2.o(.ARM.Collect$$libinit$$00000004)
    .ARM.Collect$$libinit$$0000000A          0x000004ca   Section        0  libinit2.o(.ARM.Collect$$libinit$$0000000A)
    .ARM.Collect$$libinit$$0000000C          0x000004ca   Section        0  libinit2.o(.ARM.Collect$$libinit$$0000000C)
    .ARM.Collect$$libinit$$0000000E          0x000004ca   Section        0  libinit2.o(.ARM.Collect$$libinit$$0000000E)
    .ARM.Collect$$libinit$$00000011          0x000004ca   Section        0  libinit2.o(.ARM.Collect$$libinit$$00000011)
    .ARM.Collect$$libinit$$00000013          0x000004ca   Section        0  libinit2.o(.ARM.Collect$$libinit$$00000013)
    .ARM.Collect$$libinit$$00000015          0x000004ca   Section        0  libinit2.o(.ARM.Collect$$libinit$$00000015)
    .ARM.Collect$$libinit$$00000017          0x000004ca   Section        0  libinit2.o(.ARM.Collect$$libinit$$00000017)
    .ARM.Collect$$libinit$$00000019          0x000004ca   Section        0  libinit2.o(.ARM.Collect$$libinit$$00000019)
    .ARM.Collect$$libinit$$0000001B          0x000004ca   Section        0  libinit2.o(.ARM.Collect$$libinit$$0000001B)
    .ARM.Collect$$libinit$$0000001D          0x000004ca   Section        0  libinit2.o(.ARM.Collect$$libinit$$0000001D)
    .ARM.Collect$$libinit$$0000001F          0x000004ca   Section        0  libinit2.o(.ARM.Collect$$libinit$$0000001F)
    .ARM.Collect$$libinit$$00000021          0x000004ca   Section        0  libinit2.o(.ARM.Collect$$libinit$$00000021)
    .ARM.Collect$$libinit$$00000023          0x000004ca   Section        0  libinit2.o(.ARM.Collect$$libinit$$00000023)
    .ARM.Collect$$libinit$$00000025          0x000004ca   Section        0  libinit2.o(.ARM.Collect$$libinit$$00000025)
    .ARM.Collect$$libinit$$0000002C          0x000004ca   Section        0  libinit2.o(.ARM.Collect$$libinit$$0000002C)
    .ARM.Collect$$libinit$$0000002E          0x000004ca   Section        0  libinit2.o(.ARM.Collect$$libinit$$0000002E)
    .ARM.Collect$$libinit$$00000030          0x000004ca   Section        0  libinit2.o(.ARM.Collect$$libinit$$00000030)
    .ARM.Collect$$libinit$$00000032          0x000004ca   Section        0  libinit2.o(.ARM.Collect$$libinit$$00000032)
    .ARM.Collect$$libinit$$00000033          0x000004ca   Section        2  libinit2.o(.ARM.Collect$$libinit$$00000033)
    .ARM.Collect$$libshutdown$$00000000      0x000004cc   Section        2  libshutdown.o(.ARM.Collect$$libshutdown$$00000000)
    .ARM.Collect$$libshutdown$$00000002      0x000004ce   Section        0  libshutdown2.o(.ARM.Collect$$libshutdown$$00000002)
    .ARM.Collect$$libshutdown$$00000004      0x000004ce   Section        0  libshutdown2.o(.ARM.Collect$$libshutdown$$00000004)
    .ARM.Collect$$libshutdown$$00000007      0x000004ce   Section        0  libshutdown2.o(.ARM.Collect$$libshutdown$$00000007)
    .ARM.Collect$$libshutdown$$0000000A      0x000004ce   Section        0  libshutdown2.o(.ARM.Collect$$libshutdown$$0000000A)
    .ARM.Collect$$libshutdown$$0000000C      0x000004ce   Section        0  libshutdown2.o(.ARM.Collect$$libshutdown$$0000000C)
    .ARM.Collect$$libshutdown$$0000000F      0x000004ce   Section        0  libshutdown2.o(.ARM.Collect$$libshutdown$$0000000F)
    .ARM.Collect$$libshutdown$$00000010      0x000004ce   Section        2  libshutdown2.o(.ARM.Collect$$libshutdown$$00000010)
    .ARM.Collect$$rtentry$$00000000          0x000004d0   Section        0  __rtentry.o(.ARM.Collect$$rtentry$$00000000)
    .ARM.Collect$$rtentry$$00000002          0x000004d0   Section        0  __rtentry2.o(.ARM.Collect$$rtentry$$00000002)
    .ARM.Collect$$rtentry$$00000004          0x000004d0   Section        6  __rtentry4.o(.ARM.Collect$$rtentry$$00000004)
    .ARM.Collect$$rtentry$$00000009          0x000004d6   Section        0  __rtentry2.o(.ARM.Collect$$rtentry$$00000009)
    .ARM.Collect$$rtentry$$0000000A          0x000004d6   Section        4  __rtentry2.o(.ARM.Collect$$rtentry$$0000000A)
    .ARM.Collect$$rtentry$$0000000C          0x000004da   Section        0  __rtentry2.o(.ARM.Collect$$rtentry$$0000000C)
    .ARM.Collect$$rtentry$$0000000D          0x000004da   Section        8  __rtentry2.o(.ARM.Collect$$rtentry$$0000000D)
    .ARM.Collect$$rtexit$$00000000           0x000004e2   Section        2  rtexit.o(.ARM.Collect$$rtexit$$00000000)
    .ARM.Collect$$rtexit$$00000002           0x000004e4   Section        0  rtexit2.o(.ARM.Collect$$rtexit$$00000002)
    .ARM.Collect$$rtexit$$00000003           0x000004e4   Section        4  rtexit2.o(.ARM.Collect$$rtexit$$00000003)
    .ARM.Collect$$rtexit$$00000004           0x000004e8   Section        6  rtexit2.o(.ARM.Collect$$rtexit$$00000004)
    .text                                    0x000004f0   Section       64  startup_mk66f18.o(.text)
    $v0                                      0x000004f0   Number         0  startup_mk66f18.o(.text)
    .text                                    0x00000530   Section       72  llsdiv.o(.text)
    .text                                    0x00000578   Section        0  heapauxi.o(.text)
    .text                                    0x0000057e   Section      238  lludivv7m.o(.text)
    .text                                    0x0000066c   Section        0  _rserrno.o(.text)
    .text                                    0x00000684   Section        8  libspace.o(.text)
    .text                                    0x0000068c   Section        8  rt_errno_addr_intlibspace.o(.text)
    .text                                    0x00000694   Section        2  use_no_semi.o(.text)
    .text                                    0x00000696   Section        0  indicate_semi.o(.text)
    .text                                    0x00000696   Section       74  sys_stackheap_outer.o(.text)
    .text                                    0x000006e0   Section        0  exit.o(.text)
    .text                                    0x000006f4   Section        0  sys_exit.o(.text)
    i.Char_change                            0x00000700   Section        0  oled.o(i.Char_change)
    i.Disable_Wdog                           0x0000083c   Section        0  system_mk66.o(i.Disable_Wdog)
    i.ELE_LeftCircle_Detect                  0x00000858   Section        0  ele.o(i.ELE_LeftCircle_Detect)
    i.ELE_LeftCircle_Detect_big              0x00000c24   Section        0  ele.o(i.ELE_LeftCircle_Detect_big)
    i.ELE_RightCircle_Detect                 0x00000fc8   Section        0  ele.o(i.ELE_RightCircle_Detect)
    i.ELE_RightCircle_Detect_big             0x000013cc   Section        0  ele.o(i.ELE_RightCircle_Detect_big)
    i.ELE_Run                                0x00001784   Section        0  ele.o(i.ELE_Run)
    i.ELE_Run_P                              0x00001b5c   Section        0  power.o(i.ELE_Run_P)
    i.FTM_port_mux                           0x00001d90   Section        0  mk60_ftm.o(i.FTM_port_mux)
    i.Math_change                            0x00001f24   Section        0  oled.o(i.Math_change)
    i.NMI_Handler                            0x0000226c   Section        0  system_mk66.o(i.NMI_Handler)
    i.NVIC_EnableIRQ                         0x0000226e   Section        0  peripheral.o(i.NVIC_EnableIRQ)
    NVIC_EnableIRQ                           0x0000226f   Thumb Code    22  peripheral.o(i.NVIC_EnableIRQ)
    i.NVIC_SetPriority                       0x00002284   Section        0  peripheral.o(i.NVIC_SetPriority)
    NVIC_SetPriority                         0x00002285   Thumb Code    32  peripheral.o(i.NVIC_SetPriority)
    i.OLED_DLY_ms                            0x000022ac   Section        0  oled.o(i.OLED_DLY_ms)
    i.OLED_Fill                              0x000022c8   Section        0  oled.o(i.OLED_Fill)
    i.OLED_Init                              0x00002302   Section        0  oled.o(i.OLED_Init)
    i.OLED_P6x8Str                           0x00002424   Section        0  oled.o(i.OLED_P6x8Str)
    i.OLED_Set_Pos                           0x00002488   Section        0  oled.o(i.OLED_Set_Pos)
    i.OLED_WrCmd                             0x000024b0   Section        0  oled.o(i.OLED_WrCmd)
    i.OLED_WrDat                             0x00002500   Section        0  oled.o(i.OLED_WrDat)
    i.PD_Left                                0x00002550   Section        0  pd_control.o(i.PD_Left)
    i.PD_Right                               0x0000269c   Section        0  pd_control.o(i.PD_Right)
    i.PD_control                             0x000027e8   Section        0  pd_control.o(i.PD_control)
    i.PIT0_IRQHandler                        0x0000289c   Section        0  isr.o(i.PIT0_IRQHandler)
    i.PIT1_IRQHandler                        0x00002a0c   Section        0  isr.o(i.PIT1_IRQHandler)
    i.PORTA_IRQHandler                       0x00002ab0   Section        0  isr.o(i.PORTA_IRQHandler)
    i.PORTC_IRQHandler                       0x00002ac0   Section        0  isr.o(i.PORTC_IRQHandler)
    i.Peripherals_Init                       0x00002ad0   Section        0  peripheral.o(i.Peripherals_Init)
    i.SYSTEM_CLK                             0x00002dc8   Section        0  system_mk66.o(i.SYSTEM_CLK)
    i.Send_ANO_Ele2                          0x00002e80   Section        0  bluetooth.o(i.Send_ANO_Ele2)
    i.Send_Data                              0x00002fdc   Section        0  bluetooth.o(i.Send_Data)
    i.Start                                  0x00003038   Section        0  system_mk66.o(i.Start)
    i.UART4_RX_TX_IRQHandler                 0x00003060   Section        0  isr.o(i.UART4_RX_TX_IRQHandler)
    i.__ARM_fpclassify                       0x0000307c   Section        0  fpclassify.o(i.__ARM_fpclassify)
    i.__hardfp_pow                           0x000030b0   Section        0  pow.o(i.__hardfp_pow)
    i.__kernel_poly                          0x00003d00   Section        0  poly.o(i.__kernel_poly)
    i.__mathlib_dbl_divzero                  0x00003df8   Section        0  dunder.o(i.__mathlib_dbl_divzero)
    i.__mathlib_dbl_infnan2                  0x00003e28   Section        0  dunder.o(i.__mathlib_dbl_infnan2)
    i.__mathlib_dbl_invalid                  0x00003e40   Section        0  dunder.o(i.__mathlib_dbl_invalid)
    i.__mathlib_dbl_overflow                 0x00003e60   Section        0  dunder.o(i.__mathlib_dbl_overflow)
    i.__mathlib_dbl_underflow                0x00003e80   Section        0  dunder.o(i.__mathlib_dbl_underflow)
    i.adc_init                               0x00003ea0   Section        0  mk60_adc.o(i.adc_init)
    i.adc_once                               0x00004050   Section        0  mk60_adc.o(i.adc_once)
    i.adc_start                              0x0000409c   Section        0  mk60_adc.o(i.adc_start)
    i.block_detect                           0x000040d4   Section        0  path.o(i.block_detect)
    i.circe_detect                           0x0000419c   Section        0  path.o(i.circe_detect)
    i.div_set                                0x0000420c   Section        0  system_mk66.o(i.div_set)
    i.fabs                                   0x00004258   Section        0  fabs.o(i.fabs)
    i.ftm_pwm_duty                           0x00004270   Section        0  mk60_ftm.o(i.ftm_pwm_duty)
    i.ftm_pwm_init                           0x000042f0   Section        0  mk60_ftm.o(i.ftm_pwm_init)
    i.fz_detect                              0x00004424   Section        0  ele.o(i.fz_detect)
    i.get_clk                                0x000044cc   Section        0  common.o(i.get_clk)
    i.get_distance_tof                       0x00004540   Section        0  bluetooth.o(i.get_distance_tof)
    i.gpio_get                               0x000046c0   Section        0  mk60_gpio.o(i.gpio_get)
    i.gpio_init                              0x000046ec   Section        0  mk60_gpio.o(i.gpio_init)
    i.gpio_set                               0x000047c0   Section        0  mk60_gpio.o(i.gpio_set)
    i.gpio_turn                              0x00004808   Section        0  mk60_gpio.o(i.gpio_turn)
    i.if_block                               0x00004830   Section        0  path.o(i.if_block)
    i.in_straight_detect                     0x00004ab4   Section        0  path.o(i.in_straight_detect)
    i.main                                   0x00004b34   Section        0  main.o(i.main)
    i.pit_init                               0x00004d94   Section        0  mk60_pit.o(i.pit_init)
    i.port_init                              0x00004df0   Section        0  mk60_port.o(i.port_init)
    i.port_init_NoAlt                        0x00004e64   Section        0  mk60_port.o(i.port_init_NoAlt)
    i.power_control                          0x00004eb8   Section        0  power.o(i.power_control)
    i.pwm_control                            0x00005620   Section        0  pd_control.o(i.pwm_control)
    i.sqrt                                   0x00005698   Section        0  sqrt.o(i.sqrt)
    i.uart_getchar                           0x00005708   Section        0  mk60_uart.o(i.uart_getchar)
    i.uart_init                              0x0000572c   Section        0  mk60_uart.o(i.uart_init)
    i.uart_putbuff                           0x00005904   Section        0  mk60_uart.o(i.uart_putbuff)
    i.uart_putchar                           0x00005924   Section        0  mk60_uart.o(i.uart_putchar)
    x$fpl$basic                              0x00005944   Section       24  basic.o(x$fpl$basic)
    $v0                                      0x00005944   Number         0  basic.o(x$fpl$basic)
    x$fpl$d2f                                0x0000595c   Section       98  d2f.o(x$fpl$d2f)
    $v0                                      0x0000595c   Number         0  d2f.o(x$fpl$d2f)
    x$fpl$dadd                               0x000059c0   Section      336  daddsub_clz.o(x$fpl$dadd)
    $v0                                      0x000059c0   Number         0  daddsub_clz.o(x$fpl$dadd)
    _dadd1                                   0x000059d1   Thumb Code     0  daddsub_clz.o(x$fpl$dadd)
    x$fpl$dcheck1                            0x00005b10   Section       16  dcheck1.o(x$fpl$dcheck1)
    $v0                                      0x00005b10   Number         0  dcheck1.o(x$fpl$dcheck1)
    x$fpl$dcmpinf                            0x00005b20   Section       24  dcmpi.o(x$fpl$dcmpinf)
    $v0                                      0x00005b20   Number         0  dcmpi.o(x$fpl$dcmpinf)
    x$fpl$ddiv                               0x00005b38   Section      688  ddiv.o(x$fpl$ddiv)
    $v0                                      0x00005b38   Number         0  ddiv.o(x$fpl$ddiv)
    ddiv_entry                               0x00005b3f   Thumb Code     0  ddiv.o(x$fpl$ddiv)
    x$fpl$dfix                               0x00005de8   Section       94  dfix.o(x$fpl$dfix)
    $v0                                      0x00005de8   Number         0  dfix.o(x$fpl$dfix)
    x$fpl$dflt                               0x00005e46   Section       46  dflt_clz.o(x$fpl$dflt)
    $v0                                      0x00005e46   Number         0  dflt_clz.o(x$fpl$dflt)
    x$fpl$dfltu                              0x00005e74   Section       38  dflt_clz.o(x$fpl$dfltu)
    $v0                                      0x00005e74   Number         0  dflt_clz.o(x$fpl$dfltu)
    x$fpl$dleqf                              0x00005e9c   Section      120  dleqf.o(x$fpl$dleqf)
    $v0                                      0x00005e9c   Number         0  dleqf.o(x$fpl$dleqf)
    x$fpl$dmul                               0x00005f14   Section      340  dmul.o(x$fpl$dmul)
    $v0                                      0x00005f14   Number         0  dmul.o(x$fpl$dmul)
    x$fpl$dnaninf                            0x00006068   Section      156  dnaninf.o(x$fpl$dnaninf)
    $v0                                      0x00006068   Number         0  dnaninf.o(x$fpl$dnaninf)
    x$fpl$dretinf                            0x00006104   Section       12  dretinf.o(x$fpl$dretinf)
    $v0                                      0x00006104   Number         0  dretinf.o(x$fpl$dretinf)
    x$fpl$drleqf                             0x00006110   Section      108  drleqf.o(x$fpl$drleqf)
    $v0                                      0x00006110   Number         0  drleqf.o(x$fpl$drleqf)
    x$fpl$drsb                               0x0000617c   Section       22  daddsub_clz.o(x$fpl$drsb)
    $v0                                      0x0000617c   Number         0  daddsub_clz.o(x$fpl$drsb)
    x$fpl$dsqrt                              0x00006194   Section      408  dsqrt_umaal.o(x$fpl$dsqrt)
    $v0                                      0x00006194   Number         0  dsqrt_umaal.o(x$fpl$dsqrt)
    x$fpl$dsub                               0x0000632c   Section      468  daddsub_clz.o(x$fpl$dsub)
    $v0                                      0x0000632c   Number         0  daddsub_clz.o(x$fpl$dsub)
    _dsub1                                   0x0000633d   Thumb Code     0  daddsub_clz.o(x$fpl$dsub)
    x$fpl$f2d                                0x00006500   Section       86  f2d.o(x$fpl$f2d)
    $v0                                      0x00006500   Number         0  f2d.o(x$fpl$f2d)
    x$fpl$fnaninf                            0x00006556   Section      140  fnaninf.o(x$fpl$fnaninf)
    $v0                                      0x00006556   Number         0  fnaninf.o(x$fpl$fnaninf)
    x$fpl$fpinit                             0x000065e2   Section       10  fpinit.o(x$fpl$fpinit)
    $v0                                      0x000065e2   Number         0  fpinit.o(x$fpl$fpinit)
    x$fpl$fretinf                            0x000065ec   Section       10  fretinf.o(x$fpl$fretinf)
    $v0                                      0x000065ec   Number         0  fretinf.o(x$fpl$fretinf)
    x$fpl$retnan                             0x000065f6   Section      100  retnan.o(x$fpl$retnan)
    $v0                                      0x000065f6   Number         0  retnan.o(x$fpl$retnan)
    x$fpl$scalbn                             0x0000665a   Section       92  scalbn.o(x$fpl$scalbn)
    $v0                                      0x0000665a   Number         0  scalbn.o(x$fpl$scalbn)
    x$fpl$trapveneer                         0x000066b6   Section       48  trapv.o(x$fpl$trapveneer)
    $v0                                      0x000066b6   Number         0  trapv.o(x$fpl$trapveneer)
    x$fpl$usenofp                            0x000066e6   Section        0  usenofp.o(x$fpl$usenofp)
    .constdata                               0x000066e8   Section       24  mk60_adc.o(.constdata)
    FTMX                                     0x000066e8   Data          16  mk60_adc.o(.constdata)
    .constdata                               0x00006700   Section       16  mk60_ftm.o(.constdata)
    FTMX                                     0x00006700   Data          16  mk60_ftm.o(.constdata)
    .constdata                               0x00006710   Section       56  mk60_gpio.o(.constdata)
    FTMX                                     0x00006710   Data          16  mk60_gpio.o(.constdata)
    PORTX                                    0x00006720   Data          20  mk60_gpio.o(.constdata)
    GPIOX                                    0x00006734   Data          20  mk60_gpio.o(.constdata)
    .constdata                               0x00006748   Section       56  mk60_port.o(.constdata)
    FTMX                                     0x00006748   Data          16  mk60_port.o(.constdata)
    PORTX                                    0x00006758   Data          20  mk60_port.o(.constdata)
    GPIOX                                    0x0000676c   Data          20  mk60_port.o(.constdata)
    .constdata                               0x00006780   Section     2088  oled.o(.constdata)
    FTMX                                     0x00006780   Data          16  oled.o(.constdata)
    .constdata                               0x00006fa8   Section      136  pow.o(.constdata)
    bp                                       0x00006fa8   Data          16  pow.o(.constdata)
    dp_h                                     0x00006fb8   Data          16  pow.o(.constdata)
    dp_l                                     0x00006fc8   Data          16  pow.o(.constdata)
    L                                        0x00006fd8   Data          48  pow.o(.constdata)
    P                                        0x00007008   Data          40  pow.o(.constdata)
    .constdata                               0x00007030   Section        8  qnan.o(.constdata)
    .data                                    0x20000000   Section       14  isr.o(.data)
    .data                                    0x20000010   Section       12  main.o(.data)
    .data                                    0x2000001c   Section       99  power.o(.data)
    time_count                               0x20000072   Data           2  power.o(.data)
    .data                                    0x20000080   Section       36  bluetooth.o(.data)
    .data                                    0x200000a4   Section       96  ele.o(.data)
    .data                                    0x20000104   Section       54  pd_control.o(.data)
    .data                                    0x2000013c   Section       64  path.o(.data)
    .data                                    0x2000017c   Section       12  common.o(.data)
    .data                                    0x20000188   Section       20  mk60_uart.o(.data)
    .bss                                     0x2000019c   Section      384  power.o(.bss)
    temp_voltage                             0x20000310   Data          12  power.o(.bss)
    .bss                                     0x2000031c   Section       41  bluetooth.o(.bss)
    .bss                                     0x20000348   Section       48  ele.o(.bss)
    .bss                                     0x20000378   Section       96  pd_control.o(.bss)
    .bss                                     0x200003d8   Section       16  path.o(.bss)
    .bss                                     0x200003e8   Section       12  mk60_ftm.o(.bss)
    .bss                                     0x200003f4   Section       20  oled.o(.bss)
    .bss                                     0x20000408   Section       96  libspace.o(.bss)
    HEAP                                     0x20000468   Section        0  startup_mk66f18.o(HEAP)
    STACK                                    0x20000468   Section     1024  startup_mk66f18.o(STACK)
    Heap_Mem                                 0x20000468   Data           0  startup_mk66f18.o(HEAP)
    Stack_Mem                                0x20000468   Data        1024  startup_mk66f18.o(STACK)
    __initial_sp                             0x20000868   Data           0  startup_mk66f18.o(STACK)

    Global Symbols

    Symbol Name                              Value     Ov Type        Size  Object(Section)

    BuildAttributes$$THM_ISAv4$E$P$D$K$B$S$7EM$VFPi3$EXTD16$VFPS$VFMA$PE$A:L22UL41UL21$X:L11$S22US41US21$IEEE1$IW$USESV6$~STKCKD$USESV7$~SHL$OTIME$ROPI$IEEEX$EBA8$UX$STANDARDLIB$REQ8$PRES8$EABIv2 0x00000000   Number         0  anon$$obj.o ABSOLUTE
    __ARM_use_no_argv                        0x00000000   Number         0  main.o ABSOLUTE
    __Vectors                                0x00000000   Data           4  startup_mk66f18.o(RESET)
    __ARM_exceptions_init                     - Undefined Weak Reference
    __alloca_initialize                       - Undefined Weak Reference
    __arm_preinit_                            - Undefined Weak Reference
    __cpp_initialize__aeabi_                  - Undefined Weak Reference
    __cxa_finalize                            - Undefined Weak Reference
    __rt_locale                               - Undefined Weak Reference
    __sigvec_lookup                           - Undefined Weak Reference
    __user_heap_extent                        - Undefined Weak Reference
    _atexit_init                              - Undefined Weak Reference
    _call_atexit_fns                          - Undefined Weak Reference
    _clock_init                               - Undefined Weak Reference
    _fp_trap_init                             - Undefined Weak Reference
    _fp_trap_shutdown                         - Undefined Weak Reference
    _get_lc_collate                           - Undefined Weak Reference
    _get_lc_ctype                             - Undefined Weak Reference
    _get_lc_monetary                          - Undefined Weak Reference
    _get_lc_numeric                           - Undefined Weak Reference
    _get_lc_time                              - Undefined Weak Reference
    _getenv_init                              - Undefined Weak Reference
    _handle_redirection                       - Undefined Weak Reference
    _initio                                   - Undefined Weak Reference
    _mutex_acquire                            - Undefined Weak Reference
    _mutex_free                               - Undefined Weak Reference
    _mutex_release                            - Undefined Weak Reference
    _rand_init                                - Undefined Weak Reference
    _signal_finish                            - Undefined Weak Reference
    _signal_init                              - Undefined Weak Reference
    _terminateio                              - Undefined Weak Reference
    __Vectors_End                            0x00000400   Data           0  startup_mk66f18.o(RESET)
    __Vectors_Size                           0x00000400   Number         0  startup_mk66f18.o ABSOLUTE
    __main                                   0x00000411   Thumb Code     8  __main.o(!!!main)
    __scatterload                            0x00000419   Thumb Code     0  __scatter.o(!!!scatter)
    __scatterload_rt2                        0x00000419   Thumb Code    44  __scatter.o(!!!scatter)
    __scatterload_rt2_thumb_only             0x00000419   Thumb Code     0  __scatter.o(!!!scatter)
    __scatterload_null                       0x00000427   Thumb Code     0  __scatter.o(!!!scatter)
    __decompress                             0x0000044d   Thumb Code    90  __dczerorl2.o(!!dczerorl2)
    __decompress1                            0x0000044d   Thumb Code     0  __dczerorl2.o(!!dczerorl2)
    __scatterload_zeroinit                   0x000004a9   Thumb Code    28  __scatter_zi.o(!!handler_zi)
    __rt_lib_init                            0x000004c5   Thumb Code     0  libinit.o(.ARM.Collect$$libinit$$00000000)
    __rt_lib_init_fp_1                       0x000004c7   Thumb Code     0  libinit2.o(.ARM.Collect$$libinit$$00000001)
    __rt_lib_init_alloca_1                   0x000004cb   Thumb Code     0  libinit2.o(.ARM.Collect$$libinit$$0000002E)
    __rt_lib_init_argv_1                     0x000004cb   Thumb Code     0  libinit2.o(.ARM.Collect$$libinit$$0000002C)
    __rt_lib_init_atexit_1                   0x000004cb   Thumb Code     0  libinit2.o(.ARM.Collect$$libinit$$0000001B)
    __rt_lib_init_clock_1                    0x000004cb   Thumb Code     0  libinit2.o(.ARM.Collect$$libinit$$00000021)
    __rt_lib_init_cpp_1                      0x000004cb   Thumb Code     0  libinit2.o(.ARM.Collect$$libinit$$00000032)
    __rt_lib_init_exceptions_1               0x000004cb   Thumb Code     0  libinit2.o(.ARM.Collect$$libinit$$00000030)
    __rt_lib_init_fp_trap_1                  0x000004cb   Thumb Code     0  libinit2.o(.ARM.Collect$$libinit$$0000001F)
    __rt_lib_init_getenv_1                   0x000004cb   Thumb Code     0  libinit2.o(.ARM.Collect$$libinit$$00000023)
    __rt_lib_init_heap_1                     0x000004cb   Thumb Code     0  libinit2.o(.ARM.Collect$$libinit$$0000000A)
    __rt_lib_init_lc_collate_1               0x000004cb   Thumb Code     0  libinit2.o(.ARM.Collect$$libinit$$00000011)
    __rt_lib_init_lc_ctype_1                 0x000004cb   Thumb Code     0  libinit2.o(.ARM.Collect$$libinit$$00000013)
    __rt_lib_init_lc_monetary_1              0x000004cb   Thumb Code     0  libinit2.o(.ARM.Collect$$libinit$$00000015)
    __rt_lib_init_lc_numeric_1               0x000004cb   Thumb Code     0  libinit2.o(.ARM.Collect$$libinit$$00000017)
    __rt_lib_init_lc_time_1                  0x000004cb   Thumb Code     0  libinit2.o(.ARM.Collect$$libinit$$00000019)
    __rt_lib_init_preinit_1                  0x000004cb   Thumb Code     0  libinit2.o(.ARM.Collect$$libinit$$00000004)
    __rt_lib_init_rand_1                     0x000004cb   Thumb Code     0  libinit2.o(.ARM.Collect$$libinit$$0000000E)
    __rt_lib_init_return                     0x000004cb   Thumb Code     0  libinit2.o(.ARM.Collect$$libinit$$00000033)
    __rt_lib_init_signal_1                   0x000004cb   Thumb Code     0  libinit2.o(.ARM.Collect$$libinit$$0000001D)
    __rt_lib_init_stdio_1                    0x000004cb   Thumb Code     0  libinit2.o(.ARM.Collect$$libinit$$00000025)
    __rt_lib_init_user_alloc_1               0x000004cb   Thumb Code     0  libinit2.o(.ARM.Collect$$libinit$$0000000C)
    __rt_lib_shutdown                        0x000004cd   Thumb Code     0  libshutdown.o(.ARM.Collect$$libshutdown$$00000000)
    __rt_lib_shutdown_cpp_1                  0x000004cf   Thumb Code     0  libshutdown2.o(.ARM.Collect$$libshutdown$$00000002)
    __rt_lib_shutdown_fp_trap_1              0x000004cf   Thumb Code     0  libshutdown2.o(.ARM.Collect$$libshutdown$$00000007)
    __rt_lib_shutdown_heap_1                 0x000004cf   Thumb Code     0  libshutdown2.o(.ARM.Collect$$libshutdown$$0000000F)
    __rt_lib_shutdown_return                 0x000004cf   Thumb Code     0  libshutdown2.o(.ARM.Collect$$libshutdown$$00000010)
    __rt_lib_shutdown_signal_1               0x000004cf   Thumb Code     0  libshutdown2.o(.ARM.Collect$$libshutdown$$0000000A)
    __rt_lib_shutdown_stdio_1                0x000004cf   Thumb Code     0  libshutdown2.o(.ARM.Collect$$libshutdown$$00000004)
    __rt_lib_shutdown_user_alloc_1           0x000004cf   Thumb Code     0  libshutdown2.o(.ARM.Collect$$libshutdown$$0000000C)
    __rt_entry                               0x000004d1   Thumb Code     0  __rtentry.o(.ARM.Collect$$rtentry$$00000000)
    __rt_entry_presh_1                       0x000004d1   Thumb Code     0  __rtentry2.o(.ARM.Collect$$rtentry$$00000002)
    __rt_entry_sh                            0x000004d1   Thumb Code     0  __rtentry4.o(.ARM.Collect$$rtentry$$00000004)
    __rt_entry_li                            0x000004d7   Thumb Code     0  __rtentry2.o(.ARM.Collect$$rtentry$$0000000A)
    __rt_entry_postsh_1                      0x000004d7   Thumb Code     0  __rtentry2.o(.ARM.Collect$$rtentry$$00000009)
    __rt_entry_main                          0x000004db   Thumb Code     0  __rtentry2.o(.ARM.Collect$$rtentry$$0000000D)
    __rt_entry_postli_1                      0x000004db   Thumb Code     0  __rtentry2.o(.ARM.Collect$$rtentry$$0000000C)
    __rt_exit                                0x000004e3   Thumb Code     0  rtexit.o(.ARM.Collect$$rtexit$$00000000)
    __rt_exit_ls                             0x000004e5   Thumb Code     0  rtexit2.o(.ARM.Collect$$rtexit$$00000003)
    __rt_exit_prels_1                        0x000004e5   Thumb Code     0  rtexit2.o(.ARM.Collect$$rtexit$$00000002)
    __rt_exit_exit                           0x000004e9   Thumb Code     0  rtexit2.o(.ARM.Collect$$rtexit$$00000004)
    Reset_Handler                            0x000004f1   Thumb Code    12  startup_mk66f18.o(.text)
    HardFault_Handler                        0x000004ff   Thumb Code     2  startup_mk66f18.o(.text)
    MemManage_Handler                        0x00000501   Thumb Code     2  startup_mk66f18.o(.text)
    BusFault_Handler                         0x00000503   Thumb Code     2  startup_mk66f18.o(.text)
    UsageFault_Handler                       0x00000505   Thumb Code     2  startup_mk66f18.o(.text)
    SVC_Handler                              0x00000507   Thumb Code     2  startup_mk66f18.o(.text)
    DebugMon_Handler                         0x00000509   Thumb Code     2  startup_mk66f18.o(.text)
    PendSV_Handler                           0x0000050b   Thumb Code     2  startup_mk66f18.o(.text)
    SysTick_Handler                          0x0000050d   Thumb Code     2  startup_mk66f18.o(.text)
    ADC0_IRQHandler                          0x0000050f   Thumb Code     0  startup_mk66f18.o(.text)
    ADC1_IRQHandler                          0x0000050f   Thumb Code     0  startup_mk66f18.o(.text)
    CAN0_Bus_Off_IRQHandler                  0x0000050f   Thumb Code     0  startup_mk66f18.o(.text)
    CAN0_Error_IRQHandler                    0x0000050f   Thumb Code     0  startup_mk66f18.o(.text)
    CAN0_ORed_Message_buffer_IRQHandler      0x0000050f   Thumb Code     0  startup_mk66f18.o(.text)
    CAN0_Rx_Warning_IRQHandler               0x0000050f   Thumb Code     0  startup_mk66f18.o(.text)
    CAN0_Tx_Warning_IRQHandler               0x0000050f   Thumb Code     0  startup_mk66f18.o(.text)
    CAN0_Wake_Up_IRQHandler                  0x0000050f   Thumb Code     0  startup_mk66f18.o(.text)
    CAN1_Bus_Off_IRQHandler                  0x0000050f   Thumb Code     0  startup_mk66f18.o(.text)
    CAN1_Error_IRQHandler                    0x0000050f   Thumb Code     0  startup_mk66f18.o(.text)
    CAN1_ORed_Message_buffer_IRQHandler      0x0000050f   Thumb Code     0  startup_mk66f18.o(.text)
    CAN1_Rx_Warning_IRQHandler               0x0000050f   Thumb Code     0  startup_mk66f18.o(.text)
    CAN1_Tx_Warning_IRQHandler               0x0000050f   Thumb Code     0  startup_mk66f18.o(.text)
    CAN1_Wake_Up_IRQHandler                  0x0000050f   Thumb Code     0  startup_mk66f18.o(.text)
    CMP0_IRQHandler                          0x0000050f   Thumb Code     0  startup_mk66f18.o(.text)
    CMP1_IRQHandler                          0x0000050f   Thumb Code     0  startup_mk66f18.o(.text)
    CMP2_IRQHandler                          0x0000050f   Thumb Code     0  startup_mk66f18.o(.text)
    CMP3_IRQHandler                          0x0000050f   Thumb Code     0  startup_mk66f18.o(.text)
    CMT_IRQHandler                           0x0000050f   Thumb Code     0  startup_mk66f18.o(.text)
    DAC0_IRQHandler                          0x0000050f   Thumb Code     0  startup_mk66f18.o(.text)
    DAC1_IRQHandler                          0x0000050f   Thumb Code     0  startup_mk66f18.o(.text)
    DMA0_IRQHandler                          0x0000050f   Thumb Code     0  startup_mk66f18.o(.text)
    DMA10_IRQHandler                         0x0000050f   Thumb Code     0  startup_mk66f18.o(.text)
    DMA11_IRQHandler                         0x0000050f   Thumb Code     0  startup_mk66f18.o(.text)
    DMA12_IRQHandler                         0x0000050f   Thumb Code     0  startup_mk66f18.o(.text)
    DMA13_IRQHandler                         0x0000050f   Thumb Code     0  startup_mk66f18.o(.text)
    DMA14_IRQHandler                         0x0000050f   Thumb Code     0  startup_mk66f18.o(.text)
    DMA15_IRQHandler                         0x0000050f   Thumb Code     0  startup_mk66f18.o(.text)
    DMA1_IRQHandler                          0x0000050f   Thumb Code     0  startup_mk66f18.o(.text)
    DMA2_IRQHandler                          0x0000050f   Thumb Code     0  startup_mk66f18.o(.text)
    DMA3_IRQHandler                          0x0000050f   Thumb Code     0  startup_mk66f18.o(.text)
    DMA4_IRQHandler                          0x0000050f   Thumb Code     0  startup_mk66f18.o(.text)
    DMA5_IRQHandler                          0x0000050f   Thumb Code     0  startup_mk66f18.o(.text)
    DMA6_IRQHandler                          0x0000050f   Thumb Code     0  startup_mk66f18.o(.text)
    DMA7_IRQHandler                          0x0000050f   Thumb Code     0  startup_mk66f18.o(.text)
    DMA8_IRQHandler                          0x0000050f   Thumb Code     0  startup_mk66f18.o(.text)
    DMA9_IRQHandler                          0x0000050f   Thumb Code     0  startup_mk66f18.o(.text)
    DMA_Error_IRQHandler                     0x0000050f   Thumb Code     0  startup_mk66f18.o(.text)
    DefaultISR                               0x0000050f   Thumb Code     0  startup_mk66f18.o(.text)
    ENET_1588_Timer_IRQHandler               0x0000050f   Thumb Code     0  startup_mk66f18.o(.text)
    ENET_Error_IRQHandler                    0x0000050f   Thumb Code     0  startup_mk66f18.o(.text)
    ENET_Receive_IRQHandler                  0x0000050f   Thumb Code     0  startup_mk66f18.o(.text)
    ENET_Transmit_IRQHandler                 0x0000050f   Thumb Code     0  startup_mk66f18.o(.text)
    FTFE_IRQHandler                          0x0000050f   Thumb Code     0  startup_mk66f18.o(.text)
    FTM0_IRQHandler                          0x0000050f   Thumb Code     0  startup_mk66f18.o(.text)
    FTM1_IRQHandler                          0x0000050f   Thumb Code     0  startup_mk66f18.o(.text)
    FTM2_IRQHandler                          0x0000050f   Thumb Code     0  startup_mk66f18.o(.text)
    FTM3_IRQHandler                          0x0000050f   Thumb Code     0  startup_mk66f18.o(.text)
    I2C0_IRQHandler                          0x0000050f   Thumb Code     0  startup_mk66f18.o(.text)
    I2C1_IRQHandler                          0x0000050f   Thumb Code     0  startup_mk66f18.o(.text)
    I2C2_IRQHandler                          0x0000050f   Thumb Code     0  startup_mk66f18.o(.text)
    I2C3_IRQHandler                          0x0000050f   Thumb Code     0  startup_mk66f18.o(.text)
    I2S0_Rx_IRQHandler                       0x0000050f   Thumb Code     0  startup_mk66f18.o(.text)
    I2S0_Tx_IRQHandler                       0x0000050f   Thumb Code     0  startup_mk66f18.o(.text)
    LLWU_IRQHandler                          0x0000050f   Thumb Code     0  startup_mk66f18.o(.text)
    LPTMR0_IRQHandler                        0x0000050f   Thumb Code     0  startup_mk66f18.o(.text)
    LPUART0_IRQHandler                       0x0000050f   Thumb Code     0  startup_mk66f18.o(.text)
    LVD_LVW_IRQHandler                       0x0000050f   Thumb Code     0  startup_mk66f18.o(.text)
    MCG_IRQHandler                           0x0000050f   Thumb Code     0  startup_mk66f18.o(.text)
    MCM_IRQHandler                           0x0000050f   Thumb Code     0  startup_mk66f18.o(.text)
    PDB0_IRQHandler                          0x0000050f   Thumb Code     0  startup_mk66f18.o(.text)
    PIT2_IRQHandler                          0x0000050f   Thumb Code     0  startup_mk66f18.o(.text)
    PIT3_IRQHandler                          0x0000050f   Thumb Code     0  startup_mk66f18.o(.text)
    PORTB_IRQHandler                         0x0000050f   Thumb Code     0  startup_mk66f18.o(.text)
    PORTD_IRQHandler                         0x0000050f   Thumb Code     0  startup_mk66f18.o(.text)
    PORTE_IRQHandler                         0x0000050f   Thumb Code     0  startup_mk66f18.o(.text)
    RNG_IRQHandler                           0x0000050f   Thumb Code     0  startup_mk66f18.o(.text)
    RTC_IRQHandler                           0x0000050f   Thumb Code     0  startup_mk66f18.o(.text)
    RTC_Seconds_IRQHandler                   0x0000050f   Thumb Code     0  startup_mk66f18.o(.text)
    Read_Collision_IRQHandler                0x0000050f   Thumb Code     0  startup_mk66f18.o(.text)
    Reserved46_IRQHandler                    0x0000050f   Thumb Code     0  startup_mk66f18.o(.text)
    Reserved71_IRQHandler                    0x0000050f   Thumb Code     0  startup_mk66f18.o(.text)
    Reserved84_IRQHandler                    0x0000050f   Thumb Code     0  startup_mk66f18.o(.text)
    Reserved85_IRQHandler                    0x0000050f   Thumb Code     0  startup_mk66f18.o(.text)
    SDHC_IRQHandler                          0x0000050f   Thumb Code     0  startup_mk66f18.o(.text)
    SPI0_IRQHandler                          0x0000050f   Thumb Code     0  startup_mk66f18.o(.text)
    SPI1_IRQHandler                          0x0000050f   Thumb Code     0  startup_mk66f18.o(.text)
    SPI2_IRQHandler                          0x0000050f   Thumb Code     0  startup_mk66f18.o(.text)
    SWI_IRQHandler                           0x0000050f   Thumb Code     0  startup_mk66f18.o(.text)
    TPM1_IRQHandler                          0x0000050f   Thumb Code     0  startup_mk66f18.o(.text)
    TPM2_IRQHandler                          0x0000050f   Thumb Code     0  startup_mk66f18.o(.text)
    TSI0_IRQHandler                          0x0000050f   Thumb Code     0  startup_mk66f18.o(.text)
    UART0_ERR_IRQHandler                     0x0000050f   Thumb Code     0  startup_mk66f18.o(.text)
    UART0_RX_TX_IRQHandler                   0x0000050f   Thumb Code     0  startup_mk66f18.o(.text)
    UART1_ERR_IRQHandler                     0x0000050f   Thumb Code     0  startup_mk66f18.o(.text)
    UART1_RX_TX_IRQHandler                   0x0000050f   Thumb Code     0  startup_mk66f18.o(.text)
    UART2_ERR_IRQHandler                     0x0000050f   Thumb Code     0  startup_mk66f18.o(.text)
    UART2_RX_TX_IRQHandler                   0x0000050f   Thumb Code     0  startup_mk66f18.o(.text)
    UART3_ERR_IRQHandler                     0x0000050f   Thumb Code     0  startup_mk66f18.o(.text)
    UART3_RX_TX_IRQHandler                   0x0000050f   Thumb Code     0  startup_mk66f18.o(.text)
    UART4_ERR_IRQHandler                     0x0000050f   Thumb Code     0  startup_mk66f18.o(.text)
    USB0_IRQHandler                          0x0000050f   Thumb Code     0  startup_mk66f18.o(.text)
    USBDCD_IRQHandler                        0x0000050f   Thumb Code     0  startup_mk66f18.o(.text)
    USBHSDCD_IRQHandler                      0x0000050f   Thumb Code     0  startup_mk66f18.o(.text)
    USBHS_IRQHandler                         0x0000050f   Thumb Code     0  startup_mk66f18.o(.text)
    WDOG_EWM_IRQHandler                      0x0000050f   Thumb Code     0  startup_mk66f18.o(.text)
    __user_initial_stackheap                 0x00000511   Thumb Code     0  startup_mk66f18.o(.text)
    __aeabi_ldivmod                          0x00000531   Thumb Code     0  llsdiv.o(.text)
    _ll_sdiv                                 0x00000531   Thumb Code    72  llsdiv.o(.text)
    __use_two_region_memory                  0x00000579   Thumb Code     2  heapauxi.o(.text)
    __rt_heap_escrow                         0x0000057b   Thumb Code     2  heapauxi.o(.text)
    __rt_heap_expand                         0x0000057d   Thumb Code     2  heapauxi.o(.text)
    __aeabi_uldivmod                         0x0000057f   Thumb Code     0  lludivv7m.o(.text)
    _ll_udiv                                 0x0000057f   Thumb Code   238  lludivv7m.o(.text)
    __read_errno                             0x0000066d   Thumb Code    10  _rserrno.o(.text)
    __set_errno                              0x00000677   Thumb Code    12  _rserrno.o(.text)
    __user_libspace                          0x00000685   Thumb Code     8  libspace.o(.text)
    __user_perproc_libspace                  0x00000685   Thumb Code     0  libspace.o(.text)
    __user_perthread_libspace                0x00000685   Thumb Code     0  libspace.o(.text)
    __aeabi_errno_addr                       0x0000068d   Thumb Code     8  rt_errno_addr_intlibspace.o(.text)
    __errno$intlibspace                      0x0000068d   Thumb Code     0  rt_errno_addr_intlibspace.o(.text)
    __rt_errno_addr$intlibspace              0x0000068d   Thumb Code     0  rt_errno_addr_intlibspace.o(.text)
    __I$use$semihosting                      0x00000695   Thumb Code     0  use_no_semi.o(.text)
    __use_no_semihosting_swi                 0x00000695   Thumb Code     2  use_no_semi.o(.text)
    __semihosting_library_function           0x00000697   Thumb Code     0  indicate_semi.o(.text)
    __user_setup_stackheap                   0x00000697   Thumb Code    74  sys_stackheap_outer.o(.text)
    exit                                     0x000006e1   Thumb Code    18  exit.o(.text)
    _sys_exit                                0x000006f5   Thumb Code     8  sys_exit.o(.text)
    Char_change                              0x00000701   Thumb Code   316  oled.o(i.Char_change)
    Disable_Wdog                             0x0000083d   Thumb Code    22  system_mk66.o(i.Disable_Wdog)
    ELE_LeftCircle_Detect                    0x00000859   Thumb Code   850  ele.o(i.ELE_LeftCircle_Detect)
    ELE_LeftCircle_Detect_big                0x00000c25   Thumb Code   814  ele.o(i.ELE_LeftCircle_Detect_big)
    ELE_RightCircle_Detect                   0x00000fc9   Thumb Code   896  ele.o(i.ELE_RightCircle_Detect)
    ELE_RightCircle_Detect_big               0x000013cd   Thumb Code   828  ele.o(i.ELE_RightCircle_Detect_big)
    ELE_Run                                  0x00001785   Thumb Code   920  ele.o(i.ELE_Run)
    ELE_Run_P                                0x00001b5d   Thumb Code   554  power.o(i.ELE_Run_P)
    FTM_port_mux                             0x00001d91   Thumb Code   398  mk60_ftm.o(i.FTM_port_mux)
    Math_change                              0x00001f25   Thumb Code   796  oled.o(i.Math_change)
    NMI_Handler                              0x0000226d   Thumb Code     2  system_mk66.o(i.NMI_Handler)
    OLED_DLY_ms                              0x000022ad   Thumb Code    28  oled.o(i.OLED_DLY_ms)
    OLED_Fill                                0x000022c9   Thumb Code    58  oled.o(i.OLED_Fill)
    OLED_Init                                0x00002303   Thumb Code   288  oled.o(i.OLED_Init)
    OLED_P6x8Str                             0x00002425   Thumb Code    96  oled.o(i.OLED_P6x8Str)
    OLED_Set_Pos                             0x00002489   Thumb Code    40  oled.o(i.OLED_Set_Pos)
    OLED_WrCmd                               0x000024b1   Thumb Code    80  oled.o(i.OLED_WrCmd)
    OLED_WrDat                               0x00002501   Thumb Code    80  oled.o(i.OLED_WrDat)
    PD_Left                                  0x00002551   Thumb Code   292  pd_control.o(i.PD_Left)
    PD_Right                                 0x0000269d   Thumb Code   292  pd_control.o(i.PD_Right)
    PD_control                               0x000027e9   Thumb Code   158  pd_control.o(i.PD_control)
    PIT0_IRQHandler                          0x0000289d   Thumb Code   304  isr.o(i.PIT0_IRQHandler)
    PIT1_IRQHandler                          0x00002a0d   Thumb Code   110  isr.o(i.PIT1_IRQHandler)
    PORTA_IRQHandler                         0x00002ab1   Thumb Code    10  isr.o(i.PORTA_IRQHandler)
    PORTC_IRQHandler                         0x00002ac1   Thumb Code    10  isr.o(i.PORTC_IRQHandler)
    Peripherals_Init                         0x00002ad1   Thumb Code   702  peripheral.o(i.Peripherals_Init)
    SYSTEM_CLK                               0x00002dc9   Thumb Code   170  system_mk66.o(i.SYSTEM_CLK)
    Send_ANO_Ele2                            0x00002e81   Thumb Code   344  bluetooth.o(i.Send_ANO_Ele2)
    Send_Data                                0x00002fdd   Thumb Code    62  bluetooth.o(i.Send_Data)
    Start                                    0x00003039   Thumb Code    34  system_mk66.o(i.Start)
    UART4_RX_TX_IRQHandler                   0x00003061   Thumb Code    22  isr.o(i.UART4_RX_TX_IRQHandler)
    __ARM_fpclassify                         0x0000307d   Thumb Code    48  fpclassify.o(i.__ARM_fpclassify)
    __hardfp_pow                             0x000030b1   Thumb Code  3072  pow.o(i.__hardfp_pow)
    __kernel_poly                            0x00003d01   Thumb Code   248  poly.o(i.__kernel_poly)
    __mathlib_dbl_divzero                    0x00003df9   Thumb Code    28  dunder.o(i.__mathlib_dbl_divzero)
    __mathlib_dbl_infnan2                    0x00003e29   Thumb Code    20  dunder.o(i.__mathlib_dbl_infnan2)
    __mathlib_dbl_invalid                    0x00003e41   Thumb Code    24  dunder.o(i.__mathlib_dbl_invalid)
    __mathlib_dbl_overflow                   0x00003e61   Thumb Code    24  dunder.o(i.__mathlib_dbl_overflow)
    __mathlib_dbl_underflow                  0x00003e81   Thumb Code    24  dunder.o(i.__mathlib_dbl_underflow)
    adc_init                                 0x00003ea1   Thumb Code   426  mk60_adc.o(i.adc_init)
    adc_once                                 0x00004051   Thumb Code    70  mk60_adc.o(i.adc_once)
    adc_start                                0x0000409d   Thumb Code    52  mk60_adc.o(i.adc_start)
    block_detect                             0x000040d5   Thumb Code   162  path.o(i.block_detect)
    circe_detect                             0x0000419d   Thumb Code    98  path.o(i.circe_detect)
    div_set                                  0x0000420d   Thumb Code    68  system_mk66.o(i.div_set)
    fabs                                     0x00004259   Thumb Code    24  fabs.o(i.fabs)
    ftm_pwm_duty                             0x00004271   Thumb Code   120  mk60_ftm.o(i.ftm_pwm_duty)
    ftm_pwm_init                             0x000042f1   Thumb Code   296  mk60_ftm.o(i.ftm_pwm_init)
    fz_detect                                0x00004425   Thumb Code   146  ele.o(i.fz_detect)
    get_clk                                  0x000044cd   Thumb Code    94  common.o(i.get_clk)
    get_distance_tof                         0x00004541   Thumb Code   346  bluetooth.o(i.get_distance_tof)
    gpio_get                                 0x000046c1   Thumb Code    38  mk60_gpio.o(i.gpio_get)
    gpio_init                                0x000046ed   Thumb Code   200  mk60_gpio.o(i.gpio_init)
    gpio_set                                 0x000047c1   Thumb Code    66  mk60_gpio.o(i.gpio_set)
    gpio_turn                                0x00004809   Thumb Code    34  mk60_gpio.o(i.gpio_turn)
    if_block                                 0x00004831   Thumb Code   580  path.o(i.if_block)
    in_straight_detect                       0x00004ab5   Thumb Code   100  path.o(i.in_straight_detect)
    main                                     0x00004b35   Thumb Code   500  main.o(i.main)
    pit_init                                 0x00004d95   Thumb Code    78  mk60_pit.o(i.pit_init)
    port_init                                0x00004df1   Thumb Code   102  mk60_port.o(i.port_init)
    port_init_NoAlt                          0x00004e65   Thumb Code    76  mk60_port.o(i.port_init_NoAlt)
    power_control                            0x00004eb9   Thumb Code  1810  power.o(i.power_control)
    pwm_control                              0x00005621   Thumb Code   104  pd_control.o(i.pwm_control)
    sqrt                                     0x00005699   Thumb Code   110  sqrt.o(i.sqrt)
    uart_getchar                             0x00005709   Thumb Code    30  mk60_uart.o(i.uart_getchar)
    uart_init                                0x0000572d   Thumb Code   452  mk60_uart.o(i.uart_init)
    uart_putbuff                             0x00005905   Thumb Code    30  mk60_uart.o(i.uart_putbuff)
    uart_putchar                             0x00005925   Thumb Code    28  mk60_uart.o(i.uart_putchar)
    __aeabi_dneg                             0x00005945   Thumb Code     0  basic.o(x$fpl$basic)
    _dneg                                    0x00005945   Thumb Code     6  basic.o(x$fpl$basic)
    __aeabi_fneg                             0x0000594b   Thumb Code     0  basic.o(x$fpl$basic)
    _fneg                                    0x0000594b   Thumb Code     6  basic.o(x$fpl$basic)
    _dabs                                    0x00005951   Thumb Code     6  basic.o(x$fpl$basic)
    _fabs                                    0x00005957   Thumb Code     6  basic.o(x$fpl$basic)
    __aeabi_d2f                              0x0000595d   Thumb Code     0  d2f.o(x$fpl$d2f)
    _d2f                                     0x0000595d   Thumb Code    98  d2f.o(x$fpl$d2f)
    __aeabi_dadd                             0x000059c1   Thumb Code     0  daddsub_clz.o(x$fpl$dadd)
    _dadd                                    0x000059c1   Thumb Code   332  daddsub_clz.o(x$fpl$dadd)
    __fpl_dcheck_NaN1                        0x00005b11   Thumb Code    10  dcheck1.o(x$fpl$dcheck1)
    __fpl_dcmp_Inf                           0x00005b21   Thumb Code    24  dcmpi.o(x$fpl$dcmpinf)
    __aeabi_ddiv                             0x00005b39   Thumb Code     0  ddiv.o(x$fpl$ddiv)
    _ddiv                                    0x00005b39   Thumb Code   552  ddiv.o(x$fpl$ddiv)
    __aeabi_d2iz                             0x00005de9   Thumb Code     0  dfix.o(x$fpl$dfix)
    _dfix                                    0x00005de9   Thumb Code    94  dfix.o(x$fpl$dfix)
    __aeabi_i2d                              0x00005e47   Thumb Code     0  dflt_clz.o(x$fpl$dflt)
    _dflt                                    0x00005e47   Thumb Code    46  dflt_clz.o(x$fpl$dflt)
    __aeabi_ui2d                             0x00005e75   Thumb Code     0  dflt_clz.o(x$fpl$dfltu)
    _dfltu                                   0x00005e75   Thumb Code    38  dflt_clz.o(x$fpl$dfltu)
    __aeabi_cdcmple                          0x00005e9d   Thumb Code     0  dleqf.o(x$fpl$dleqf)
    _dcmple                                  0x00005e9d   Thumb Code   120  dleqf.o(x$fpl$dleqf)
    __fpl_dcmple_InfNaN                      0x00005eff   Thumb Code     0  dleqf.o(x$fpl$dleqf)
    __aeabi_dmul                             0x00005f15   Thumb Code     0  dmul.o(x$fpl$dmul)
    _dmul                                    0x00005f15   Thumb Code   332  dmul.o(x$fpl$dmul)
    __fpl_dnaninf                            0x00006069   Thumb Code   156  dnaninf.o(x$fpl$dnaninf)
    __fpl_dretinf                            0x00006105   Thumb Code    12  dretinf.o(x$fpl$dretinf)
    __aeabi_cdrcmple                         0x00006111   Thumb Code     0  drleqf.o(x$fpl$drleqf)
    _drcmple                                 0x00006111   Thumb Code   108  drleqf.o(x$fpl$drleqf)
    __aeabi_drsub                            0x0000617d   Thumb Code     0  daddsub_clz.o(x$fpl$drsb)
    _drsb                                    0x0000617d   Thumb Code    22  daddsub_clz.o(x$fpl$drsb)
    _dsqrt                                   0x00006195   Thumb Code   404  dsqrt_umaal.o(x$fpl$dsqrt)
    __aeabi_dsub                             0x0000632d   Thumb Code     0  daddsub_clz.o(x$fpl$dsub)
    _dsub                                    0x0000632d   Thumb Code   464  daddsub_clz.o(x$fpl$dsub)
    __aeabi_f2d                              0x00006501   Thumb Code     0  f2d.o(x$fpl$f2d)
    _f2d                                     0x00006501   Thumb Code    86  f2d.o(x$fpl$f2d)
    __fpl_fnaninf                            0x00006557   Thumb Code   140  fnaninf.o(x$fpl$fnaninf)
    _fp_init                                 0x000065e3   Thumb Code    10  fpinit.o(x$fpl$fpinit)
    __fplib_config_fpu_vfp                   0x000065eb   Thumb Code     0  fpinit.o(x$fpl$fpinit)
    __fplib_config_pureend_doubles           0x000065eb   Thumb Code     0  fpinit.o(x$fpl$fpinit)
    __fpl_fretinf                            0x000065ed   Thumb Code    10  fretinf.o(x$fpl$fretinf)
    __fpl_return_NaN                         0x000065f7   Thumb Code   100  retnan.o(x$fpl$retnan)
    __ARM_scalbn                             0x0000665b   Thumb Code    92  scalbn.o(x$fpl$scalbn)
    __fpl_cmpreturn                          0x000066b7   Thumb Code    48  trapv.o(x$fpl$trapveneer)
    __I$use$fp                               0x000066e6   Number         0  usenofp.o(x$fpl$usenofp)
    ADCX                                     0x000066f8   Data           8  mk60_adc.o(.constdata)
    F6x8                                     0x00006790   Data         552  oled.o(.constdata)
    F8X16                                    0x000069b8   Data        1520  oled.o(.constdata)
    __mathlib_zero                           0x00007030   Data           8  qnan.o(.constdata)
    Region$$Table$$Base                      0x00007038   Number         0  anon$$obj.o(Region$$Table)
    Region$$Table$$Limit                     0x00007058   Number         0  anon$$obj.o(Region$$Table)
    time_1ms                                 0x20000000   Data           4  isr.o(.data)
    time_5ms                                 0x20000004   Data           1  isr.o(.data)
    coder_speed1                             0x20000006   Data           2  isr.o(.data)
    coder_speed2                             0x20000008   Data           2  isr.o(.data)
    start_cnt                                0x2000000a   Data           2  isr.o(.data)
    Normalize_cnt                            0x2000000c   Data           2  isr.o(.data)
    start_set                                0x20000010   Data           1  main.o(.data)
    motor_init_once                          0x20000011   Data           1  main.o(.data)
    TOF_init_once                            0x20000012   Data           1  main.o(.data)
    ADC_MAX_cnt                              0x20000013   Data           1  main.o(.data)
    point_detect_flag                        0x20000014   Data           1  main.o(.data)
    cnt_test                                 0x20000018   Data           4  main.o(.data)
    FILTER_C                                 0x2000001c   Data           4  power.o(.data)
    Max_Voltage                              0x20000020   Data           4  power.o(.data)
    current                                  0x20000024   Data           4  power.o(.data)
    voltage                                  0x20000028   Data           4  power.o(.data)
    power                                    0x2000002c   Data           4  power.o(.data)
    vol_s                                    0x20000030   Data           4  power.o(.data)
    last_current                             0x20000034   Data           4  power.o(.data)
    last_voltage                             0x20000038   Data           4  power.o(.data)
    last_vol_s                               0x2000003c   Data           4  power.o(.data)
    stop_charge_cnt                          0x20000040   Data           2  power.o(.data)
    charge_soft_start                        0x20000042   Data           2  power.o(.data)
    vol_inc                                  0x20000044   Data           4  power.o(.data)
    PID_P                                    0x20000048   Data           4  power.o(.data)
    PID_I                                    0x2000004c   Data           4  power.o(.data)
    set_power                                0x20000050   Data           4  power.o(.data)
    error                                    0x20000054   Data           4  power.o(.data)
    sum                                      0x20000058   Data           4  power.o(.data)
    temp_power                               0x2000005c   Data           4  power.o(.data)
    sum_stop                                 0x20000060   Data           4  power.o(.data)
    Power_Out                                0x20000064   Data           2  power.o(.data)
    flag                                     0x20000066   Data           1  power.o(.data)
    stop_charge                              0x20000067   Data           1  power.o(.data)
    charge_flag                              0x20000068   Data           1  power.o(.data)
    stop_charge_flag                         0x20000069   Data           1  power.o(.data)
    peak_vol                                 0x2000006a   Data           2  power.o(.data)
    valley_vol                               0x2000006c   Data           2  power.o(.data)
    vol_stop1                                0x2000006e   Data           1  power.o(.data)
    vol_stop                                 0x2000006f   Data           1  power.o(.data)
    tingzhen_temp                            0x20000070   Data           1  power.o(.data)
    test_flag                                0x20000074   Data           1  power.o(.data)
    power_temp                               0x20000078   Data           4  power.o(.data)
    last_adc_vol                             0x2000007c   Data           2  power.o(.data)
    right_adc_flag                           0x2000007e   Data           1  power.o(.data)
    Ultrasonic_flag                          0x20000080   Data           1  bluetooth.o(.data)
    Ultrasonic_receive_num                   0x20000081   Data           1  bluetooth.o(.data)
    Ultrasonic_receive                       0x20000082   Data           2  bluetooth.o(.data)
    Ultrasonic_distance                      0x20000084   Data           4  bluetooth.o(.data)
    correcr_data_flag                        0x20000088   Data           4  bluetooth.o(.data)
    D_Ultrasonic_distance                    0x2000008c   Data           2  bluetooth.o(.data)
    Ultrasonic_distance_last                 0x20000090   Data           4  bluetooth.o(.data)
    tof_count                                0x20000094   Data           4  bluetooth.o(.data)
    tof_sum                                  0x20000098   Data           1  bluetooth.o(.data)
    tof_distance                             0x2000009a   Data           2  bluetooth.o(.data)
    tof_distance_last                        0x2000009c   Data           2  bluetooth.o(.data)
    D_tof_distance                           0x2000009e   Data           2  bluetooth.o(.data)
    tof_num                                  0x200000a0   Data           1  bluetooth.o(.data)
    correct_dis_flag                         0x200000a2   Data           2  bluetooth.o(.data)
    ADC_Buff                                 0x200000a4   Data           6  ele.o(.data)
    ADC_left_1                               0x200000aa   Data           2  ele.o(.data)
    ADC_right_1                              0x200000ac   Data           2  ele.o(.data)
    adc_show                                 0x200000ae   Data           6  ele.o(.data)
    adc_mid                                  0x200000b4   Data           6  ele.o(.data)
    symbol_z                                 0x200000ba   Data           1  ele.o(.data)
    symbol_f                                 0x200000bb   Data           1  ele.o(.data)
    fuhao_path                               0x200000bc   Data           4  ele.o(.data)
    AD_Max                                   0x200000c0   Data           4  ele.o(.data)
    ADC_Temp                                 0x200000c4   Data           4  ele.o(.data)
    dif_sum                                  0x200000c8   Data           4  ele.o(.data)
    Normalize_Auto_once                      0x200000cc   Data           1  ele.o(.data)
    ELE_Circle_flag                          0x200000cd   Data           1  ele.o(.data)
    ELE_Data_Temp                            0x200000ce   Data           4  ele.o(.data)
    ELE_Left_Gain1                           0x200000d4   Data           4  ele.o(.data)
    ELE_Right_Gain1                          0x200000d8   Data           4  ele.o(.data)
    ELE_Circle_LR                            0x200000dc   Data           3  ele.o(.data)
    dif_sum_last                             0x200000e0   Data           4  ele.o(.data)
    dif_sum_last2                            0x200000e4   Data           4  ele.o(.data)
    dif_sum_last3                            0x200000e8   Data           4  ele.o(.data)
    dif_sum_last4                            0x200000ec   Data           4  ele.o(.data)
    Circle_max                               0x200000f0   Data           4  ele.o(.data)
    ELE_Error                                0x200000f4   Data           4  ele.o(.data)
    in_cnt                                   0x200000f8   Data           2  ele.o(.data)
    out_cnt                                  0x200000fa   Data           2  ele.o(.data)
    out_dif_ok                               0x200000fc   Data           2  ele.o(.data)
    in_slope_cnt                             0x200000fe   Data           2  ele.o(.data)
    delay_cnt                                0x20000100   Data           1  ele.o(.data)
    straight                                 0x20000101   Data           1  ele.o(.data)
    huanflag                                 0x20000102   Data           2  ele.o(.data)
    P_Temp                                   0x20000104   Data           4  pd_control.o(.data)
    D_Temp                                   0x20000108   Data           4  pd_control.o(.data)
    err_b                                    0x2000010c   Data           4  pd_control.o(.data)
    err_l                                    0x20000110   Data           4  pd_control.o(.data)
    L_Pwm                                    0x20000114   Data           4  pd_control.o(.data)
    R_Pwm                                    0x20000118   Data           4  pd_control.o(.data)
    L_Pwm_last                               0x2000011c   Data           4  pd_control.o(.data)
    L_Pwm_last2                              0x20000120   Data           4  pd_control.o(.data)
    R_Pwm_last                               0x20000124   Data           4  pd_control.o(.data)
    R_Pwm_last2                              0x20000128   Data           4  pd_control.o(.data)
    L_D                                      0x2000012c   Data           4  pd_control.o(.data)
    R_D                                      0x20000130   Data           4  pd_control.o(.data)
    Left_Defult                              0x20000134   Data           2  pd_control.o(.data)
    Right_Defult                             0x20000136   Data           2  pd_control.o(.data)
    Limit                                    0x20000138   Data           2  pd_control.o(.data)
    circle_direction                         0x2000013c   Data           3  path.o(.data)
    bighuan                                  0x2000013f   Data           1  path.o(.data)
    huan_cnt                                 0x20000140   Data           1  path.o(.data)
    dis_temp_little                          0x20000141   Data           1  path.o(.data)
    block_set                                0x20000142   Data           1  path.o(.data)
    block_set_cnt                            0x20000144   Data           2  path.o(.data)
    block_flag                               0x20000146   Data           1  path.o(.data)
    block_straight                           0x20000147   Data           1  path.o(.data)
    block_flag_cnt                           0x20000148   Data           1  path.o(.data)
    block_time_cnt                           0x2000014a   Data           2  path.o(.data)
    block_straight_cnt                       0x2000014c   Data           1  path.o(.data)
    fuhao_dis_temp                           0x20000150   Data           4  path.o(.data)
    block_out_cnt                            0x20000154   Data           2  path.o(.data)
    block_cnt                                0x20000156   Data           1  path.o(.data)
    block_podao_cnt                          0x20000158   Data           2  path.o(.data)
    podao_cnt                                0x2000015a   Data           1  path.o(.data)
    podao_set                                0x2000015b   Data           1  path.o(.data)
    podao_delay_cnt                          0x2000015c   Data           2  path.o(.data)
    in_straight_cnt                          0x2000015e   Data           2  path.o(.data)
    in_straight_flag                         0x20000160   Data           1  path.o(.data)
    start_point                              0x20000161   Data           1  path.o(.data)
    start_not_detect                         0x20000162   Data           2  path.o(.data)
    data                                     0x20000164   Data           8  path.o(.data)
    distance_num                             0x2000016c   Data           1  path.o(.data)
    dis                                      0x2000016d   Data           7  path.o(.data)
    tof_distance_num                         0x20000174   Data           1  path.o(.data)
    tof_dis                                  0x20000175   Data           7  path.o(.data)
    mcgout_clk_mhz                           0x2000017c   Data           4  common.o(.data)
    core_clk_mhz                             0x20000180   Data           4  common.o(.data)
    bus_clk_mhz                              0x20000184   Data           4  common.o(.data)
    uart                                     0x20000188   Data          20  mk60_uart.o(.data)
    ADC_Data_P                               0x2000019c   Data         360  power.o(.bss)
    ADC_Buff_P                               0x20000304   Data          12  power.o(.bss)
    data_to_send                             0x2000031c   Data          32  bluetooth.o(.bss)
    tof_receive                              0x2000033c   Data           9  bluetooth.o(.bss)
    ADC_Data                                 0x20000348   Data          21  ele.o(.bss)
    adc_change                               0x20000360   Data          24  ele.o(.bss)
    pid_left                                 0x20000378   Data          48  pd_control.o(.bss)
    pid_right                                0x200003a8   Data          48  pd_control.o(.bss)
    tof_data                                 0x200003d8   Data          16  path.o(.bss)
    period                                   0x200003e8   Data          12  mk60_ftm.o(.bss)
    digit_capacity                           0x200003f4   Data          20  oled.o(.bss)
    __libspace_start                         0x20000408   Data          96  libspace.o(.bss)
    __temporary_stack_top$libspace           0x20000468   Data           0  libspace.o(.bss)



==============================================================================

Memory Map of the image

  Image Entry point : 0x00000411

  Load Region LR_IROM1 (Base: 0x00000000, Size: 0x000071f4, Max: 0x00100000, ABSOLUTE, COMPRESSED[0x000070b4])

    Execution Region ER_IROM1 (Exec base: 0x00000000, Load base: 0x00000000, Size: 0x00007058, Max: 0x00100000, ABSOLUTE)

    Exec Addr    Load Addr    Size         Type   Attr      Idx    E Section Name        Object

    0x00000000   0x00000000   0x00000400   Data   RO            3    RESET               startup_mk66f18.o
    0x00000400   0x00000400   0x00000010   Code   RO            4    .ARM.__at_0x400     startup_mk66f18.o
    0x00000410   0x00000410   0x00000008   Code   RO         1691  * !!!main             c_w.l(__main.o)
    0x00000418   0x00000418   0x00000034   Code   RO         2023    !!!scatter          c_w.l(__scatter.o)
    0x0000044c   0x0000044c   0x0000005a   Code   RO         2021    !!dczerorl2         c_w.l(__dczerorl2.o)
    0x000004a6   0x000004a6   0x00000002   PAD
    0x000004a8   0x000004a8   0x0000001c   Code   RO         2025    !!handler_zi        c_w.l(__scatter_zi.o)
    0x000004c4   0x000004c4   0x00000002   Code   RO         1952    .ARM.Collect$$libinit$$00000000  c_w.l(libinit.o)
    0x000004c6   0x000004c6   0x00000004   Code   RO         1777    .ARM.Collect$$libinit$$00000001  c_w.l(libinit2.o)
    0x000004ca   0x000004ca   0x00000000   Code   RO         1780    .ARM.Collect$$libinit$$00000004  c_w.l(libinit2.o)
    0x000004ca   0x000004ca   0x00000000   Code   RO         1783    .ARM.Collect$$libinit$$0000000A  c_w.l(libinit2.o)
    0x000004ca   0x000004ca   0x00000000   Code   RO         1785    .ARM.Collect$$libinit$$0000000C  c_w.l(libinit2.o)
    0x000004ca   0x000004ca   0x00000000   Code   RO         1787    .ARM.Collect$$libinit$$0000000E  c_w.l(libinit2.o)
    0x000004ca   0x000004ca   0x00000000   Code   RO         1790    .ARM.Collect$$libinit$$00000011  c_w.l(libinit2.o)
    0x000004ca   0x000004ca   0x00000000   Code   RO         1792    .ARM.Collect$$libinit$$00000013  c_w.l(libinit2.o)
    0x000004ca   0x000004ca   0x00000000   Code   RO         1794    .ARM.Collect$$libinit$$00000015  c_w.l(libinit2.o)
    0x000004ca   0x000004ca   0x00000000   Code   RO         1796    .ARM.Collect$$libinit$$00000017  c_w.l(libinit2.o)
    0x000004ca   0x000004ca   0x00000000   Code   RO         1798    .ARM.Collect$$libinit$$00000019  c_w.l(libinit2.o)
    0x000004ca   0x000004ca   0x00000000   Code   RO         1800    .ARM.Collect$$libinit$$0000001B  c_w.l(libinit2.o)
    0x000004ca   0x000004ca   0x00000000   Code   RO         1802    .ARM.Collect$$libinit$$0000001D  c_w.l(libinit2.o)
    0x000004ca   0x000004ca   0x00000000   Code   RO         1804    .ARM.Collect$$libinit$$0000001F  c_w.l(libinit2.o)
    0x000004ca   0x000004ca   0x00000000   Code   RO         1806    .ARM.Collect$$libinit$$00000021  c_w.l(libinit2.o)
    0x000004ca   0x000004ca   0x00000000   Code   RO         1808    .ARM.Collect$$libinit$$00000023  c_w.l(libinit2.o)
    0x000004ca   0x000004ca   0x00000000   Code   RO         1810    .ARM.Collect$$libinit$$00000025  c_w.l(libinit2.o)
    0x000004ca   0x000004ca   0x00000000   Code   RO         1814    .ARM.Collect$$libinit$$0000002C  c_w.l(libinit2.o)
    0x000004ca   0x000004ca   0x00000000   Code   RO         1816    .ARM.Collect$$libinit$$0000002E  c_w.l(libinit2.o)
    0x000004ca   0x000004ca   0x00000000   Code   RO         1818    .ARM.Collect$$libinit$$00000030  c_w.l(libinit2.o)
    0x000004ca   0x000004ca   0x00000000   Code   RO         1820    .ARM.Collect$$libinit$$00000032  c_w.l(libinit2.o)
    0x000004ca   0x000004ca   0x00000002   Code   RO         1821    .ARM.Collect$$libinit$$00000033  c_w.l(libinit2.o)
    0x000004cc   0x000004cc   0x00000002   Code   RO         2018    .ARM.Collect$$libshutdown$$00000000  c_w.l(libshutdown.o)
    0x000004ce   0x000004ce   0x00000000   Code   RO         1972    .ARM.Collect$$libshutdown$$00000002  c_w.l(libshutdown2.o)
    0x000004ce   0x000004ce   0x00000000   Code   RO         1974    .ARM.Collect$$libshutdown$$00000004  c_w.l(libshutdown2.o)
    0x000004ce   0x000004ce   0x00000000   Code   RO         1977    .ARM.Collect$$libshutdown$$00000007  c_w.l(libshutdown2.o)
    0x000004ce   0x000004ce   0x00000000   Code   RO         1980    .ARM.Collect$$libshutdown$$0000000A  c_w.l(libshutdown2.o)
    0x000004ce   0x000004ce   0x00000000   Code   RO         1982    .ARM.Collect$$libshutdown$$0000000C  c_w.l(libshutdown2.o)
    0x000004ce   0x000004ce   0x00000000   Code   RO         1985    .ARM.Collect$$libshutdown$$0000000F  c_w.l(libshutdown2.o)
    0x000004ce   0x000004ce   0x00000002   Code   RO         1986    .ARM.Collect$$libshutdown$$00000010  c_w.l(libshutdown2.o)
    0x000004d0   0x000004d0   0x00000000   Code   RO         1739    .ARM.Collect$$rtentry$$00000000  c_w.l(__rtentry.o)
    0x000004d0   0x000004d0   0x00000000   Code   RO         1880    .ARM.Collect$$rtentry$$00000002  c_w.l(__rtentry2.o)
    0x000004d0   0x000004d0   0x00000006   Code   RO         1892    .ARM.Collect$$rtentry$$00000004  c_w.l(__rtentry4.o)
    0x000004d6   0x000004d6   0x00000000   Code   RO         1882    .ARM.Collect$$rtentry$$00000009  c_w.l(__rtentry2.o)
    0x000004d6   0x000004d6   0x00000004   Code   RO         1883    .ARM.Collect$$rtentry$$0000000A  c_w.l(__rtentry2.o)
    0x000004da   0x000004da   0x00000000   Code   RO         1885    .ARM.Collect$$rtentry$$0000000C  c_w.l(__rtentry2.o)
    0x000004da   0x000004da   0x00000008   Code   RO         1886    .ARM.Collect$$rtentry$$0000000D  c_w.l(__rtentry2.o)
    0x000004e2   0x000004e2   0x00000002   Code   RO         1957    .ARM.Collect$$rtexit$$00000000  c_w.l(rtexit.o)
    0x000004e4   0x000004e4   0x00000000   Code   RO         1992    .ARM.Collect$$rtexit$$00000002  c_w.l(rtexit2.o)
    0x000004e4   0x000004e4   0x00000004   Code   RO         1993    .ARM.Collect$$rtexit$$00000003  c_w.l(rtexit2.o)
    0x000004e8   0x000004e8   0x00000006   Code   RO         1994    .ARM.Collect$$rtexit$$00000004  c_w.l(rtexit2.o)
    0x000004ee   0x000004ee   0x00000002   PAD
    0x000004f0   0x000004f0   0x00000040   Code   RO            5    .text               startup_mk66f18.o
    0x00000530   0x00000530   0x00000048   Code   RO         1685    .text               c_w.l(llsdiv.o)
    0x00000578   0x00000578   0x00000006   Code   RO         1689    .text               c_w.l(heapauxi.o)
    0x0000057e   0x0000057e   0x000000ee   Code   RO         1771    .text               c_w.l(lludivv7m.o)
    0x0000066c   0x0000066c   0x00000016   Code   RO         1773    .text               c_w.l(_rserrno.o)
    0x00000682   0x00000682   0x00000002   PAD
    0x00000684   0x00000684   0x00000008   Code   RO         1876    .text               c_w.l(libspace.o)
    0x0000068c   0x0000068c   0x00000008   Code   RO         1901    .text               c_w.l(rt_errno_addr_intlibspace.o)
    0x00000694   0x00000694   0x00000002   Code   RO         1926    .text               c_w.l(use_no_semi.o)
    0x00000696   0x00000696   0x00000000   Code   RO         1928    .text               c_w.l(indicate_semi.o)
    0x00000696   0x00000696   0x0000004a   Code   RO         1929    .text               c_w.l(sys_stackheap_outer.o)
    0x000006e0   0x000006e0   0x00000012   Code   RO         1937    .text               c_w.l(exit.o)
    0x000006f2   0x000006f2   0x00000002   PAD
    0x000006f4   0x000006f4   0x0000000c   Code   RO         1955    .text               c_w.l(sys_exit.o)
    0x00000700   0x00000700   0x0000013c   Code   RO         1124    i.Char_change       oled.o
    0x0000083c   0x0000083c   0x0000001c   Code   RO           15    i.Disable_Wdog      system_mk66.o
    0x00000858   0x00000858   0x000003cc   Code   RO          323    i.ELE_LeftCircle_Detect  ele.o
    0x00000c24   0x00000c24   0x000003a4   Code   RO          324    i.ELE_LeftCircle_Detect_big  ele.o
    0x00000fc8   0x00000fc8   0x00000404   Code   RO          325    i.ELE_RightCircle_Detect  ele.o
    0x000013cc   0x000013cc   0x000003b8   Code   RO          326    i.ELE_RightCircle_Detect_big  ele.o
    0x00001784   0x00001784   0x000003d8   Code   RO          327    i.ELE_Run           ele.o
    0x00001b5c   0x00001b5c   0x00000234   Code   RO          237    i.ELE_Run_P         power.o
    0x00001d90   0x00001d90   0x00000194   Code   RO          633    i.FTM_port_mux      mk60_ftm.o
    0x00001f24   0x00001f24   0x00000348   Code   RO         1125    i.Math_change       oled.o
    0x0000226c   0x0000226c   0x00000002   Code   RO           16    i.NMI_Handler       system_mk66.o
    0x0000226e   0x0000226e   0x00000016   Code   RO          479    i.NVIC_EnableIRQ    peripheral.o
    0x00002284   0x00002284   0x00000028   Code   RO          480    i.NVIC_SetPriority  peripheral.o
    0x000022ac   0x000022ac   0x0000001c   Code   RO         1127    i.OLED_DLY_ms       oled.o
    0x000022c8   0x000022c8   0x0000003a   Code   RO         1128    i.OLED_Fill         oled.o
    0x00002302   0x00002302   0x00000120   Code   RO         1130    i.OLED_Init         oled.o
    0x00002422   0x00002422   0x00000002   PAD
    0x00002424   0x00002424   0x00000064   Code   RO         1131    i.OLED_P6x8Str      oled.o
    0x00002488   0x00002488   0x00000028   Code   RO         1136    i.OLED_Set_Pos      oled.o
    0x000024b0   0x000024b0   0x00000050   Code   RO         1138    i.OLED_WrCmd        oled.o
    0x00002500   0x00002500   0x00000050   Code   RO         1139    i.OLED_WrDat        oled.o
    0x00002550   0x00002550   0x0000014c   Code   RO          387    i.PD_Left           pd_control.o
    0x0000269c   0x0000269c   0x0000014c   Code   RO          388    i.PD_Right          pd_control.o
    0x000027e8   0x000027e8   0x000000b4   Code   RO          389    i.PD_control        pd_control.o
    0x0000289c   0x0000289c   0x00000170   Code   RO          162    i.PIT0_IRQHandler   isr.o
    0x00002a0c   0x00002a0c   0x000000a4   Code   RO          163    i.PIT1_IRQHandler   isr.o
    0x00002ab0   0x00002ab0   0x00000010   Code   RO          164    i.PORTA_IRQHandler  isr.o
    0x00002ac0   0x00002ac0   0x00000010   Code   RO          165    i.PORTC_IRQHandler  isr.o
    0x00002ad0   0x00002ad0   0x000002f8   Code   RO          481    i.Peripherals_Init  peripheral.o
    0x00002dc8   0x00002dc8   0x000000b8   Code   RO           17    i.SYSTEM_CLK        system_mk66.o
    0x00002e80   0x00002e80   0x0000015c   Code   RO          273    i.Send_ANO_Ele2     bluetooth.o
    0x00002fdc   0x00002fdc   0x0000005c   Code   RO          274    i.Send_Data         bluetooth.o
    0x00003038   0x00003038   0x00000028   Code   RO           18    i.Start             system_mk66.o
    0x00003060   0x00003060   0x0000001c   Code   RO          166    i.UART4_RX_TX_IRQHandler  isr.o
    0x0000307c   0x0000307c   0x00000030   Code   RO         1857    i.__ARM_fpclassify  m_wm.l(fpclassify.o)
    0x000030ac   0x000030ac   0x00000004   PAD
    0x000030b0   0x000030b0   0x00000c50   Code   RO         1723    i.__hardfp_pow      m_wm.l(pow.o)
    0x00003d00   0x00003d00   0x000000f8   Code   RO         1859    i.__kernel_poly     m_wm.l(poly.o)
    0x00003df8   0x00003df8   0x00000030   Code   RO         1837    i.__mathlib_dbl_divzero  m_wm.l(dunder.o)
    0x00003e28   0x00003e28   0x00000014   Code   RO         1839    i.__mathlib_dbl_infnan2  m_wm.l(dunder.o)
    0x00003e3c   0x00003e3c   0x00000004   PAD
    0x00003e40   0x00003e40   0x00000020   Code   RO         1840    i.__mathlib_dbl_invalid  m_wm.l(dunder.o)
    0x00003e60   0x00003e60   0x00000020   Code   RO         1841    i.__mathlib_dbl_overflow  m_wm.l(dunder.o)
    0x00003e80   0x00003e80   0x00000020   Code   RO         1843    i.__mathlib_dbl_underflow  m_wm.l(dunder.o)
    0x00003ea0   0x00003ea0   0x000001b0   Code   RO          592    i.adc_init          mk60_adc.o
    0x00004050   0x00004050   0x0000004c   Code   RO          593    i.adc_once          mk60_adc.o
    0x0000409c   0x0000409c   0x00000038   Code   RO          594    i.adc_start         mk60_adc.o
    0x000040d4   0x000040d4   0x000000c8   Code   RO          433    i.block_detect      path.o
    0x0000419c   0x0000419c   0x00000070   Code   RO          434    i.circe_detect      path.o
    0x0000420c   0x0000420c   0x0000004c   Code   RO           19    i.div_set           system_mk66.o
    0x00004258   0x00004258   0x00000018   Code   RO         1853    i.fabs              m_wm.l(fabs.o)
    0x00004270   0x00004270   0x00000080   Code   RO          638    i.ftm_pwm_duty      mk60_ftm.o
    0x000042f0   0x000042f0   0x00000134   Code   RO          640    i.ftm_pwm_init      mk60_ftm.o
    0x00004424   0x00004424   0x000000a8   Code   RO          329    i.fz_detect         ele.o
    0x000044cc   0x000044cc   0x00000074   Code   RO          515    i.get_clk           common.o
    0x00004540   0x00004540   0x00000180   Code   RO          275    i.get_distance_tof  bluetooth.o
    0x000046c0   0x000046c0   0x0000002c   Code   RO          725    i.gpio_get          mk60_gpio.o
    0x000046ec   0x000046ec   0x000000d4   Code   RO          726    i.gpio_init         mk60_gpio.o
    0x000047c0   0x000047c0   0x00000048   Code   RO          727    i.gpio_set          mk60_gpio.o
    0x00004808   0x00004808   0x00000028   Code   RO          728    i.gpio_turn         mk60_gpio.o
    0x00004830   0x00004830   0x00000284   Code   RO          435    i.if_block          path.o
    0x00004ab4   0x00004ab4   0x00000080   Code   RO          436    i.in_straight_detect  path.o
    0x00004b34   0x00004b34   0x00000260   Code   RO          213    i.main              main.o
    0x00004d94   0x00004d94   0x0000005c   Code   RO          826    i.pit_init          mk60_pit.o
    0x00004df0   0x00004df0   0x00000074   Code   RO          870    i.port_init         mk60_port.o
    0x00004e64   0x00004e64   0x00000054   Code   RO          871    i.port_init_NoAlt   mk60_port.o
    0x00004eb8   0x00004eb8   0x00000768   Code   RO          238    i.power_control     power.o
    0x00005620   0x00005620   0x00000078   Code   RO          390    i.pwm_control       pd_control.o
    0x00005698   0x00005698   0x0000006e   Code   RO         1864    i.sqrt              m_wm.l(sqrt.o)
    0x00005706   0x00005706   0x00000002   PAD
    0x00005708   0x00005708   0x00000024   Code   RO         1026    i.uart_getchar      mk60_uart.o
    0x0000572c   0x0000572c   0x000001d8   Code   RO         1027    i.uart_init         mk60_uart.o
    0x00005904   0x00005904   0x0000001e   Code   RO         1028    i.uart_putbuff      mk60_uart.o
    0x00005922   0x00005922   0x00000002   PAD
    0x00005924   0x00005924   0x00000020   Code   RO         1029    i.uart_putchar      mk60_uart.o
    0x00005944   0x00005944   0x00000018   Code   RO         1822    x$fpl$basic         fz_wm.l(basic.o)
    0x0000595c   0x0000595c   0x00000062   Code   RO         1693    x$fpl$d2f           fz_wm.l(d2f.o)
    0x000059be   0x000059be   0x00000002   PAD
    0x000059c0   0x000059c0   0x00000150   Code   RO         1695    x$fpl$dadd          fz_wm.l(daddsub_clz.o)
    0x00005b10   0x00005b10   0x00000010   Code   RO         1920    x$fpl$dcheck1       fz_wm.l(dcheck1.o)
    0x00005b20   0x00005b20   0x00000018   Code   RO         1824    x$fpl$dcmpinf       fz_wm.l(dcmpi.o)
    0x00005b38   0x00005b38   0x000002b0   Code   RO         1702    x$fpl$ddiv          fz_wm.l(ddiv.o)
    0x00005de8   0x00005de8   0x0000005e   Code   RO         1705    x$fpl$dfix          fz_wm.l(dfix.o)
    0x00005e46   0x00005e46   0x0000002e   Code   RO         1710    x$fpl$dflt          fz_wm.l(dflt_clz.o)
    0x00005e74   0x00005e74   0x00000026   Code   RO         1709    x$fpl$dfltu         fz_wm.l(dflt_clz.o)
    0x00005e9a   0x00005e9a   0x00000002   PAD
    0x00005e9c   0x00005e9c   0x00000078   Code   RO         1715    x$fpl$dleqf         fz_wm.l(dleqf.o)
    0x00005f14   0x00005f14   0x00000154   Code   RO         1717    x$fpl$dmul          fz_wm.l(dmul.o)
    0x00006068   0x00006068   0x0000009c   Code   RO         1826    x$fpl$dnaninf       fz_wm.l(dnaninf.o)
    0x00006104   0x00006104   0x0000000c   Code   RO         1828    x$fpl$dretinf       fz_wm.l(dretinf.o)
    0x00006110   0x00006110   0x0000006c   Code   RO         1719    x$fpl$drleqf        fz_wm.l(drleqf.o)
    0x0000617c   0x0000617c   0x00000016   Code   RO         1696    x$fpl$drsb          fz_wm.l(daddsub_clz.o)
    0x00006192   0x00006192   0x00000002   PAD
    0x00006194   0x00006194   0x00000198   Code   RO         1922    x$fpl$dsqrt         fz_wm.l(dsqrt_umaal.o)
    0x0000632c   0x0000632c   0x000001d4   Code   RO         1697    x$fpl$dsub          fz_wm.l(daddsub_clz.o)
    0x00006500   0x00006500   0x00000056   Code   RO         1721    x$fpl$f2d           fz_wm.l(f2d.o)
    0x00006556   0x00006556   0x0000008c   Code   RO         1830    x$fpl$fnaninf       fz_wm.l(fnaninf.o)
    0x000065e2   0x000065e2   0x0000000a   Code   RO         1924    x$fpl$fpinit        fz_wm.l(fpinit.o)
    0x000065ec   0x000065ec   0x0000000a   Code   RO         1832    x$fpl$fretinf       fz_wm.l(fretinf.o)
    0x000065f6   0x000065f6   0x00000064   Code   RO         1953    x$fpl$retnan        fz_wm.l(retnan.o)
    0x0000665a   0x0000665a   0x0000005c   Code   RO         1834    x$fpl$scalbn        fz_wm.l(scalbn.o)
    0x000066b6   0x000066b6   0x00000030   Code   RO         1987    x$fpl$trapveneer    fz_wm.l(trapv.o)
    0x000066e6   0x000066e6   0x00000000   Code   RO         1836    x$fpl$usenofp       fz_wm.l(usenofp.o)
    0x000066e6   0x000066e6   0x00000002   PAD
    0x000066e8   0x000066e8   0x00000018   Data   RO          596    .constdata          mk60_adc.o
    0x00006700   0x00006700   0x00000010   Data   RO          645    .constdata          mk60_ftm.o
    0x00006710   0x00006710   0x00000038   Data   RO          729    .constdata          mk60_gpio.o
    0x00006748   0x00006748   0x00000038   Data   RO          872    .constdata          mk60_port.o
    0x00006780   0x00006780   0x00000828   Data   RO         1142    .constdata          oled.o
    0x00006fa8   0x00006fa8   0x00000088   Data   RO         1726    .constdata          m_wm.l(pow.o)
    0x00007030   0x00007030   0x00000008   Data   RO         1861    .constdata          m_wm.l(qnan.o)
    0x00007038   0x00007038   0x00000020   Data   RO         2019    Region$$Table       anon$$obj.o


    Execution Region RW_IRAM1 (Exec base: 0x20000000, Load base: 0x00007058, Size: 0x00000868, Max: 0x00030000, ABSOLUTE, COMPRESSED[0x0000005c])

    Exec Addr    Load Addr    Size         Type   Attr      Idx    E Section Name        Object

    0x20000000   COMPRESSED   0x0000000e   Data   RW          168    .data               isr.o
    0x2000000e   COMPRESSED   0x00000002   PAD
    0x20000010   COMPRESSED   0x0000000c   Data   RW          215    .data               main.o
    0x2000001c   COMPRESSED   0x00000063   Data   RW          241    .data               power.o
    0x2000007f   COMPRESSED   0x00000001   PAD
    0x20000080   COMPRESSED   0x00000024   Data   RW          278    .data               bluetooth.o
    0x200000a4   COMPRESSED   0x00000060   Data   RW          332    .data               ele.o
    0x20000104   COMPRESSED   0x00000036   Data   RW          393    .data               pd_control.o
    0x2000013a   COMPRESSED   0x00000002   PAD
    0x2000013c   COMPRESSED   0x00000040   Data   RW          439    .data               path.o
    0x2000017c   COMPRESSED   0x0000000c   Data   RW          517    .data               common.o
    0x20000188   COMPRESSED   0x00000014   Data   RW         1037    .data               mk60_uart.o
    0x2000019c        -       0x00000180   Zero   RW          239    .bss                power.o
    0x2000031c        -       0x00000029   Zero   RW          276    .bss                bluetooth.o
    0x20000345   COMPRESSED   0x00000003   PAD
    0x20000348        -       0x00000030   Zero   RW          330    .bss                ele.o
    0x20000378        -       0x00000060   Zero   RW          391    .bss                pd_control.o
    0x200003d8        -       0x00000010   Zero   RW          437    .bss                path.o
    0x200003e8        -       0x0000000c   Zero   RW          644    .bss                mk60_ftm.o
    0x200003f4        -       0x00000014   Zero   RW         1141    .bss                oled.o
    0x20000408        -       0x00000060   Zero   RW         1877    .bss                c_w.l(libspace.o)
    0x20000468        -       0x00000000   Zero   RW            2    HEAP                startup_mk66f18.o
    0x20000468        -       0x00000400   Zero   RW            1    STACK               startup_mk66f18.o


==============================================================================

Image component sizes


      Code (inc. data)   RO Data    RW Data    ZI Data      Debug   Object Name

       824         72          0         36         41       3609   bluetooth.o
       116         22          0         12          0       4101   common.o
      5036        582          0         96         48       7450   ele.o
       592        136          0         14          0       3233   isr.o
       608        108          0         12          0       1284   main.o
       564         80         24          0          0       2669   mk60_adc.o
       840         42         16          0         12       4298   mk60_ftm.o
       368         30         56          0          0       3078   mk60_gpio.o
        92         14          0          0          0        571   mk60_pit.o
       200         22         56          0          0       1838   mk60_port.o
       570         36          0         20          0       3272   mk60_uart.o
      1830        164       2088          0         20       7882   oled.o
      1084        144          0         64         16       4482   path.o
       964        118          0         54         96       3780   pd_control.o
       822         66          0          0          0      26686   peripheral.o
      2460        260          0         99        384       4114   power.o
        80         38       1024          0       1024       1112   startup_mk66f18.o
       330         34          0          0          0     733987   system_mk66.o

    ----------------------------------------------------------------------
     17384       1968       3296        412       1644     817446   Object Totals
         0          0         32          0          0          0   (incl. Generated)
         4          0          0          5          3          0   (incl. Padding)

    ----------------------------------------------------------------------

      Code (inc. data)   RO Data    RW Data    ZI Data      Debug   Library Member Name

        90          0          0          0          0          0   __dczerorl2.o
         8          0          0          0          0         68   __main.o
         0          0          0          0          0          0   __rtentry.o
        12          0          0          0          0          0   __rtentry2.o
         6          0          0          0          0          0   __rtentry4.o
        52          8          0          0          0          0   __scatter.o
        28          0          0          0          0          0   __scatter_zi.o
        22          0          0          0          0        100   _rserrno.o
        18          0          0          0          0         80   exit.o
         6          0          0          0          0        152   heapauxi.o
         0          0          0          0          0          0   indicate_semi.o
         2          0          0          0          0          0   libinit.o
         6          0          0          0          0          0   libinit2.o
         2          0          0          0          0          0   libshutdown.o
         2          0          0          0          0          0   libshutdown2.o
         8          4          0          0         96         68   libspace.o
        72          0          0          0          0         76   llsdiv.o
       238          0          0          0          0        100   lludivv7m.o
         8          4          0          0          0         68   rt_errno_addr_intlibspace.o
         2          0          0          0          0          0   rtexit.o
        10          0          0          0          0          0   rtexit2.o
        12          4          0          0          0         68   sys_exit.o
        74          0          0          0          0         80   sys_stackheap_outer.o
         2          0          0          0          0         68   use_no_semi.o
        24          0          0          0          0        164   basic.o
        98          4          0          0          0        140   d2f.o
       826         16          0          0          0        492   daddsub_clz.o
        16          4          0          0          0        116   dcheck1.o
        24          0          0          0          0        116   dcmpi.o
       688        140          0          0          0        256   ddiv.o
        94          4          0          0          0        140   dfix.o
        84          0          0          0          0        232   dflt_clz.o
       120          4          0          0          0        140   dleqf.o
       340         12          0          0          0        152   dmul.o
       156          4          0          0          0        140   dnaninf.o
        12          0          0          0          0        116   dretinf.o
       108          0          0          0          0        128   drleqf.o
       408         56          0          0          0        168   dsqrt_umaal.o
        86          4          0          0          0        132   f2d.o
       140          4          0          0          0        132   fnaninf.o
        10          0          0          0          0        116   fpinit.o
        10          0          0          0          0        116   fretinf.o
       100          0          0          0          0        116   retnan.o
        92          0          0          0          0        116   scalbn.o
        48          0          0          0          0        116   trapv.o
         0          0          0          0          0          0   usenofp.o
       164         44          0          0          0        620   dunder.o
        24          0          0          0          0        124   fabs.o
        48          0          0          0          0        124   fpclassify.o
       248          0          0          0          0        152   poly.o
      3152        296        136          0          0        352   pow.o
         0          0          8          0          0          0   qnan.o
       110          0          0          0          0        148   sqrt.o

    ----------------------------------------------------------------------
      7936        612        144          0         96       5792   Library Totals
        26          0          0          0          0          0   (incl. Padding)

    ----------------------------------------------------------------------

      Code (inc. data)   RO Data    RW Data    ZI Data      Debug   Library Name

       680         20          0          0         96        928   c_w.l
      3484        252          0          0          0       3344   fz_wm.l
      3746        340        144          0          0       1520   m_wm.l

    ----------------------------------------------------------------------
      7936        612        144          0         96       5792   Library Totals

    ----------------------------------------------------------------------

==============================================================================


      Code (inc. data)   RO Data    RW Data    ZI Data      Debug   

     25320       2580       3440        412       1740     814274   Grand Totals
     25320       2580       3440         92       1740     814274   ELF Image Totals (compressed)
     25320       2580       3440         92          0          0   ROM Totals

==============================================================================

    Total RO  Size (Code + RO Data)                28760 (  28.09kB)
    Total RW  Size (RW Data + ZI Data)              2152 (   2.10kB)
    Total ROM Size (Code + RO Data + RW Data)      28852 (  28.18kB)

==============================================================================

