:020000040000FA
:1000000068080020F10400006D220000FF040000D9
:1000100001050000030500000505000000000000C8
:1000200000000000000000000000000007050000C4
:1000300009050000000000000B0500000D05000090
:100040000F0500000F0500000F0500000F05000060
:100050000F0500000F0500000F0500000F05000050
:100060000F0500000F0500000F0500000F05000040
:100070000F0500000F0500000F0500000F05000030
:100080000F0500000F0500000F0500000F05000020
:100090000F0500000F0500000F0500000F05000010
:1000A0000F0500000F0500000F0500000F05000000
:1000B0000F0500000F0500000F0500000F050000F0
:1000C0000F0500000F0500000F0500000F050000E0
:1000D0000F0500000F0500000F0500000F050000D0
:1000E0000F0500000F0500000F0500000F050000C0
:1000F0000F0500000F0500000F0500000F050000B0
:100100009D2800000D2A00000F0500000F050000CB
:100110000F0500000F0500000F0500000F0500008F
:100120000F0500000F0500000F050000B12A0000B8
:100130000F050000C12A00000F0500000F05000098
:100140000F0500000F050000613000000F050000E2
:100150000F0500000F0500000F0500000F0500004F
:100160000F0500000F0500000F0500000F0500003F
:100170000F0500000F0500000F0500000F0500002F
:100180000F0500000F0500000F0500000F0500001F
:1003F0000F0500000F0500000F050000FFFFFFFFC5
:10040000FFFFFFFFFFFFFFFFFFFFFFFFFEFFFFFFFD
:1004100000F002F800F05CF80AA090E8000C8244BA
:100420008344AAF10107DA4501D100F051F8AFF297
:10043000090EBAE80F0013F0010F18BFFB1A43F0C2
:1004400001031847F46B0000146C00000A444FF0DD
:10045000000C10F8013B13F0070408BF10F8014B23
:100460001D1108BF10F8015B641E05D010F8016B68
:10047000641E01F8016BF9D113F0080F1EBF10F8CC
:10048000014BAD1C0C1B09D16D1E58BF01F801CBEF
:10049000FAD505E014F8016B01F8016B6D1EF9D572
:1004A0009142D6D370470000002300240025002687
:1004B000103A28BF78C1FBD8520728BF30C148BFC7
:1004C0000B6070471FB506F08CF81FBD10B510BD4E
:1004D00000F0E1F81146FFF7F5FF04F02BFB00F008
:1004E000FFF803B4FFF7F2FF03BC00F003F90000CC
:1004F00072B60A48804762B609480047FEE7FEE741
:10050000FEE7FEE7FEE7FEE7FEE7FEE7FEE7FEE7C3
:1005100004480549034A054B704700003930000084
:10052000110400006804002068080020680400200E
:1005300010B54C1084EA530404D54042C1F10001C7
:1005400038BF491E1B4204D55242C3F1000338BFD5
:100550005B1E00F014F814F0804F04D04042C1F14B
:10056000000138BF491E14F0004F04D05242C3F1BD
:10057000000338BF5B1E10BD70477047704753EAD9
:10058000020C00F069802DE9F04B4FF00006002BC3
:100590001FBFB3FA83F503FA05F424FA05F65E40AB
:1005A00012BF1643B2FA82F502FA05F4C5F120052E
:1005B0001EBF22FA05FC44EA0C04203556EA044C1E
:1005C0004FEA144418BF641C4FF000084FF00009B4
:1005D000904271EB030C39D3002919BFB1FA81F7AE
:1005E00001FA07F6B0FA80F700FA07F6C7F120071C
:1005F0001EBF20FA07FC46EA0C062037B6FBF4FCC7
:10060000A7EB0507103F07F01F0BCBF120060CFAF4
:100610000BFB2CFA06F644BFB3460026202FA4BFDE
:100620005E464FF0000B5BEA060C08BF4FF0010B73
:1006300019EB0B09ABFB027C48EB0608C01B06FB61
:1006400002CC0BFB03CC71EB0C01C1E70B4602465D
:1006500041464846BDE8F08B13B54FF000004FF01F
:100660000001AFF30080BDE81C40704710B500F0FA
:100670000DF8006810BD10B5044600F007F80460DE
:1006800010BD000000487047080400200048704773
:100690000804002070477546FFF7F4FFAE460500DA
:1006A0006946534620F00700854618B020B5FFF78D
:1006B0002FFFBDE820404FF000064FF000074FF03D
:1006C00000084FF0000B21F00701AC46ACE8C00970
:1006D000ACE8C009ACE8C009ACE8C0098D46704779
:1006E00010B50446AFF300802046BDE81040FFF788
:1006F000F8BE000001491820ABBEFEE7260002004C
:10070000014660296FD2DFE801F0383A3C3E4042B2
:100710004446484A959595959595959595959595C1
:100720009595959595959595959595959595959579
:10073000959595959532953436954C4E5052545624
:10074000585A5C5E95959595959595606264666836
:100750006A6C6F71737577797B7D7F8183858789FB
:100760008B8D8F939195959595303F2064E00B206C
:1007700062E00D2060E00E205EE010205CE01120C1
:100780005AE0122058E0132056E0142054E01520BF
:1007900052E0162050E017204EE018204CE01920BF
:1007A0004AE0102048E0112046E0122044E01320E7
:1007B00042E0142040E015203EE016203CE01720E7
:1007C0003AE0182038E0192036E0212034E02220D9
:1007D00032E0232030E024202EE025202CE02620CB
:1007E0002AE0272028E025E0282025E0292023E012
:1007F0002A2021E02B201FE02C201DE02D201BE0D3
:100800002E2019E02F2017E0302015E0312013E0D2
:10081000322011E033200FE034200DE035200BE0D2
:10082000362009E0372007E0382005E03A2003E0D1
:10083000392001E0002000BF00BF70474CF220507B
:100840000449C8814DF62810C8814FF4E97008802A
:10085000704700000020054010B52DED068BD348F1
:10086000007800287ED1D249488805F003FB41EC8E
:100870001A0B9FEDD00B53EC102B05F04BFB41EC0A
:10088000180BCE49888805F0F5FA41EC190B53ECAA
:10089000182B05F03DFC66D2C549088805F0EAFA38
:1008A00041EC1A0B9FEDC60B53EC102B05F032FBFD
:1008B00041EC180BC149088805F0DCFA41EC190B32
:1008C00053EC182B05F024FC18D2B949488805F0E0
:1008D000D1FA41EC1A0B9FEDBC0B53EC102B05F039
:1008E00019FB41EC180BB549888805F0C3FA41ECB7
:1008F000190B53EC182B05F00BFC31D3AC490888CD
:1009000005F0B8FA41EC1A0B9FEDAD0B53EC102B30
:1009100005F000FB41EC180BA849488805F0AAFA3D
:1009200041EC190B53EC182B05F0F2FB52D2A04905
:10093000488805F09FFA41EC1A0B9FEDA30B53EC8E
:10094000102B05F0E7FA41EC180B9C49888805F05C
:1009500091FA41EC190B53EC182B05F0D9FB39D265
:10096000964801E03CE035E000889149098849005B
:10097000884206DA914840888D49098849008842B2
:1009800027DB03F04FFD8A49488805F073FA41ECF4
:100990001A0B9FED8F0B53EC102B05F0BBFA41ECBB
:1009A000180B8D49887805F065FA41EC190B53EC6A
:1009B000182B05F0ADFB07D888480068012803D143
:1009C0007A4908708649087000208649087086496F
:1009D0000870E3E09FED850A854880ED000ADDE0C0
:1009E0007248007801283AD103F01CFD704948880C
:1009F00005F040FA41EC1A0B9FED750B53EC102BF0
:100A000005F088FA41EC180B6C49888805F032FA39
:100A100041EC190B53EC182B05F040FA19D86F482C
:100A20000068401CA8B90020724908709FED720A46
:100A3000724880ED000A0020694908704FF49670F2
:100A40006F4908804FF4FA706E49088002205749B8
:100A50000870002063490870634908709EE053489D
:100A6000007802285AD16648008810B901205C49F4
:100A700008704F49488805F0FDF941EC1A0B9FEDCD
:100A8000620B53EC102B05F045FA41EC180B4B4967
:100A9000888805F0EFF941EC190B53EC182B05F0A1
:100AA00037FB7BD24249088805F0E4F941EC1A0B88
:100AB0009FED570B53EC102B05F02CFA41EC180B63
:100AC0003E49088805F0D6F941EC190B53EC182B78
:100AD00005F01EFB18D33649088805F0CBF941EC28
:100AE0001A0B9FED4B0B53EC102B05F013FA41EC56
:100AF000180B3249488805F0BDF941EC190B53EC4D
:100B0000182B05F005FB49D23D48008860BB3D48E5
:100B1000008848BB0320254908703FE0234800783F
:100B2000032822D1B6EE000A3B4880ED000A0120DE
:100B30002B4908703948008810B9012037490880CE
:100B400036480088B0F57A7F28DB00216E2003F05C
:100B500037FE002031490880B7EE000A2E4880EDAC
:100B6000000A04201149087018E010480078042891
:100B700014D12A48008810B9012028490880274844
:100B80000088B0F5967F09DB0020084908702349EA
:100B9000088023480078401C2149087007480079E4
:100BA0000D498870BDEC068B10BD0000CD00002003
:100BB000C00000209A9999999999F93FA4000020C2
:100BC00000000000000004409A9999999999F13F1A
:100BD000666666666666FE3FCE000020BC000020AA
:100BE00001010020BA000020BB000020000000002E
:100BF000F000002000010020004083C4F400002029
:100C0000F800002002010020000000000000F83F72
:100C1000666666666666F63FD4000020FA0000202D
:100C20004001002010B52DED068BCA480078002841
:100C30007ED1C949488805F01DF941EC1A0B9FED9A
:100C4000C70B53EC102B05F065F941EC180BC549A7
:100C5000888805F00FF941EC190B53EC182B05F0BF
:100C600057FA66D2BC49088805F004F941EC1A0B22
:100C70009FEDBD0B53EC102B05F04CF941EC180B1C
:100C8000B849088805F0F6F841EC190B53EC182B1D
:100C900005F03EFA18D2B049488805F0EBF841EC6F
:100CA0001A0B9FEDB30B53EC102B05F033F941EC0D
:100CB000180BAC49888805F0DDF841EC190B53ECB2
:100CC000182B05F025FA31D3A349088805F0D2F88E
:100CD00041EC1A0B9FEDA40B53EC102B05F01AF905
:100CE00041EC180B9F49488805F0C4F841EC190BFA
:100CF00053EC182B05F00CFA40D29749488805F0C0
:100D0000B9F841EC1A0B9FED9A0B53EC102B05F040
:100D100001F941EC180B9349888805F0ABF841ECD8
:100D2000190B53EC182B05F0F3F927D28D4801E08D
:100D30002AE023E00088884909884900884206DAC9
:100D400088484088844909884900884215DB03F0B7
:100D500069FB89488078804949884900884207DBD7
:100D600086480068012803D17A49087084490870D0
:100D700000208449087084490870E3E09FED830AED
:100D8000834880ED000ADDE07248007801283AD1FE
:100D900003F048FB7049488805F06CF841EC1A0BE9
:100DA0009FED7C0B53EC102B05F0B4F841EC180BC5
:100DB0006C49888805F05EF841EC190B53EC182B50
:100DC00005F06CF819D86D480068401CA8B90020DF
:100DD000724908709FED720A724880ED000A002087
:100DE000674908704FF4B9706F4908804FF4167066
:100DF0006E49088002205749087000206149087038
:100E0000614908709EE05348007802285AD166482C
:100E1000008810B901205A4908704F49488805F0E8
:100E200029F841EC1A0B9FED5B0B53EC102B05F0EE
:100E300071F841EC180B4B49888805F01BF841EC20
:100E4000190B53EC182B05F063F97BD24249088843
:100E500005F010F841EC1A0B9FED550B53EC102BDD
:100E600005F058F841EC180B3E49088805F002F8E7
:100E700041EC190B53EC182B05F04AF918D33649FD
:100E8000088804F0F7FF41EC1A0B9FED490B53EC77
:100E9000102B05F03FF841EC180B3249488804F05C
:100EA000E9FF41EC190B53EC182B05F031F949D24D
:100EB0003D48008860BB3D48008848BB0320254969
:100EC00008703FE023480078032822D19FED3A0ABA
:100ED0003A4880ED000A0120294908703848008806
:100EE00010B901203649088035480088B0F57A7F6E
:100EF00028DB00216E2003F063FC002030490880CD
:100F0000B7EE000A2D4880ED000A04201149087050
:100F100018E010480078042814D12948008810B936
:100F200001202749088026480088B0F5967F09DB14
:100F30000020084908702249088022480078401C97
:100F400020490870074800790B498870BDEC068B72
:100F500010BD0000CD000020C00000209A99999992
:100F60009999F93FA400002000000000000004400F
:100F70009A9999999999F13FCE000020BC000020E0
:100F800001010020BA000020BB000020000000008A
:100F9000F0000020333333333333FB3F00010020B4
:100FA000000048C4F4000020F800002002010020E6
:100FB000666666666666F63FCDCCCC3ED400002001
:100FC000FA0000204001002010B52DED0A8BDE480C
:100FD000007800287ED1DD49488804F04BFF41ECC1
:100FE0001A0B9FEDDB0B53EC102B04F093FF41EC3D
:100FF000180BD949888804F03DFF41EC190B53ECDC
:10100000182B05F085F866D2D049088804F032FF25
:1010100041EC1A0B9FEDD10B53EC102B04F07AFF2F
:1010200041EC180BCC49088804F024FF41EC190B63
:1010300053EC182B05F06CF818D2C449488804F01A
:1010400019FF41EC1A0B9FEDC70B53EC102B04F06A
:1010500061FF41EC180BC049888804F00BFF41EC9C
:10106000190B53EC182B05F053F831D3B749088806
:1010700004F000FF41EC1A0B9FEDB80B53EC102B62
:1010800004F048FF41EC180BB349488804F0F2FE25
:1010900041EC190B53EC182B05F03AF852D2AB493E
:1010A000488804F0E7FE41EC1A0B9FEDAE0B53ECC1
:1010B000102B04F02FFF41EC180BA749888804F08F
:1010C000D9FE41EC190B53EC182B05F021F839D25D
:1010D000A14801E03CE035E000889C4909884900CE
:1010E000884206DA9C484088984909884900884225
:1010F00027DB03F097F99549488804F0BBFE41ECE3
:101100001A0B9FED9A0B53EC102B04F003FF41ECEC
:10111000180B9849887804F0ADFE41EC190B53EC9C
:10112000182B04F0F5FF07D893480068012803D175
:1011300085490870914908700020914908709149CB
:101140000870FAE09FED900A904880ED000AF4E004
:101150007D48007801283AD103F064F98648006898
:10116000401C70BB7949488804F084FE41EC1A0B9E
:101170009FED870B53EC102B04F0CCFE41EC180BC9
:101180007549888804F076FE41EC190B53EC182B56
:1011900004F084FE15D800207F4908709FED7F0A77
:1011A0007F4880ED000A0020744908704FF4C87031
:1011B0007C4908804FF4FA707B490880022062491C
:1011C000087000206E4908706E490870B5E05E48EE
:1011D0000078022851D1B6EE000A744880ED000A6A
:1011E000704800880028ACD10120644908706F481D
:1011F000006805F085F941EC1A0B5449088804F0A1
:1012000039FE41EC1C0B9FED6A0B53EC102B04F0E4
:1012100081FE41EC1B0B53EC1A2B04F07BFE41ECDE
:10122000180B4D49088804F025FE41EC190B53ECCE
:10123000182B04F06DFF1FD24449088804F01AFEF1
:1012400041EC1A0B9FED5A0B53EC102B04F062FE8D
:1012500041EC180B4049488804F00CFE41EC190B96
:1012600053EC182B04F054FF67D24F480088002835
:1012700063D10320344908705FE0334800780328C5
:101280000FD100203D4908709FED4B0A444880ED86
:10129000000A4FF496704349088004202A490870D8
:1012A0004BE02948007804282ED1B7EE000A3F48C9
:1012B00080ED000A3B48008828BB00216E2003F027
:1012C0007FFAB6EE000A3D4880ED000A01202B4966
:1012D00008703B48008810B9012039490880384817
:1012E0000088B0F57A7F28DB002035490880B7EE0A
:1012F000000A324880ED000A4FF4967031490880A8
:1013000005201149087018E00F480078052814D10D
:101310002B48008810B901202949088028480088F6
:10132000B0F5967F09DB0020074908702449088042
:1013300025480078401C24490870074800790D4969
:101340008870BDEC0A8B10BDCD000020C0000020CD
:101350009A9999999999F93FA40000209A99999995
:10136000999901409A9999999999F13F66666666AB
:101370006666FE3FCE000020BC0000200101002078
:10138000BA000020BB00002000000000F000002098
:10139000333333333333FF3F000100200000614417
:1013A000F4000020F800002002010020D4000020FA
:1013B000CDCCCCCCCCCCF43F00C08544D8000020B0
:1013C000FA000020FC0000204001002010B52DEDA7
:1013D000068BCD48007800287ED1CC49488804F09F
:1013E00049FD41EC1A0B9FEDCA0B53EC102B04F096
:1013F00091FD41EC180BC849888804F03BFD41EC95
:10140000190B53EC182B04F083FE66D2BF490888F1
:1014100004F030FD41EC1A0B9FEDC00B53EC102B88
:1014200004F078FD41EC180BBB49088804F022FD5C
:1014300041EC190B53EC182B04F06AFE18D2B34997
:10144000488804F017FD41EC1A0B9FEDB60B53ECE6
:10145000102B04F05FFD41EC180BAF49888804F0B5
:1014600009FD41EC190B53EC182B04F051FE31D35C
:10147000A649088804F0FEFC41EC1A0B9FEDA70B6F
:1014800053EC102B04F046FD41EC180BA2494888A0
:1014900004F0F0FC41EC190B53EC182B04F038FE6F
:1014A00040D29A49488804F0E5FC41EC1A0B9FEDC4
:1014B0009D0B53EC102B04F02DFD41EC180B9649BD
:1014C000888804F0D7FC41EC190B53EC182B04F07E
:1014D0001FFE27D2904801E02AE023E000888B49D4
:1014E00009884900884206DA8B484088874909887C
:1014F0004900884215DB02F095FF8C4880788349CB
:1015000049884900884207DB89480068012803D1DF
:101510007D4908708749087000208749087087490D
:101520000870EAE09FED860A864880ED000AE4E054
:1015300075480078012840D102F074FF734948884B
:1015400004F098FC41EC1A0B9FED7F0B53EC102B31
:1015500004F0E0FC41EC180B6F49888804F08AFC29
:1015600041EC190B53EC182B04F098FC1FD8704871
:101570000068401CD8B9402003F046F9112003F060
:1015800043F90020724908709FED720A724880ED9D
:10159000000A0020674908704FF4B9706F4908804D
:1015A0004FF4FA706E4908800220574908700020F5
:1015B00061490870614908709FE05348007802282B
:1015C0005AD16648008810B901205A4908704F491D
:1015D000488804F04FFC41EC1A0B9FED620B53EC72
:1015E000102B04F097FC41EC180B4B49888804F051
:1015F00041FC41EC190B53EC182B04F089FD7CD213
:101600004249088804F036FC41EC1A0B9FED570B59
:1016100053EC102B04F07EFC41EC180B3E4908887B
:1016200004F028FC41EC190B53EC182B04F070FD6E
:1016300018D33649088804F01DFC41EC1A0B9FEDC5
:101640004B0B53EC102B04F065FC41EC180B3249AA
:10165000488804F00FFC41EC190B53EC182B04F0F4
:1016600057FD4AD23D48008860BB3D48008848BBD2
:1016700003202549087040E023480078032822D140
:101680009FED3C0A3C4880ED000A01202949087082
:101690003A48008810B90120384908803748008846
:1016A000B0F57A7F29DB00216E2003F089F8002055
:1016B00032490880B7EE000A2F4880ED000A042066
:1016C0001149087019E010480078042815D12B48FA
:1016D000008810B901202949088028480088B0F501
:1016E000967F0ADB00200849087025480078401CD6
:1016F00023490870002021490880074800790B49D8
:101700008870BDEC068B10BDCD000020C00000200D
:101710009A9999999999F93FA40000200000000036
:10172000000004409A9999999999F13FCE000020C0
:10173000BC00002001010020BA000020BB000020F6
:1017400000000000F0000020000000000000FC3F4E
:101750000001002000004844F4000020F8000020B0
:1017600002010020333333333333FB3F6666666652
:101770006666F63FCDCCCC3ED8000020FA000020B3
:10178000400100202DE9F0412DED108B84B00024A4
:1017900017E000212A2002F05BFCE04908550021F7
:1017A0002B2002F055FCC1B2DC48C01D01550021C0
:1017B000092002F04DFCC1B2D8480E300155601C22
:1017C000C4B2072CE5DB002545E00020072302E03A
:1017D00000EB4007781C00EB40077F1C9F42F7DDC1
:1017E00035E0C4B22CE0211AC5EBC507DFF82CC3E5
:1017F00067443A5D0FE0C5EBC507DFF820C36744D7
:101800007F5CC5EBC50CDFF81483C44401EB000812
:101810000CF80870091A002907DBC5EBC507DFF8CB
:10182000FCC267447F5C9742E5DCC5EBC50CDFF882
:10183000EC82C44401EB00080CF80820671CFCB2E1
:101840009C42D0DB471E4FF0030C97FBFCF00128B5
:10185000C7DA681CC5B2032DB7DB002405E0002001
:10186000AF4921F81400601CC4B2032CF7DB00243C
:1018700013E002260DE0AA4830F81400C4EBC401BE
:10188000A64A1144895D0844A54921F81400701C3A
:10189000C6B2052EEFDB601CC4B2032CE9DB0024CA
:1018A0000AE09F4830F81400032190FBF1F09C49B6
:1018B00021F81400601CC4B2032CF2DB984988881C
:1018C00000EBD0714910964A91801046008800EED6
:1018D000100AB8EE400A9348D0ED000A20EE200A24
:1018E000BCEEC00A10EE100A114608800846408877
:1018F00000EE100AB8EE400A8B48D0ED000A20EE48
:10190000200ABCEEC00A10EE100A4880042006E04F
:1019100086490A5C0B46411C5A54411EC8B2002835
:10192000F6DC82480078814948707D48007908706B
:101930007B4800887A4949880844E0B178480088A3
:1019400000EE100AF8EE400A7548408800EE100AD2
:10195000B8EE400A70EEC00A7148008870494988A4
:10196000084400EE100AB8EEC00A80EE801A7048F3
:1019700080ED001A04E09FED6F0A6D4880ED000ACB
:101980006D48006804F0BCFD41EC1A0B9FED6B0B39
:1019900053EC102B04F0BEFA41EC180B69480068B8
:1019A00004F0AEFD41EC1B0B9FED640B53EC102BD0
:1019B00004F0B0FA41EC1A0B6348006804F0A0FD93
:1019C00041EC1D0B9FED5D0B53EC102B04F0A2FAC4
:1019D00041EC1B0B5D48006804F092FD41EC1F0BCD
:1019E0009FED560B53EC102B04F094FA41EC1D0BB9
:1019F0004F48006804F084FD41EC1F0B9FED4F0B36
:101A000053EC102B04F086FA41EC1E0B53EC1D2B0B
:101A100003F0D6FF41EC1C0B53EC1B2B03F0D0FF63
:101A200053EC1A2BCDE900019DED000B51EC100B8E
:101A300003F0C6FF41EC190B53EC182B03F0C0FF69
:101A4000CDE902019DED020B51EC100B03F086FF76
:101A50003749086003F02EF83A4890ED000A3648FE
:101A600080ED000A384890ED000A364880ED000A03
:101A7000364890ED000A344880ED000A2C4890ED7D
:101A8000000A324880ED000A254800883049088065
:101A9000234840882F490880002005E000212E4A75
:101AA00022F81010411CC8B20328F7DB022018E00E
:101AB00029490988194A125C1144274A11801146A4
:101AC0004A881649C91D095C1144234A51801146B0
:101AD0008A8812490E31095C11441F4A9180411CC9
:101AE000C8B20528E4DB00200AE01B4931F81010D9
:101AF000032291FBF2F1184A22F81010411CC8B2DF
:101B00000328F2DB1449888800EBD0714910124A8F
:101B1000918004B0BDEC108BBDE8F081480300203B
:101B2000A4000020D4000020D8000020B400002031
:101B3000C800002000000000EC0000209A9999994C
:101B40009999C93FE8000020E4000020E00000204F
:101B5000AA000020AC000020AE0000202DE9F041DA
:101B600000242EE00321302002F072FA04EB44023C
:101B7000854921F812000321102002F069FA8249F8
:101B8000783921F814000321302002F061FA04EBC7
:101B90004401491C7C4A22F811000321242002F050
:101BA00057FA7949783121F814000321302002F0E6
:101BB0004FFA04EB4401891C734A22F81100601C9F
:101BC000C4B2142CCEDB0025142702E005EB45003F
:101BD000451C05EB4500401CB842F7DD26E0ECB2A1
:101BE0001EE0661B6848783830F8148009E06648C3
:101BF000783830F816007119634A783A22F81100E3
:101C0000761B002E05DB6048783830F8160040451A
:101C1000EDDC70195C49783921F81080601CC4B281
:101C2000BC42DEDB681E032190FBF1F5012DD6DA04
:101C300000253C2702E005EB4500451C05EB45006F
:101C4000401CB842F7DD20E0ECB218E0661B4E48BD
:101C500030F8148006E04C4830F81610721920F85D
:101C60001210761B002E04DB474830F81600404562
:101C7000F1DC7119444820F81180601CC4B2BC42E8
:101C8000E4DB681E032190FBF1F5012DDCDA002571
:101C9000142702E005EB4500451C05EB4500401C00
:101CA000B842F7DD26E0ECB21EE0661B364878301D
:101CB00030F8148009E03448783030F81600711993
:101CC000314A783A22F81100761B002E05DB2E48A7
:101CD000783030F816004045EDDC71192A4878302C
:101CE00020F81180601CC4B2BC42DEDB681E0321F8
:101CF00090FBF1F5012DD6DA002405E00020234900
:101D000041F82400601CC4B2032CF7DB00240AE075
:101D10001E4800681C49783931F8141008441B49E2
:101D20000860601CC4B2012CF2DB342409E01748BF
:101D30004168154830F81400084414494860601C94
:101D4000C4B2382CF3DB08240AE0104881680E483E
:101D5000783030F8140008440C498860601CC4B224
:101D60000D2CF2DB09480068084908600846406805
:101D700080084860084680680521B0FBF1F00349FF
:101D80008860BDE8F08100001402002004030020F8
:101D900070B505460C4635B1012D45D0022D5CD0FD
:101DA000032D40D177E05E48C06B40F080705C4905
:101DB000C863082C35D2DFE804F0040A10161C2290
:101DC000282E4FF48061412003F012F82AE04FF4EE
:101DD0008061422003F00CF824E04FF4806143203E
:101DE00003F006F81EE04FF44071062003F000F8FF
:101DF00018E04FF48061642002F0FAFF12E04FF423
:101E00008061652002F0F4FF0CE04FF480616620F1
:101E100002F0EEFF06E04FF48061672002F0E8FF79
:101E200000E070BD00BF77E03D48C06B40F000703F
:101E30003B49C86314B1012C0CD105E04FF440714B
:101E40000C2002F0D5FF06E04FF440710D2002F0A7
:101E5000CFFF00E0E5E700BF5EE03148006B40F0F7
:101E600080702F4908630846C06B40F08060C863EB
:101E700014B1012C0CD105E04FF44071322002F076
:101E8000B7FF00BF4FF44071332002F0B1FF00E014
:101E9000C7E700BF40E02248006B40F000702049D7
:101EA0000863082C35D2DFE804F0040A10161C225F
:101EB000282E4FF4C061852002F09AFF2AE04FF4EB
:101EC000C061862002F094FF24E04FF4C0618720B7
:101ED00002F08EFF1EE04FF4C061882002F088FF00
:101EE00018E04FF4C061892002F082FF12E04FF445
:101EF000C0618A2002F07CFF0CE04FF4C0618B20AF
:101F000002F076FF06E04FF4C0618C2002F070FF13
:101F100000E086E700BF00BF00BF00BF81E7000010
:101F2000008004402DE9FF5F2DED020B2DED0C8BA1
:101F30008246B0EE408A1746984600250026A946FC
:101F40000024002008EE900A9FEDBD0AB0EE409AF2
:101F5000B5EEC08AF1EE10FA0FD22D20B949087003
:101F6000BDEEC80A10EE100A4042044608EE900A80
:101F7000B1EE480AB0EE409A0AE02B20B149087051
:101F8000BDEEC80A10EE104AF0EE408AB0EE489A54
:101F90003D4684E00B2D72D2DFE805F071060E1489
:101FA0001F2C39444F5A65000A2094FBF0F100FBC6
:101FB000114000F0FF096AE00A2094FBF0F000F005
:101FC000FF0964E0642094FBF0F000F0FF09642056
:101FD00094FBF0F100FB114459E04FF47A7094FB4C
:101FE000F0F000F0FF094FF47A7094FBF0F100FB81
:101FF00011444CE042F2107094FBF0F000F0FF0945
:1020000042F2107094FBF0F100FB11443FE08E4867
:1020100094FBF0F000F0FF098B4894FBF0F100FB1B
:10202000114434E0894894FBF0F000F0FF09874840
:1020300094FBF0F100FB114429E0854894FBF0F09B
:1020400000F0FF09824894FBF0F100FB11441EE010
:10205000804894FBF0F000F0FF097E4894FBF0F11B
:1020600000FB114413E07C4894FBF0F000F0FF0902
:10207000794894FBF0F100FB114408E0FFE7774A50
:1020800002232046E117FEF753FA144600BF00BFB3
:10209000781B401C6B4901F80090681EC5B2002DEA
:1020A0003FF778AFB8F1000F71DDB8EEE80A39EE0E
:1020B000400AB0EE409A404603F0DCFE41EC1D0BB6
:1020C000B0EE4D1AF0EE6D1A9FED650B00F0F0FFCB
:1020D000B0EE40BAF0EE60BA19EE100A04F010FA51
:1020E00041EC1C0B53EC1B2B03F014FF41EC1A0BBF
:1020F00003F07AFE04462E21524A781C11544646BB
:1021000056E0072E44D2DFE806F043040C121D2AE5
:1021100037000A2094FBF0F100FB114000F0FF09AA
:102120003CE00A2094FBF0F000F0FF0936E0642068
:1021300094FBF0F000F0FF09642094FBF0F100FB49
:1021400011442BE04FF47A7094FBF0F000F0FF099B
:102150004FF47A7094FBF0F100FB11441EE042F260
:10216000107094FBF0F000F0FF0942F2107094FB45
:10217000F0F100FB114411E0334894FBF0F000F063
:10218000FF09314894FBF0F100FB114406E033E015
:102190002E4894FBF0F100FB114400BF00BF07EB99
:1021A0000800801B801C274901F80090701EC6B2F1
:1021B000002EA6DC50460F9900F066F9002615E0C7
:1021C00000250FE01F49885DFEF79AFA00EB4000FA
:1021D000254901EB400010F805B0584600F090F991
:1021E000681CC5B2062DEDDB701CC6B207EB0800FB
:1021F000801CB042E4DC1EE050460F9900F044F928
:10220000002615E000250FE00E49885DFEF778FAFC
:1022100000EB4000144901EB400010F805B05846AF
:1022200000F06EF9681CC5B2062DEDDB701CC6B25D
:10223000781C8642E6DBBDEC0C8B06B0BDE8F09F57
:1022400000000000F4030020A086010040420F00BF
:102250008096980000E1F50500CA9A3B00E40B5413
:10226000000000000000244090670000704700F06C
:102270001F02012191404209920002F1E022C2F8BE
:102280000011704710B5002807DA0A07140E054A36
:1022900000F00F031B1FD45403E00A07130E024A79
:1022A000135410BD18ED00E000E400E009E04FF425
:1022B0007A5100BF0A1EA1F1010399B2FAD1421E60
:1022C00090B20028F3D1704770B50646002415E09F
:1022D00004F1B001C8B200F0EBF8012000F0E8F81A
:1022E000102000F0E5F8002504E0304600F008F981
:1022F000681CC5B2802DF8DB601CC4B2082CE7DB7B
:1023000070BD10B501221146502002F0EFF90022F5
:102310000121512002F0EAF901221146522002F077
:10232000E5F901221146532002F0E0F90321502083
:1023300002F098FD0321512002F094FD0321522068
:1023400002F090FD0321532002F08CFD012150206A
:1023500002F036FA0021522002F032FA3220FFF762
:10236000A5FF0121522002F02BFAAE2000F0A0F8C8
:10237000002000F09DF8102000F09AF8402000F0B6
:1023800097F8812000F094F8CF2000F091F8A12078
:1023900000F08EF8C82000F08BF8A62000F088F836
:1023A000A82000F085F83F2000F082F8D32000F04C
:1023B0007FF8002000F07CF8D52000F079F880202C
:1023C00000F076F8D92000F073F8F12000F070F8F2
:1023D000DA2000F06DF8122000F06AF8DB2000F03F
:1023E00067F8402000F064F8202000F061F8022037
:1023F00000F05EF88D2000F05BF8142000F058F833
:10240000A42000F055F8A62000F052F8AF2000F00C
:102410004FF80020FFF758FF0021084600F034F87D
:1024200010BD00002DE9F0470446884615464FF0E0
:1024300000090026002720E0E85D203800F0FF09B1
:102440007E2C04DD002408F1010000F0FF08414665
:10245000204600F019F8002609E009EB4901094A75
:1024600002EB4101885D00F04BF8701CC6B2062EED
:10247000F3DBA01DC4B2781CC7B2E85D0028DBD135
:10248000BDE8F0879067000070B504460D4605F181
:10249000B001C8B200F00CF8102141EA141000F0AD
:1024A00007F804F00F0141F0010000F001F870BDE1
:1024B00070B5044608250021532002F081F900215F
:1024C000502002F07DF915E004F0800020B10121D8
:1024D000512002F075F903E00021512002F070F95B
:1024E0000121502002F06CF90021502002F068F91F
:1024F0006006040E281EA5F10101CDB2E4D170BD25
:1025000070B5044608250121532002F059F9002135
:10251000502002F055F915E004F0800020B10121AF
:10252000512002F04DF903E00021512002F048F95A
:102530000121502002F044F90021502002F040F91E
:102540006006040E281EA5F10101CDB2E4D170BDD4
:10255000484890ED001A484880ED051A474890ED2C
:10256000001A454880ED071A80ED020A90ED021A24
:10257000D0ED031A31EE611A80ED091A90ED091AB7
:10258000DFED3F1A21EE211A80ED091A90ED091AAC
:10259000DFED3C1A21EE211AD0ED0A1A9FED3A2AFE
:1025A00001EE821A394880ED001A334890ED051A81
:1025B000D0ED021A21EE211AD0ED071A334890ED22
:1025C000002A01EE821AF0EE410A3148008801EE3D
:1025D000100AB8EE411A31EE201A274880ED0B1A86
:1025E00090ED0B1A2B4880ED001A294800882A49E3
:1025F0000988084401EE100AB8EEC11A2548D0ED4A
:10260000001AB4EEE11AF1EE10FA0CD2204800885C
:1026100021490988084401EE100AB8EEC11A1D4884
:1026200080ED001A1CE01A4800881B490988401AEE
:1026300001EE100AB8EEC11A1648D0ED001AB4EE39
:10264000E11AF1EE10FA0BDD1148008812490988F1
:10265000401A01EE100AB8EEC11A0E4880ED001AB9
:10266000054890ED021A80ED031A90ED091A80EDED
:102670000A1A704704010020780300200801002096
:10268000000048439A99193FCCCCCC3E2C01002045
:10269000340100201401002038010020484890ED4A
:1026A000001A484880ED051A474890ED001A454841
:1026B00080ED071A80ED020A90ED021AD0ED031AA0
:1026C00031EE611A80ED091A90ED091ADFED3F1A1B
:1026D00021EE211A80ED091A90ED091ADFED3C1A5E
:1026E00021EE211AD0ED0A1A9FED3A2A01EE821A44
:1026F000394880ED001A334890ED051AD0ED021AE2
:1027000021EE211AD0ED071A334890ED002A01EE90
:10271000821AF0EE410A3148008801EE100AB8EE44
:10272000411A31EE601A274880ED0B1A90ED0B1A12
:102730002B4880ED001A294800882A490988084456
:1027400001EE100AB8EEC11A2548D0ED001AB4EE19
:10275000E11AF1EE10FA0CD22048008821490988CC
:10276000084401EE100AB8EEC11A1D4880ED001AA7
:102770001CE01A4800881B490988401A01EE100A1B
:10278000B8EEC11A1648D0ED001AB4EEE11AF1EE17
:1027900010FA0BDD1148008812490988401A01EE31
:1027A000100AB8EEC11A0E4880ED001A054890EDE7
:1027B000021A80ED031A90ED091A80ED0A1A70478B
:1027C00004010020A8030020080100200000484365
:1027D0009A99193FCCCCCC3E300100203601002024
:1027E000180100203801002010B5274800880A2869
:1027F00017DA254840880A2813DA234880880A28EF
:102800000FDA2248007860B941F2883201210320B2
:1028100001F02EFD41F288320321084601F028FD27
:1028200030E01B48007818B11848007801280FD113
:10283000184890ED000A02F0F3FE174890ED000AE8
:10284000FFF786FE144890ED000AFFF727FF19E016
:102850000F480078B0B10D48007898B90E4890ED57
:10286000000AFFF775FE0C4890ED000AFFF716FF0F
:1028700000220121032001F0FBFC00220321084675
:1028800001F0F6FC10BD0000A4000020460100206D
:1028900001010020F4000020C800002010B54B48C2
:1028A000006840F001014948016049480068401C47
:1028B00047490860084600680521B0FBF1F201FBBA
:1028C000120010B90120434908704148006842F2E3
:1028D0000F71884202D900203D4908603E480088B7
:1028E00050B13D48008840F6B831884204DA3A4891
:1028F0000088401C384908803848008848B137486B
:102900000088B0F57A7F04DA34480088401C3349E7
:1029100008803348008820B131480088401E304983
:1029200008803048008820B12E480088401C2D497E
:1029300008802D48008820B12B480088401E2A4975
:1029400008802A48008820B128480088401E27496E
:1029500008802748008820B125480088401C244969
:1029600008802448008820B122480088401E214960
:1029700008802148008820B11F480088401E1E4959
:1029800008801E48008820B11C480088401E1B4952
:1029900008801B48008848B119480088B0F57A6F54
:1029A00004DA17480088401C15490880154800883B
:1029B00020B114480088401E12490880124800784F
:1029C00018B9FFF7CBF802F077FA10BD0C7103408D
:1029D00000000020040000200A0000200C0000205D
:1029E000F8000020FA000020FC0000200201002076
:1029F0004A01002054010020440100205801002019
:102A00005C010020FE0000206900002010B51B487A
:102A1000006840F001011948016019480078012858
:102A200021D11848007803281DDC17480088D0B948
:102A300016480088642816DD1548008898B915489E
:102A4000007880B91448008868B91448007850B9F3
:102A50001348008838B91348008820B91248007814
:102A600008B101F037FB1148007828B90448007814
:102A7000012801D101F0DCFE10BD00001C710340F3
:102A80006900002056010020540100200A000020A7
:102A90005801002048010020FE000020CD00002049
:102AA000FA000020FC0000206001002061010020ED
:102AB0004FF0FF300149086070470000A0900440CB
:102AC0004FF0FF300149086070470000A0B004409B
:102AD00070B501F0FBFC41F2883344F26822012119
:102AE000032001F005FC41F2883344F268220321FF
:102AF000084601F0FDFB00234CF250320421184639
:102B000001F0F6FB002201210D2001F0EFFD012272
:102B10001146332001F0EAFD102001F0C1F9302008
:102B200001F0BEF9242001F0BBF90D2001F0B8F945
:102B3000082001F0B5F9092001F0B2F90C2001F0EC
:102B4000AFF9FFF7DEFB01221146112001F0CEFDA7
:102B500001221146402001F0C9FD012211466F20DB
:102B600001F0C4FD012211469A2001F0BFFD4FF48F
:102B7000E131032002F0DAFD012200214A2001F0B8
:102B8000B5FD012200214B2001F0B0FD0122002102
:102B9000182001F0ABFD01220021192001F0A6FD53
:102BA00000221146042001F0A1FD0022114605205B
:102BB00001F09CFD00221146062001F097FD002245
:102BC0001146072001F092FD00221146082001F075
:102BD0008DFD002211460A2001F088FD00221146D9
:102BE0000B2001F083FD002211460E2001F07EFD36
:102BF000002211460F2001F079FD0F2001F060FD49
:102C000018B900206249087006E00F2001F058FD55
:102C1000012801D15E4908700E2001F051FD18B95C
:102C200001205C49087007E00E2001F049FD0128F1
:102C300002D10020574908700B2001F041FD18B95E
:102C400001205449487007E00B2001F039FD0128AC
:102C500002D100204F4948700A2001F031FDA0B98F
:102C60009FED4D0A4D4880ED000A9FED4D0A4D48FD
:102C700080ED000A40F68C204B4908804B490880C3
:102C80004FF4FA604A49088018E00A2001F018FD64
:102C9000012813D19FED470A404880ED000A9FEDBF
:102CA000460A404880ED000A40F6F6103E4908808A
:102CB0003E49088040F698003D490880072001F011
:102CC000FFFC0646082001F0FBFC46EA4000C4B2C7
:102CD0008CB1012C0BD0022C05D0032C0FD100207D
:102CE000364908700BE001203449087007E00220E3
:102CF0003249087003E003203049087000BF00BF6C
:102D0000052001F0DDFC0646062001F0D9FC46EA6C
:102D10004000C5B28DB1012D0BD0022D05D0032D81
:102D20000FD10020264908700BE0012024490870CB
:102D300007E002202249087003E0032020490870C0
:102D400000BF00BF1F4800684FF47A7200FB02F119
:102D5000002002F01FF802213020FFF793FA302004
:102D6000FFF785FA1748006800EB800040004FF439
:102D70007A7200FB02F1012002F00CF803213120ED
:102D8000FFF780FA3120FFF772FA62B670BD0000DB
:102D9000690000203C0100200080ED440401002077
:102DA0000080094408010020340100203601002081
:102DB000380100200000FA44000048443F01002090
:102DC0005A0100208401002010B54FF0FF3029493E
:102DD00048642948407820F0020027494870084696
:102DE000407840F020004870BA2008700846C0784B
:102DF00000F01F00C8700846407900F0BF0048711D
:102E000000BF1D48807900F010000028F9D100BFF4
:102E10001948807900F00C000828F9D11748046897
:102E2000006840F47F001549086001F0EFF913488D
:102E3000046000BF1048807900F020000028F9D01D
:102E400000BF0D48807900F040000028F9D01A201A
:102E50000949087000BF0848807900F00C000C2870
:102E6000F9D100BF0448807900F040000028F9D073
:102E700010BD0000008004400040064000F001400A
:102E80002DE9FF412DED020B0D9F00240026AA2203
:102E90002146641C504842542146641C4254F2228C
:102EA0002146641C425400222146641C42549DF871
:102EB00009202146641C42549DF808202146641CC8
:102EC00042549DF80D202146641C42549DF80C206C
:102ED0002046611CCCB240490A549DF8112020467E
:102EE000611CCCB23C490A549DF810202046611C5C
:102EF000CCB239490A549DF803202146601CC4B263
:102F0000354842549DF802202046611CCCB232491B
:102F10000A549DF801202046611CCCB22E490A5467
:102F20009DF800202046611CCCB22B490A549DF824
:102F300015202046611CCCB227490A549DF8142064
:102F40002046611CCCB224490A549DF83120204609
:102F5000611CCCB220490A549DF830202046611CE7
:102F6000CCB21D490A542046611CCCB21A490F54F8
:102F70009DF839202046611CCCB217490A549DF8AF
:102F800038202146601CC4B2134842549DF83D20AD
:102F90002046611CCCB210490A549DF83C202046C2
:102FA000611CCCB20C490A54201FC870002505E0F2
:102FB0000948405D3044C6B2681CC5B2A542F7DB83
:102FC0002046611CCCB204490E542246032002F074
:102FD00099FC06B0BDE8F0811C0300201FB50F4826
:102FE00000880F4909880F4A12780F4B1B780B4C49
:102FF000CDE90032CDE9021063880C4CD4ED000A13
:103000009FED0B1A60EE810AB0EE600A094CA288AF
:1030100061882088FFF734FF1FBD0000C00000203A
:103020009A00002046010020CD000020C8000020AA
:103030000000C842A400002010B50848006840F411
:10304000700006490860FDF7F9FBFFF7BDFE01229D
:103050001146042001F04AFB10BD000088ED00E09D
:1030600010B50548007900F0200008B101F068FAB9
:103070000148007910BD000000A00E4003B4019883
:103080004100009850EAC12018BF04204A0D18BF23
:1030900040F0010040F2FF72B2EB515F08BF40F018
:1030A0000200012808BF052002B0704700000000A0
:1030B0002DE9F04D2DED040B2DED0E8B96B0DDE9D5
:1030C0002550279CDDF890A025F0004624F000480C
:1030D000BAF1000F14BF0121002101EB4502FC49A8
:1030E00053184A1093422AD3002814BF0123002307
:1030F00003EB44030B44F7498B4220D358EA000109
:103100009FEDF59B76D0DFF8D8B35D4503D1BAF1DA
:10311000000F05D188E0BAF1000F08BF002100D0F0
:10312000012101EB450111F5001F08D8002814BF4B
:103130000121002101EB440111F5001F0BD99DED88
:10314000261B9DED240B16B0BDEC0E8B04B0BDE824
:10315000F04D00F069BE0027002DBCBFE149884555
:1031600021DAE1498845A8BF02271CDAC3451ADCE9
:10317000DE4901EB2851142908DDC1F1340220FA9F
:1031800002F101FA02F282420DD108E058B9C1F110
:10319000140228FA02F101FA02F2424503D101F0C9
:1031A0000101C1F1020756EA0A0124D1002C22DAFA
:1031B000002D18BF022F01D0012F0AD00220FDF7E9
:1031C0005AFA16B0BDEC0E8B04B0BDE8F04D00F01D
:1031D00013BE0220FDF74FFA00F00EFE51EC100B6B
:1031E00002F0B0FB41EC100B16B0BDEC0E8B04B03E
:1031F000BDE8F08D18E09FEDBEAB9FEDBF8B0028C2
:1032000071D1B848804522D105F1804010F5801079
:1032100008BFBAF1000F07D0B3450ADC002CA8BFE5
:103220009DED260BE0DA0DE0B0EE490AF0EE690AFA
:10323000DAE7002C06DA9DED260B51EC100B02F0BC
:1032400081FB6FE0AE48784490ED000BCCE7D845A9
:103250004DD1002C48DA2EB186423AD1BAF1000F96
:1032600042D126E0BAF1000F13D00220FDF703FA95
:1032700000F0F6FD8DED020B9DED240B8DED000BA6
:1032800010EE900A039961F31E0003909DED020B6E
:10329000AAE78DED02AB9DED240B1AEE901A10EE0D
:1032A000900A8DED000B61F31E0003909DED020B63
:1032B0009AE78DED028B9DED240B18EE901A10EE1F
:1032C000900A8DED000B61F31E0003909DED020B43
:1032D0008AE709DA9DED240B51EC190B53EC102B06
:1032E00002F02AFC1EE020E09DED240B7CE78642E4
:1032F0001BDAB4F1804F0DD0A4F10050B0F1FF50B3
:1033000013D1002D11DB9DED240B51EC100B02F0BD
:10331000C3F907E09DED240B53EC102B51EC100B7F
:1033200000F0C2BC41EC100B5EE79DED240B51ECAC
:10333000100B00F091FFBAF1000FCDE90E0142D160
:103340009FED710B46B3A6F1E040B0F17F600CD069
:103350005E4538D1002D00DAA7B3022F0CBF012043
:103360004FF0FF3002F06FFDDCE7002D01DD002C97
:103370000DDA002D01DD002C1FDB002D16DA002CEC
:1033800014DB012F08BF9FED620B3FF42DAFB0EEB1
:103390004A0AF0EE6A0A27E7022F18BF002D0CD068
:1033A000012F0AD1002DFFF61FAF06E0002DB8BF98
:1033B000002C08DA012F3FF417AFB0EE480AF0EE08
:1033C000680A11E71BE0012000EBE57050EA0701F5
:1033D00015D0791EB0EE498AF0EE698A084308BF1D
:1033E0009FED4D8B4E480025804570DD4D494E4880
:1033F000884514DDB0420DDB002C19DB2FE00120E5
:10340000FDF739F916B0BDEC0E8B04B0BDE8F04DF8
:1034100000F016BDB34502DC002C09DC1FE086423B
:1034200002DA002C1BDA03E05E452BDD002C16DDF2
:103430000220FDF720F900F013FD8DED020B53EC97
:103440001A2B51EC180B02F065FDCDE90001039930
:10345000019861F31E0003909DED020BC4E602206B
:10346000FDF709F900F00CFD10EE901A18EE900A25
:103470008DED020B8DED008B61F31E0003909DED31
:10348000020BB1E69DED0E0B53EC192B51EC100B1A
:1034900002F04CFF9FED260BCDE9080153EC102BF9
:1034A0009DED080B51EC100B02F034FD9FED221B3B
:1034B00053EC112B02F062FE9DED081B53EC112B17
:1034C00002F028FD9FED1E1B53EC112B3CE08CE01D
:1034D000FFFF1F00FFFF0F00000000000000F03F93
:1034E0000000F03F0000F07F0000404301FCFFFFC0
:1034F000000000000000F07F00000000000000005D
:10350000E63D000000000000000000000000008018
:10351000000000000000F0FF000000000000F0BF0D
:103520000000E0410000F043FFFFEF3F000000001B
:10353000000000000000D03F555555555555D53F6A
:10354000000000000000E03F02F018FE9DED080BB7
:1035500041EC1A0B53EC102B51EC100B02F0DAFC7F
:1035600053EC1A2B02F0D6FC41EC1A0B9FEDFE0B2C
:1035700053EC102B9DED080B51EC100B02F0CAFC24
:1035800041EC1B0B9FEDFA0B51EC1A0B53EC102B7B
:1035900002F0C0FC41EC1A0B9FEDF70B53EC102B23
:1035A0009DED080B51EC100B02F0B4FC53EC1A2B00
:1035B00002F0BCFE41EC1A0B51EC1B0B53EC1A2B26
:1035C00002F0FEF90690CDE906519DED060B53EC95
:1035D0001B2B51EC100B02F0A9FE53EC1A2B02F03E
:1035E000CDFD41EC100B00F0A1B90020B6F5801F15
:1035F0000EDA9FEDE30B53EC102B9DED0E0B51EC0F
:10360000100B02F087FCCDE90E016FF034000E467E
:1036100000EB2650A0F2FF37C6F31300DA4940F062
:103620007F6646F040568842D8BF002408DDD7495F
:103630008142C8BF012403DC0024A6F580167F1C4C
:10364000D348784400EBC4000F9690ED00CB9DED7D
:103650000E0B53EC1C2B51EC100B02F067FE9DED92
:103660000E0B41EC1B0B53EC1C2B51EC100B02F01E
:10367000A7F941EC100B51EC190B53EC102B02F095
:103680005BFA41EC1D0B51EC1B0B53EC1D2B02F0B4
:1036900041FC41EC1A0BBF488DED10AB78441095FE
:1036A00090ED000B4FF0005040EA660000EB8440C4
:1036B0008DED080B00F5002009909DED080B53ECF3
:1036C0001C2B51EC100B02F031FE9DED0E1B53EC48
:1036D000112B02F053FD41EC100B53EC102B9DED20
:1036E000100B51EC100B02F015FC9DED080B41EC9A
:1036F0001C0B53EC102B9DED100B51EC100B02F03A
:1037000009FC53EC1B2B02F039FD53EC1C2B02F08F
:103710000DFE53EC1D2B02F0FDFB41EC1C0B53EC9A
:103720001A2B51EC1A0B02F0F5FB41EC1B0B9A48DB
:103730000621B0EE4B0AF0EE6B0A784400F0E0FA96
:10374000B0EE401AF0EE601AB0EE41DAF0EE61DA57
:1037500053EC1B2B51EC1B0B02F0DCFB53EC1D2B31
:1037600002F0D8FB9DED100B41EC1B0B53EC1A2B18
:1037700051EC100B02F024F953EC1C2B02F0CAFBA5
:1037800053EC1B2B02F01CF99DED100B41EC1B0BB5
:1037900053EC102B51EC100B02F0BCFB41EC1D0B59
:1037A0009FED7FEB53EC1E2B02F00AF953EC1B2B21
:1037B00002F006F90890CDE908519DED080B53EC95
:1037C0001E2B51EC100B02F0B1FD53EC1D2B02F03F
:1037D000ADFD53EC1B2B02F0D1FC9DED080B41EC31
:1037E0001D0B53EC102B9DED100B51EC100B02F048
:1037F00091FB41EC1B0B53EC1A2B51EC1D0B02F00F
:1038000089FB9DED080B41EC1A0B53EC102B51EC8E
:103810001C0B02F07FFB53EC1A2B02F0D1F841ECA9
:103820001A0B51EC1B0B53EC1A2B02F0C9F80C903D
:10383000CDE90C519DED0C0B53EC1B2B51EC100BF7
:1038400002F074FD53EC1A2B02F098FC41EC1B0BB8
:103850009FED550B53EC102B9DED0C0B51EC100B09
:1038600002F058FB41EC1A0B9FED510B51EC1B0B76
:1038700053EC102B02F04EFB41EC1B0B9FED4E0B5B
:1038800053EC102B9DED0C0B51EC100B02F042FB96
:1038900053EC1B2B02F094F841EC100B4848784491
:1038A00000EBC40090ED001B51EC100B53EC112BFE
:1038B00002F086F841EC1B0B384602F0C4FACDE961
:1038C000080153EC1B2B51EC1A0B02F079F841EC78
:1038D000100B3C48784400EBC40090ED00CB51EC59
:1038E000100B53EC1C2B02F06BF89DED081B53ECF6
:1038F000112B02F065F80690CDE906519DED080BFD
:1039000053EC102B9DED060B51EC100B02F00EFD4D
:1039100053EC1C2B02F00AFD53EC1A2B02F006FDAF
:1039200053EC1B2B02F02AFC41EC100B9DED261BE7
:1039300053EC102B8DED001B00959DED260B51ECEB
:10394000100B02F0E7FA9DED000B41EC1A0B53EC63
:10395000102B9DED260B51EC100B02F0E7FC9DEDBA
:10396000061B53EC112B2FE0000000604715F73FBA
:10397000FE822B654715F73F44DF5DF80BAE543EE2
:1039800000000000000040438E9803007AB60B0050
:1039900062390000903900009A38000000000000F1
:1039A0000000000000000840000000E009C7EE3FF2
:1039B000FD033ADC09C7EE3FF5015B14E02F3EBE84
:1039C00026370000E036000002F0A4FA53EC1A2B70
:1039D00001F0F6FF9DED060B41EC1A0B53EC102B9A
:1039E0009DED000B51EC100B02F094FACDE90C01A7
:1039F0009DED0C0B51EC1A0B53EC102B01F0E0FF7A
:103A0000CDE902010C46AA498C422FDB611A08431A
:103A100018D19DED0C0B53EC102B9DED020B51ECCE
:103A2000100B02F083FC41EC1B0B9FEDA30B51EC40
:103A30001A0B53EC102B01F0C3FF53EC1B2B02F0BD
:103A400067FB2DD20220FCF716FE00F009FA10EEFB
:103A5000901A18EE900A8DED020B8DED008B61F33C
:103A60001E0003909DED020BFFF7BEBB944A24F0AD
:103A70000041914214D39349214408437FF4EFACB1
:103A80009DED0C0B53EC102B9DED020B51EC100B2C
:103A900002F04CFC53EC1A2B02F03AFB7FF6DFAC41
:103AA00024F000408849894A002601EB20518242D7
:103AB0002BDA481C4FF4801121FA00F02044844A8C
:103AC000C0F30A517A44A1F2FF3192ED000B814A12
:103AD0008DED080BCA4020EA0202C0F3130040F447
:103AE0008010C1F1140120FA01F60992002CB8BF30
:103AF00076429DED080B53EC102B9DED0C0B51EC19
:103B0000100B02F013FCCDE90C019DED0C0B51ECF8
:103B10001A0B53EC102B01F053FF9FED6F0B089025
:103B2000CDE9085153EC102B9DED080B51EC100B17
:103B300002F0F0F941EC1B0B9FED690B53EC102BDD
:103B40009DED080B51EC100B02F0E4F99DED0C0B10
:103B500041EC1C0B53EC102B9DED080B51EC100BA2
:103B600002F0E4FB53EC1A2B02F008FB9FED5E1B06
:103B700053EC112B02F0CEF953EC1C2B01F020FF7B
:103B800041EC1A0B51EC1B0B53EC1A2B01F018FFF4
:103B9000CDE902019DED020B53EC1B2B51EC100BF8
:103BA00002F0C4FB53EC1A2B02F0E8FA9DED020B75
:103BB00041EC1A0B53EC102B51EC100B02F0AAF94C
:103BC000CDE908014A489DED080B0521784400F035
:103BD00097F89DED081B51EC100B53EC112B02F0E4
:103BE00099F99DED021B53EC112B02F0C7FACDE9B8
:103BF00006019DED020B53EC1A2B51EC100B02F059
:103C000089F953EC1A2B01F0DBFE9FED3B0B41ECE5
:103C10001A0B53EC102B9DED060B51EC100B02F020
:103C200085FB9DED060B41EC1B0B53EC102B9DED22
:103C3000020B51EC100B02F06DF953EC1B2B01F051
:103C40007BFF53EC1A2B02F071FB9DED021B53EC32
:103C5000112B02F06BFB53EC192B02F08FFACDE91C
:103C6000020101EB065001150029C8BF039015DCC5
:103C70009DED020B324651EC100B02F0EEFCFFF70B
:103C8000FDF9042808BF00F0FBF832469DED020B59
:103C900051EC100B02F0E1FCCDE902019DED020BAD
:103CA00051EC180B53EC102B02F034F9FFF73ABB30
:103CB0000000904000000000FE822B654715973CF5
:103CC00000CC904000346F3F01FCFFFF0000E03F5C
:103CD00068350000FFFF0F0000000000432EE63FA4
:103CE000396CA80C615C20BEEF39FAFE422EE63F2B
:103CF0003834000000000000000000000000004018
:103D000070B504462DED028B4D1E00EBC500B0EEE4
:103D1000408AF0EE608A90ED000B35F0060017D077
:103D200053EC182B51EC100B02F0F4F841EC100B93
:103D30006D1E04EBC50090ED001B51EC100B53EC15
:103D4000112B01F03DFE41EC100B35F00600E7D1E0
:103D5000022D36D0042D1CD0062D1CBFBDEC028BCD
:103D600070BD53EC182B51EC100B02F0D3F894ED0E
:103D70000A1B53EC112B01F023FE53EC182B02F01D
:103D8000C9F894ED081B53EC112B01F019FE41EC1E
:103D9000100B53EC182B51EC100B02F0BBF894ED08
:103DA000061B53EC112B01F00BFE53EC182B02F009
:103DB000B1F894ED040B53EC102B01F001FE41EC33
:103DC000100B53EC182B51EC100B02F0A3F894EDF0
:103DD000021B53EC112B01F0F3FD53EC182B02F0F6
:103DE00099F894ED001B53EC112B01F0E9FDBDECAB
:103DF000028B41EC100B70BD9FED070B10B553EC1F
:103E0000102B9FED070B51EC100B01F095FE41ECD0
:103E1000100B10BD000000000000000000000000BA
:103E2000000000000000F03F10B553EC112B51ECE6
:103E3000100B01F0C5FD41EC100B10BD000000009F
:103E40009FED050B10B553EC102B51EC100B01F04E
:103E500073FE41EC100B10BD0000000000000000DC
:103E60009FED050B10B553EC102B51EC100B02F02D
:103E700051F841EC100B10BD000000000000007074
:103E80009FED050B10B553EC102B51EC100B02F00D
:103E900041F841EC100B10BD0000000000000010C4
:103EA00070B50446651115B1012D1ED10EE06748AD
:103EB000C06B40F000606549C8630846806920F027
:103EC000900088610846806988610FE05F48006B58
:103ED00040F000605D4908630846806920F41040A6
:103EE000886108468069886100E000BF00BF3F2C00
:103EF00073D2DFE804F05253A754A7A7A7A7202541
:103F00002A2F34393E4357484D5556A7A7A7A7A790
:103F100058A7A7595AA75B5CA75D5E63686D737865
:103F20007D82878C9196A09BA1A2A3A7A7A7A7A7F4
:103F3000A4A7A7A5A6000021272000F059FF82E032
:103F40000021252000F054FF7DE00021072000F033
:103F50004FFF78E00021082000F04AFF73E00021C5
:103F6000242000F045FF6EE00021232000F040FFF8
:103F700069E00021402000F03BFF64E00021412087
:103F800000F036FF5FE00021982000F031FF5AE09A
:103F90000021992000F02CFF55E000BF00BF00BFBA
:103FA00000BF00BF00BF00BF00BF4CE000BF00BFAC
:103FB00049E00021802000F01BFF44E00021812027
:103FC00000F016FF3FE00021822000F011FF3AE0F0
:103FD0000021832000F00CFF35E033E00021202099
:103FE00000F006FF2FE00021212000F001FF2AE071
:103FF0000021242000F0FCFE25E00021252000F017
:10400000F7FE20E00021262000F0F2FE1BE0002158
:10401000272000F0EDFE16E000212A2000F0E8FE47
:1040200011E000212B2000F0E3FE0CE00021112024
:1040300000F0DEFE07E000BF00BF00BF00BF00BF12
:1040400000BF00E000BF00BF70BD00000080044062
:10405000F0B505460E4600276C113146284600F0A3
:104060001DF800BF0C4850F82400006800F08000E4
:104070008028F7D1084850F82400006987B2064824
:1040800050F82400006820F08000034951F8241003
:1040900008603846F0BD0000F866000030B50A46FA
:1040A000411100F01F030C2404EA820444F0500480
:1040B000074D55F82150AC600424054D55F82150AA
:1040C000EC6043F04004024D55F821502C6030BDA7
:1040D000F86600002848008800283DD1274800786D
:1040E0002749097888421DD026480068401C68B9D5
:1040F0002548007850B901202349087023490870E9
:104100002348008810B9C8202149088000201D4993
:10411000086000BF03E000211E4A1154401C07281C
:10412000F9DB19E017480068401C50B916480078C0
:1041300038B91948007820B90120174908700E498C
:10414000088000200F49086000BF03E00021114AE9
:104150001154401C0728F9DB0748008840F6AC5191
:10416000884207DB0C48007820B100200449087021
:1041700001490880704700005C01002056010020C2
:104180005A01002050010020460100204801002073
:1041900044010020750100205B01002010B5184883
:1041A0000078401C17490978884210D016481449F5
:1041B0000978405C10B9FCF707FF1FE0124810496E
:1041C0000978405C012819D1FCF746FB16E00C4841
:1041D0000078401C0B49097888420FD10A480849E9
:1041E0000978405C10B9FDF7F1F807E0064804498A
:1041F0000978405C012801D1FCF714FD10BD0000D6
:10420000400100203F0100203C010020002323B199
:10421000012B07D0022B0FD109E04FF0937204203D
:1042200054210EE04FF093720420582109E04FF022
:10423000937204205C2104E04FF093720420542117
:1042400000BF00BF024B5A64024B1871597170478E
:10425000008004400040064082B0CDE9000121F01A
:10426000004001909DED000B02B051EC100B704727
:1042700030B50B4630B101280ED0022816D00328E5
:1042800028D11DE0184C34F81040641C544341F20E
:104290008835B4FBF5F11EE0134C34F81040641C73
:1042A00054434FF47A75B4FBF5F114E00E4C34F836
:1042B0001040641C54434FF47A75B4FBF5F10AE0E6
:1042C000094C34F81040641C544341F28835B4FB67
:1042D000F5F100E000BF00BF044C54F820400C345E
:1042E00004EBC304616030BDE803002000670000F8
:1042F0002DE9F05F04460E4692461F4631462046A1
:10430000FDF746FD444800684FF47A71484300FBCE
:1043100001FB4FEA1B40B0FBFAF54FF0000803E049
:1043200008F1010000F0FF0845FA08F00128F7DA6B
:10433000B8F1070F01DDBDE8F09F2BFA08F0B0FBE4
:10434000FAF085B2354820F8145034B1012C0ED063
:10435000022C16D0032C28D11DE02846401C78439F
:1043600041F28831B0FBF1F01FFA80F91EE02846D7
:10437000401C78434FF47A71B0FBF1F01FFA80F9DA
:1043800014E02846401C78434FF47A71B0FBF1F0FA
:104390001FFA80F90AE02846401C784341F2883130
:1043A000B0FBF1F01FFA80F900E000BF00BF1C482D
:1043B00050F8240085601A4850F824000C3050F85A
:1043C000360020F00401164850F824000C3040F864
:1043D00036102821124850F824000C3040F83610CE
:1043E00008F0070040F008000D4951F8241008605B
:1043F00000200B4951F82410C864094850F82400E3
:104400000C3000EBC600C0F804900020044951F8BD
:104410002410486000BF8EE784010020E8030020DC
:104420000067000000202FE023490A5C0B46411C76
:10443000595C511A00EE101AB8EEC00A1F4901EB80
:10444000800181ED000A1D4901EB800191ED000A18
:10445000B5EEC00AF1EE10FA05DD19490978491CDC
:10446000174A11700EE0154901EB800191ED000A29
:10447000B5EEC00AF1EE10FA04D212490978491CCF
:10448000104A1170411CC8B20528CDDB0C480078D9
:10449000032803DB01200C4908600BE00948007881
:1044A000032804DB4FF0FF300749086002E00020DA
:1044B0000549086070470000B40000206003002038
:1044C000BA000020BB000020BC00002010B5174837
:1044D000407900F01F001030322110FB01F1134829
:1044E000007900F00700401CB1FBF0F040081049D3
:1044F00008601048406C012101EB10700C490968FC
:10450000B1FBF0F00C4908600A48406CC0F303604E
:10451000401C07490968B1FBF0F0084908604FF4F6
:10452000E131022001F002F910BD00000040064018
:104530007C010020008004408001002084010020D4
:1045400010B55648564A12688118042001F0DCF86C
:1045500053480068401C5249086050480078592868
:1045600002D00020086010BD4D480068012807DD1A
:104570004A484078592803D0002049490860F2E7AA
:1045800047480068092842D100204549086045494C
:10459000087000BF08E04149095C424A12781144A2
:1045A000404A1170411CC8B20828F4DB3B48007A2D
:1045B0003C49097888422AD138488178C07801EB93
:1045C00000203949088008460088C82801DDC82035
:1045D00008803548008835490988401A00B23449B6
:1045E000088031480088314908803148B0F900001E
:1045F000002809DC2E48B0F9000010F1070F03DD98
:1046000001202C49088002E000202A49088029481E
:104610000088C0B3284880892749C8810846408956
:1046200088810846008948810846C0880881084674
:104630008088C8800846408888800846008848806E
:1046400019480088088000201A4908801A48008804
:104650005A2819DC184840885A2815DC16488088E2
:104660005A2811DC1448008832280DDB1248408893
:10467000322809DB10484088322805DB4FF0FF3034
:104680000E49086007E003E000200C49086002E0E2
:1046900000200A49086000BF65E700003C030020D5
:1046A00094000020980000209A0000209C00002028
:1046B0009E000020A2000020D8030020500100200E
:1046C0000CB501464811019001F01F00009006480A
:1046D0009DF8042050F8220000699DF80020D04089
:1046E00000F001000CBD0000346700007CB54311F0
:1046F000019300F01F0300932E4B9B6B9DF8045019
:104700004FF40074AC4023432A4CA3632A4C9DF819
:10471000045054F825409DF8005004EB85031C68B4
:1047200024F4E0641C60244C9DF8045054F82540A7
:104730009DF8005004EB85031C6844F480741C60F1
:1047400071B11E4C9DF8045054F8254004F1140337
:1047500064699DF800600125B5402C431C600DE0A4
:10476000164C9DF8045054F8254004F11403646974
:104770009DF800600125B540AC431C60C9B162B131
:104780000E4C9DF8045054F825301C689DF80060CC
:104790000125B5402C431C600BE0084C9DF80450EB
:1047A00054F825301C689DF800600125B540AC43E5
:1047B0001C607CBD0080044020670000346700005E
:1047C0003CB54211019200F01F02009261B10D4B05
:1047D0009DF8044053F8242013689DF800500124EC
:1047E000AC40234313600BE0064B9DF8044053F8A4
:1047F000242013689DF800500124AC40A3431360AB
:104800003CBD0000346700000CB54111019100F07F
:104810001F0100919DF8002001219140034A9DF85D
:10482000043052F82320D1600CBD00003467000032
:1048300010B52DED068B8F48007801281FD18E48CA
:10484000008880B940F6B2408C49088040F64E405E
:104850008B4908809FED8B0A8B4880ED000A012070
:104860008549088003E184480088B0F5AF7FF9DB13
:1048700002208049087000207F490880F7E07D48C9
:104880000078022816D17C48008840B99FED7F0A45
:104890007D4880ED000A012077490880E7E07648EE
:1048A00000882828DEDB0320724908700020724946
:1048B0000880DCE06F480078032817D16E48008834
:1048C00040B99FED730A704880ED000A01206A49E3
:1048D0000880CCE068480088B0F5C87FC2DB0420BF
:1048E00064490870002064490880C0E0614800788D
:1048F000042816D16048008840B99FED640A6248D8
:1049000080ED000A01205C490880B0E05A48008828
:104910006428A7DB05205749087000205649088005
:10492000A5E054480078052816D15348008840B9BE
:104930009FED580A544880ED000A01204E49088036
:1049400095E04D480088FA288CDB0620494908701C
:104950000020494908808AE04648007806280AD1A4
:104960004548008840B99FED490A474880ED000A54
:104970000120414908807AE03F480088B0F5617F16
:104980004ADA4549088801F075FA41EC1A0B9FEDA7
:10499000430B53EC102B01F0BDFA41EC180B4149CD
:1049A000088801F067FA41EC190B53EC182B01F061
:1049B000AFFB31D93849088801F05CFA41EC1A0B99
:1049C0009FED360B53EC102B01F0A4FA41EC180BC1
:1049D0003449488801F04EFA41EC190B53EC182B7E
:1049E00001F096FB18D92C49488801F043FA41ECB4
:1049F0001A0B9FED2A0B53EC102B01F08BFA41ECB4
:104A0000180B2849888801F035FA41EC190B53EC52
:104A1000182B01F07DFB2AD8002023490870164985
:104A20000880144908709FED190A174880ED000AA4
:104A30000A20FFF745FE30B940F68C200F49088068
:104A40000F4908800AE00A20FFF73AFE012805D145
:104A500040F6F61009490880094908801348007893
:104A6000401C124908704FF47A7011490880BDEC5F
:104A7000068B10BD480100204A01002034010020AF
:104A80003601002000808944F4000020000000006E
:104A900000002FC400803BC4C0000020666666662C
:104AA0006666E63FA4000020460100205601002073
:104AB0005401002010B52DED028B1748006801F05D
:104AC0001FFD41EC180B9FED150B53EC102B01F063
:104AD000E5F912D81048006801F012FD41EC180BFE
:104AE0009FED100B53EC102B01F012FB05D80F4873
:104AF0000088401C0D49088004E000200B49088014
:104B00000B49087009480088052802DD0120084982
:104B10000870BDEC028B10BDC80000209A999999CD
:104B20009999C93F9A9999999999C9BF5E010020AD
:104B300060010020FDF7CCFF01207B490870F2E006
:104B4000FCF720FE79A200210846FDF76BFC7948AE
:104B5000008800EE900AF8EE600AB0EE600A0023CA
:104B6000032219462020FDF7DDF973A20121002060
:104B7000FDF758FC6F48408800EE900AF8EE600A96
:104B8000B0EE600A0023032201212020FDF7CAF9BC
:104B90006BA202210020FDF745FC6648808800EEEC
:104BA000900AF8EE600AB0EE600A002303220221A8
:104BB0002020FDF7B7F900206349086004E062484F
:104BC0000068401C604908605F4800685F4988428F
:104BD000F5DB5F480078012807D15E480088B0F512
:104BE000FA6F02DB01205C490870594800780128FF
:104BF0001ED15A480078D8B957480078C0B14A2029
:104C0000FFF75EFD18B14B20FFF75AFD80B9012078
:104C10005249087000205249087041F288305149C9
:104C20000880514908809FED510A514880ED000AE3
:104C300050480078002876D045480078012872D185
:104C400000204C4908704C48007870B100204A4957
:104C500008704448028801210320FFF709FB4248FD
:104C6000028803210846FFF703FB4448007828B177
:104C7000002042490870012036490880FCF782FD77
:104C800034480088C8284CDD3D48008810B9012010
:104C90003B4908803B480078E0B339480088C82881
:104CA00038DB39480078052818DA22490988214A72
:104CB0005288881800EBD071344A128802EB6101E7
:104CC000324A1180104640881A49898808441146A2
:104CD00048802D480078401C2B4908702A480078ED
:104CE000052817D129480088052190FBF1F02749B4
:104CF000088008464088052190FBF1F02349488050
:104D000008460088224908802048408848800020C2
:104D10001C4908701B48007808B9FFF73FFAFDF7F7
:104D200063FDFEF75BF90BE7560100204C5F496E0F
:104D30003A000000A4000020525F496E3A000000D3
:104D40004D5F496E3A0000001800002080969800E0
:104D5000690000200A0000201400002061010020EA
:104D60000101002034010020360100200000000075
:104D7000F40000200400002011000020100000209A
:104D80000C000020CC00002013000020C4000020F4
:104D9000C0000020134AD26B42F40002114BDA63C8
:104DA0000022114B1A60114A02EB001211600F4AE7
:104DB00002EB0012D26842F001030C4A02EB00122F
:104DC000D3600A4A02EB0012926822F00103074AFC
:104DD00002EB001293600323044A02EB001293607B
:104DE00070470000008004400070034000710340E1
:104DF0003CB54211019200F01F020092164A926BDC
:104E00009DF804404FF40073A3401A43124B9A6379
:104E10009DF8003001229A40104B9DF8044053F851
:104E20002430C3F8A0200D4A9DF8043052F8232006
:104E30009DF8003042F82310094B9DF8044053F8C8
:104E4000243003F114025B699DF800500124AC404A
:104E5000A34313603CBD000000800440586700007D
:104E60006C6700001CB54211019200F01F02009215
:104E70000F4A926B9DF804404FF40073A3401A430D
:104E80000B4B9A630B4A9DF8043052F823209DF88F
:104E9000003052F8232002F4E0620A43054B9DF8EB
:104EA000044053F824309DF8004043F824201CBDF2
:104EB000008004405867000010B52DED088BFE48B7
:104EC00090ED000AB8EE400ADFEDFC0A80EE201AF1
:104ED00011EE104A204601F013FB41EC1B0B9FED35
:104EE000F80B53EC102B01F015F841EC1A0B9FED69
:104EF000F60B53EC102B01F00DF841EC190B9FED64
:104F0000F40B53EC102B01F005F841EC180B00F0FA
:104F100025FDF1490860E84890ED010AB8EE400A25
:104F2000DFEDE60A80EE201A11EE104A204601F06D
:104F3000E7FA41EC1B0B9FEDE40B53EC102B00F058
:104F4000E9FF41EC1A0B9FEDE50B53EC102B00F041
:104F5000F3FD41EC190B9FEDE30B53EC102B00F02C
:104F6000EBFD41EC180B00F0F9FCE0490860D24879
:104F700090ED020AB8EE400ADFEDD00A80EE201A6A
:104F800011EE104A204601F0BBFA41EC1B0B9FEDDD
:104F9000CE0B53EC102B00F0BDFF41EC1A0B9FED34
:104FA000D40B53EC102B00F0B5FF41EC190B9FED27
:104FB000D20B53EC102B00F0BFFD41EC180B00F0AE
:104FC000CDFCCF490860CF4890ED000A0846D0EDEF
:104FD000000A20EE200ACB48D0ED000AB7EE001AF6
:104FE00071EE600AC84890ED001A00EE810A08468A
:104FF00080ED000AC34890ED000AB748D0ED000AE2
:1050000020EE200ABF48D0ED000AB7EE001A71EE7C
:10501000600ABE4890ED001A00EE810AAE4880EDAD
:10502000000AB84890ED000AB048D0ED000A20EE22
:10503000200AB448D0ED000AB7EE001A71EE600AFB
:10504000B34890ED001A00EE810AA84880ED000AEE
:10505000A14890ED000AA548D0ED000A20EE200AF4
:10506000AC4880ED000AAC4890ED010A80ED020AE0
:1050700090ED000A80ED010A974890ED000AA648DD
:1050800080ED000A90ED000AD0ED010AB4EEE00ACE
:10509000F1EE10FA20D290ED010AD0ED020AB4EE42
:1050A000E00AF1EE10FA17DD90ED010ABCEEC00A3D
:1050B00010EE100A99490880974890ED000ABCEE5E
:1050C000C00A10EE100A9649088001209549087020
:1050D00000209549087084E08F4890ED000AD0EDDB
:1050E000010AB4EEE00AF1EE10FA15D890ED010ACB
:1050F000D0ED020AB4EEE00AF1EE10FA0CD88948BD
:10510000007848B1844890ED000ABCEEC00A10EE69
:10511000100A8349088064E07F4890ED000AD0EDD2
:10512000010AB4EEE00AF1EE10FA26DD90ED010A74
:10513000D0ED020AB4EEE00AF1EE10FA1DD879487B
:105140000078D0B175490988754A1288881A00F02C
:105150007AFE41EC180B9FED750B53EC102B00F011
:10516000D7FF3ED20120704908706C4800786C4926
:105170000978401A6F49087033E0674890ED000ADB
:10518000D0ED010AB4EEE00AF1EE10FA20D290ED73
:10519000010AD0ED020AB4EE600AF1EE10FA17D15E
:1051A00090ED010ABCEEC00A10EE100A5B490880BF
:1051B000594890ED000ABCEEC00A10EE100A58499A
:1051C000088001205749087000205749087008E0FE
:1051D00000205549087053490870504908805049CB
:1051E000088055480088082804DCB0EE000A5348BF
:1051F00080ED000A50480088082808DD4E480088E5
:10520000282804DC9FED4E0A4C4880ED000A4A48ED
:105210000088282808DD48480088C82804DC9FED5D
:10522000490A464880ED000A43480088C82808DD3E
:1052300041480088FA2804DC9FED430A3F4880ED8E
:10524000000A3D480088B0F5967F09DD3A4800889D
:10525000B0F5AF7F04DC9FED3D0A384880ED000AD1
:1052600035480088B0F5AF7F09DD33480088B0F5D8
:10527000C87F04DC9FED360A304880ED000A2E48D6
:105280000088B0F5C87F09DD2B480088B0F5E17FC4
:1052900004DC9FED300A294880ED000A264800888A
:1052A000B0F5E17F5CDD24480088B0F5EE7F57DA89
:1052B0009FED290A214851E00403002000008047A7
:1052C00085EB51B81E85EF3F6666666666660A40E6
:1052D0002EBAE8A28B2E24402800002000000000F7
:1052E000000034407B14AE47E17A943F2400002054
:1052F00000000000000037400000000000000840EF
:10530000300000201C0000203C000020380000205D
:10531000340000202C000020100300206A00002030
:105320006C000020700000206F00002000000000D2
:10533000000004406E0000206400002054000020A3
:105340000000B44200005C430000344300001643F8
:105350000000F0420000A0420000204280ED000A60
:105360009A480088B0F5EE7F09DB98480088B0F5D0
:10537000FA7F04DCB2EE040A954880ED000A9348F7
:105380000088B0F5FA7F0ADD9048008840F20D21D0
:10539000884204DCB1EE0C0A8D4880ED000A8B488F
:1053A000008840F20D2188420ADD8848008840F2DA
:1053B0002621884204DCB1EE080A854880ED000A07
:1053C0008248008840F22621884209DD7F48008813
:1053D000B0F5167F04DCB1EE000A7D4880ED000ACE
:1053E0007A480088B0F5167F09DD78480088B0F566
:1053F0002F7F04DCB0EE080A754880ED000A734880
:105400000088B0F52F7F04DDB0EE080A704880ED0B
:10541000000A704890ED000AB5EEC00AF1EE10FAED
:105420000AD16D4890ED000A6948D0ED000A30EECF
:10543000200A694880ED000A6848007800B368488F
:1054400090ED000AF0EE000AB4EEE00AF1EE10FA78
:1054500016DD5E480088B0F5FA7F11DD5E48006811
:1054600001F04EF841EC190B9FED5E0B53EC102B45
:1054700000F050FD41EC180B00F070FA564908603E
:105480005A4890ED000A5248D0ED000A20EE200A5A
:105490005748D0ED000A504890ED001A00EE810AFE
:1054A000544880ED000A90ED000ABCEEC00A10EEF0
:1054B000100A80B200EE100AB8EE400A4D4880EDA6
:1054C000000A90ED000ADFED4C0AB4EEE00AF1EEBE
:1054D00010FA05DBB7EE000A3E4880ED000A04E052
:1054E0009FED460A3B4880ED000A424890ED000AD5
:1054F000DFED410AB4EEE00AF1EE10FA04DD9FEDB3
:105500003E0A80ED000A0BE03A4890ED000AB5EE45
:10551000C00AF1EE10FA03D29FED380A80ED000ABE
:10552000344890ED000ABCEEC00A10EE100A80B2BA
:1055300000EE100AB8EE400A2E4880ED000A90ED09
:10554000000ABCEEC00A10EE100A204908802C4860
:105550000078B0B9224890ED000A2A48D0ED000A40
:10556000B4EEE00AF1EE10FA04DB27480088401C94
:105570002549088024480088282802DB012020498A
:1055800008701F480078012802D100200F490880C8
:105590000E48008800EB800204210020FEF768FE20
:1055A0000F4890ED000A194880ED000A184890ED68
:1055B000000A184880ED000A174890ED000A1748C5
:1055C00080ED000ABDEC088B10BD000064000020D7
:1055D0005400002060000020580000206F000020D0
:1055E0003000002083C0CAA145B6EF3F480000202C
:1055F0004C0000205C00002000006144000000001E
:105600006900002020000020400000203C00002015
:105610002800002038000020240000203400002052
:1056200010B52DED028BB0EE408A1748008800EED1
:10563000100AB8EE400A30EE480A144880ED000A1D
:105640001348008800EE100AB8EE400A30EE080A4F
:10565000104880ED000A0D4890ED000ABCEEC00A2B
:1056600010EE102A01210320FEF702FE094890EDFA
:10567000000ABCEEC00A10EE102A03210846FEF70D
:10568000F7FDBDEC028B10BD340100201401002099
:10569000360100201801002000B52DED048B83B0E9
:1056A00041EC190B00F076FD41EC180B18EE100AD6
:1056B00018EE901A8DED008B002818BF01200843CA
:1056C00020F00040C0F17F6000F1E040C00F14D036
:1056D00019EE101A19EE900A8DED009B002918BFE3
:1056E0000121084320F00040C0F17F6000F1E0405C
:1056F000C00F04BF0120FAF7BEFF51EC180B03B036
:10570000BDEC048B00BD000000BF074A52F820200A
:10571000127902F02002002AF7D0034A52F8202022
:10572000D2790A7070470000880100203EB5044617
:105730000D46052C59D2DFE804F003142536470046
:105740006B48406B40F48060694948634FF4407196
:105750006620FFF74DFB4FF440716720FFF748FBD1
:1057600044E06348406B40F40060614948634FF493
:1057700040718120FFF73CFB4FF440718020FFF720
:1057800037FB33E05A48406B40F480505849486337
:105790004FF440716320FFF72BFB4FF44071622000
:1057A000FFF726FB22E05248406B40F4005050497E
:1057B00048634FF440712A20FFF71AFB4FF4407101
:1057C0002B20FFF715FB11E04948806A40F4806008
:1057D000474988624FF440714E20FFF709FB4FF4B0
:1057E00040714F20FFF704FB00E03EBD00BF414881
:1057F00050F82400C07820F00C003E4951F82410E5
:10580000C8703C4850F8240080783A4951F8241078
:1058100088700CB1012C05D13748006837494843DE
:10582000029004E036480068344948430290280159
:105830000299B1FBF0F080B201900198B0F5005FE1
:1058400002D341F6FF70019002984000B0FBF5F1E1
:105850000198A1EB4010009000981F2801D91F204B
:105860000090244850F82400007820F01F002149BF
:1058700051F8241008701F4850F82400007801994E
:10588000C1F3042108431B4951F824100870194939
:1058900051F8241001984870164850F82400807A76
:1058A00020F01F00134951F824108872114850F855
:1058B0002400807A009901F01F0108430D4951F836
:1058C000241088720B4850F82400007C40F08800B7
:1058D000084951F824100874064850F82400C0788C
:1058E00040F00C00034951F82410C87000BF7CE759
:1058F00000800440880100208001002040420F0009
:105900008401002030B505460B46144604E01978A2
:10591000284600F007F85B1C201EA4F10104F6D114
:1059200030BD000000BF064A52F82020127902F074
:105930008002002AF7D0024A52F82020D171704725
:105940008801002081F00041704780F000407047DE
:1059500021F00041704720F00040704721F00042E4
:10596000A2F16052B2F5801F01F0004328BFD2F1CE
:105970007F6C0BD95FEA001C43EAC20242EB507015
:1059800018BF704728BF20F001007047B2F5801F94
:10599000BCBF184670474FEA410C1CF5001F02D2ED
:1059A000084600F023BE70B500F05EFB00000089E1
:1059B000FFF7F6BF4FF00040A0F5800070470000F1
:1059C00010B591EA030F48BF83F0004300F1B6849D
:1059D000841A71EB030C05D2121943EB0C03001B64
:1059E00061EB0C01DFF824E14FEA1154A4EB135CE6
:1059F0001EEA430F18BF9EEA445F73D023EA0E03EA
:105A0000DCF1200E21EA045143F4801332D322FA50
:105A10000CFE10EB0E0023FA0CFE41EB0E01CCF154
:105A2000200E03FA0EFE10EB0E0051F10001B1F54D
:105A3000801FCCF1200E32D201EB045112FA0EF28B
:105A4000BDE8104058BF7047401C38BF5FEA4202B3
:105A500018BF7047002814BF20F0010041F1000179
:105A60004FEA410313F5001F38BF7047A1F1C04151
:105A700000F048BB012A43EB0302ACF1200CDCF13F
:105A80001F0E32BF4FF0000E23FA0CF310EB030091
:105A900041EB0451B4EB115FD0D0A1EB045101F5FF
:105AA000801149085FEA300001EB04510ED350F138
:105AB000000038BF12FA0EFE08D1BDE81040C9E759
:105AC000401C38BF5FEA4202CAD1C3E7BDE81040BC
:105AD0004FEA410313F5001F38BF7047A1F1C041E1
:105AE00000F010BB9EEA445F08D011EA5E0FBDE8EB
:105AF000104004BF01F0004100207047BDE8104095
:105B000070B500F0B1FA00BF64FBBE3E0000E0FFDC
:105B100002494FF0000000F06EBD00BF0000F87FAA
:105B2000491058BFC1F140415B1058BFC3F1404319
:105B30008B42EFF3008070472DE9C04130B4DFF8AD
:105B4000A0C23CEA111418BF3CEA131400F0EC8028
:105B500081EA03051CEA111444EAD57418BF1CEA53
:105B6000131500F0C780A4EB05044FF0004545EA8B
:105B7000C12145EAC32341EA505143EA525304F19B
:105B80007F74994204F500344FEAC0204FEAC222E4
:105B900008BF904200F09C804FEA13650FF2401658
:105BA000765D4FEA134506FB05F7C7F1807706FBE4
:105BB00007F74FEAD737A7FB03687642C8F5803866
:105BC000A7FB06CE38BFA8F1010807FB08E64FF097
:105BD000000EA6FB028CE6FB03CEDCF1000CCEF13E
:105BE000004E38BFAEF1010EA6FB0C584FF0000777
:105BF0004FF00005E6FB0E87A1FB08C6A0FB07CE11
:105C000016EB0E0645F10005E1FB076515F1E04EC8
:105C10007EBFA4F580345FEA46066D4116F1800729
:105C200045F100054FEA17274FEA066647EA056780
:105C3000A6F1DE46B6F1805F4FEA15251FD938463A
:105C400024F0010C05EBC471BCF1FE6F01EB0C11EB
:105C500002D8F0BCBDE8008124425CBF01F5801E83
:105C60009EEAC47F02D4F0BCBDE80081244238D44F
:105C7000F0BCA1F1C041BDE8004100F043BA4FEAD9
:105C8000D22242EA43524FEAD323A7FB02864FEACD
:105C9000D02040EA415007FB03661EEA0E0F4FEA90
:105CA000D12105FB026658BFA6EB0056B6EB0056A5
:105CB0004FEA520E4EEAC37E18EB0E0E56EB530E11
:105CC000BDD518EB02085E417F1C55F10005B6E713
:105CD0004FF480154FF000074FF000064FF000081A
:105CE000ADE7F0BC4FF0000001F1C04101F0004110
:105CF000BDE8008111EA0C1F0CEA131500D00CE07E
:105D000013EA0C1F00F025804FF00000F0BC81EA80
:105D1000030101F00041BDE80081F0BCBDE8004195
:105D200081EA030100F0EEB9F0BCBDE8004170B5B6
:105D300000F09AF9097EFC3E00F007B881EA030101
:105D40004FF0000001F00041704781EA030100F0CC
:105D5000D9B9F0BCBDE800414FF0000021497047BF
:105D6000FFFDFBF9F7F5F4F2F0EEEDEBE9E8E6E420
:105D7000E3E1E0DEDDDBDAD8D7D5D4D3D1D0CFCDA7
:105D8000CCCBCAC8C7C6C5C4C2C1C0BFBEBDBCBBE0
:105D9000BAB9B8B7B6B5B4B3B2B1B0AFAEADACABDB
:105DA000AAA9A8A8A7A6A5A4A3A3A2A1A09F9F9EB5
:105DB0009D9C9C9B9A999998979796959594939367
:105DC000929191908F8F8E8E8D8C8C8B8B8A8989FE
:105DD0008888878786858584848383828281818081
:105DE0000000FF070000F87F4FEA41034FEA5353DA
:105DF000A3F58063D3F11E03C8BFD3F1210C0CDDE2
:105E00004FF0004242EAC12242EA505232FA03FC09
:105E10008CEAE17CACEBE1707047102BC4BF002032
:105E2000704703F5787CBCF1FF3F04D06FF000426F
:105E300082EA2100704770B500F016F9499224807B
:105E400000207047F2E710F0004248BF4042B0FA2D
:105E500080F310FA03F10AD0C3F11D0303F5806348
:105E60004FEA415002EB035202EBD12170474FF051
:105E700000007047B0FA80F310FA03F10AD0C3F1C2
:105E80001D0303F580634FEA41504FEA035202EBD2
:105E9000D12170474FF000007047000051EA030C19
:105EA00017D41CF5801F58BFBCF5801F00F1068079
:105EB000994218BF704708BF9042704707D711F545
:105EC000801F58BF13F5801F19D49942704789422B
:105ED00070471CF5801F08D5BCF5801FF7D58B4295
:105EE00018BF704708BF824270474FF4001C1CEB7C
:105EF000410F38BF1CEB430F01D28B42704770B586
:105F000000F0B2F8922449004FF000514FF0805356
:105F1000FFF706BEDFF848C170B51CEA111E1EBFB0
:105F20001CEA13159EEA0C0F95EA0C0F00F06F8027
:105F300081EA030423EA4C134EEAD47E21EA4C1191
:105F400041F4801143F48013AE44A1FB024CA0FB4A
:105F50000365AEF17F7E361955EB0C05A1FB034CB2
:105F60004CF10003A0FB021C16EB0C06654153F13B
:105F70000003094218BF46F0010613F4007F0BD15D
:105F80004FEA03314FEA0530340341EA155140EA44
:105F900016506FF003020AE04FEAC3214FEAC52012
:105FA000F40241EA555140EA56506FF0020202EB0A
:105FB0002E4201EB025585EACE710AD05FEA440C0D
:105FC00018BF24F0004450F1000041F1000120EA24
:105FD000D47040F2FE7C624500D270BDA84214BF6E
:105FE0004FF080444FF04044002E08BF0024BEF123
:105FF000806FA8BFA1F1C041BDE8704080F28280EF
:106000004FF0000001F1C04101F0004170479EEAED
:106010000C0F0CEA131518BF95EA0C0F06D04FF0C1
:10602000000081EA030E0EF0004170BD00F01CF884
:106030008900013E00F007B800F009B84FEA430CB0
:106040005FEA5C5C08D081EA030100F05BB84FEACC
:10605000410C5FEA5C5CF6D14FF0000001497047EB
:106060000000FF070000F87F0EF1020E2EF0030E75
:106070005EF8046B364205D4012A43EB030515F59F
:10608000001F12D8012841EB010C1CF5001F0CD891
:106090000ED14FEAD17C15F5001F0CEB4C0C0CF126
:1060A000020C08BF4CEBD37C04E04FF0080C01E07D
:1060B0004FEAD37C0CEB4C0526FA05F606F00706F2
:1060C000B6F1040C06D20EEB860CBDE870404CF025
:1060D000010C6047DFE80CF0090B02024FF00041B1
:1060E0004FF00000A1F5002170BD194610460128AF
:1060F00051EB010418BFD4F5001484BF002001F057
:10610000004170BD0808A0F500114FEA3101704749
:1061100053EA010C17D41CF5801F58BFBCF5801F33
:1061200000F106808B4218BF704708BF824270475B
:1061300007D713F5801F58BF11F5801F19D48B4264
:1061400070479B4270471CF5801F08D5BCF5801F27
:10615000F7D5994218BF704708BF904270474FF477
:10616000001C1CEB430F38BF1CEB410F01D29942BE
:1061700070470FB40CBC03BCFFF7C1BE91EA030F1C
:1061800010B581F000413FF523AC83F0004300F0EF
:10619000D5B800002DE9F04101F5801CBCF5001FC9
:1061A000C0F2A9804FEA115C21EA0C510CF1FD0C00
:1061B00041F480115FEA5C0C0CF5C07C01D3400017
:1061C000494130A4890241EA905187028E0E0A0C9F
:1061D000A45D04FB04F602FB06F6C6F14046A4FBF0
:1061E0000662F60D46EA422606FB06F4A4FB0123EE
:1061F0005242C3F1404338BF5B1EA6FB024200245B
:10620000E6FB0324D20B42EA4446A6FB0623A1FB8D
:1062100002E2A3FB07E4E3FB61426442C2F1404EA9
:1062200038BFAEF1010EA6FB04234FF00002E6FBDF
:106230000E32A2FB03463400E2FB6264A1FB06E6D9
:10624000A4FB07E8E4FB61687642C8F1405838BF18
:10625000A8F10108A2FB06E4A3FB08E5E2FB6854F1
:10626000A1FB05E6A7FB04E8E1FB648618F1200525
:1062700056F10006A809A8F11B08B10908F03F086B
:10628000B8F10A0F40EA86601CD901EB0C51BDE859
:10629000F08100BFFCF5EEE8E2DDD8D3CFCBC7C379
:1062A000C0BDB9B6B4B1AEACA9A7A5A3A19F9D9B33
:1062B0009A9896959392908F8D8C8B8988878685F6
:1062C00084838281A0FB006800FB01F208EB420896
:1062D000B8EB872807D5341858EB0104D5D5401CF6
:1062E00051F10001D1E7341A78EB0104CDD4401EFE
:1062F00071F10001C9E75FEA4C0C5FEA9C5C0DD1CB
:1063000005D34FF0000001F00041BDE8F081BDE889
:10631000F04170B5FFF7A8FE6DDBFFBEBDE8F041B0
:106320004FF00000004970470000F87F10B591EA77
:10633000030F48BF83F000433FF54AAB841A71EB6B
:10634000030C07D212198CF0004C43EB0C03001B1A
:1063500061EB0C01DFF8A4E14FEA1154A4EB135CEC
:106360001EEA430F18BF9EEA445F00F0B08023EAA4
:106370006E03524221EA0451C3EB6E0338BF5B1E29
:10638000DCF1200E25D322FA0CFE10EB0E0043FAAE
:106390000CFE41EB0E01CCF1200E03FA0EFE10EBC9
:1063A0000E0051F10001CCF1200E29D412FA0EF2A8
:1063B00001EB0451BDE8104058BF7047401C1CBFA2
:1063C000B2F1004F704700280CBF491C20F00100BB
:1063D000704712EB020E43EB030218BF4FF0010EA1
:1063E0004EEA4202ACF1200CDCF11E0E54D943FA05
:1063F0000CFE10EB0E0051F1FF31CCF11E0ED5D585
:106400000EF1010E12FA0EFE404141EB010101EBCB
:10641000445C5FEA5C5C10D910EBDE7001EB045168
:1064200038BFBEF1004FBDE8104018BF70470028CC
:106430000CBF491C20F00100704730D24FEAD42C29
:1064400011F5001124F400641BD0B1FA81F20B3A6B
:10645000A41AA41ED2F12003914030FA03F3194389
:10646000904001EBCC71002C01EB0451BDE81040D1
:10647000A8BF704701F1C0414FF0000001F000419A
:106480007047B0FA80F310FA03F100D110BDE41A9E
:10649000173C4805C90AE4E701EB045110BD491057
:1064A00001EB0451BDE810404FEA300002E04FF02C
:1064B000000170474A0008BF0042F8D0B2F5001F43
:1064C00028BF704701F000414FF0000070479EEA7E
:1064D000445F07D011EA5E0FBDE8104004BF002101
:1064E00000207047BDE8104070B5FFF7BDFD00BF4C
:1064F00040DFF63E83F00041104670470000E0FFA9
:1065000043004FEAD30C4FEA3C0C43401FBF400707
:106510000CF1605113F0FE4F70471CF0006F03D177
:1065200000200CF0004170470CF0004343EA50702B
:1065300010B540EACC0000F00EF800BF0000009259
:106540004FEA0001FFF7DEBD4FF000414FF00000C1
:10655000A1F5002170470EF1020E2EF0030E5EF839
:10656000044B244204D44FEA4102B2F17F4F11D8C8
:106570004FEA4003B3F17F4F0CD80ED14FEAD07CE5
:10658000B2F17F4F0CEB4C0C0CF1020C08BF4CEB42
:10659000D17C04E04FF0080C01E04FEAD17C0CEB19
:1065A0004C0324FA03F404F00704B4F1040C06D2FB
:1065B0000EEB840CBDE810404CF0010C6047DFE8A6
:1065C0000CF0070802024FF00040A0F5800010BD5B
:1065D0000846420018BFD2F1807288BF00F0004028
:1065E00010BD4FF04070E1EE100A7047FF2141EA04
:1065F000D050C00570470CF00F03092B08BF0820CE
:1066000000F059800A2B0BD0082B18BF704708BF29
:106610001CF0400F0AD04FF000004FF0000170470F
:106620001CF0400F18BF4FF0004070471CF0100FD7
:1066300008D020F0704300F07F4242EAD3014FEAD5
:106640004370704700F0604021F07F4242EA000250
:1066500001F07F4040EA727070474FF0FF0C4CF43D
:10666000E06C1CEA11531CBF9CEA030C9445C2BFAA
:10667000DA4201EB02517047002B0DD0BCF1000F44
:106680000FD0002A01F00041A4BF41F0E04141F0E9
:106690007F614FF00000704701F000414FF00000B3
:1066A000704750EA01334FF09B0C18BF4CF0806CE0
:1066B0007FF42EAA70471CF4801F11D01CF4E02F29
:1066C00003D06FEACC31490070474FF04050EFF3F0
:1066D000008222F0704242EA000282F30088704792
:1066E0004FF000007047000000800340009003401E
:1066F00000A0034000900B4000B0034000B00B40EE
:10670000008003400090034000A0034000900B4035
:10671000008003400090034000A0034000900B4025
:106720000090044000A0044000B0044000C00440B9
:1067300000D0044000F00F4040F00F4080F00F40C8
:10674000C0F00F4000F10F40008003400090034074
:1067500000A0034000900B400090044000A00440C3
:1067600000B0044000C0044000D0044000F00F40DE
:1067700040F00F4080F00F40C0F00F4000F10F409C
:10678000008003400090034000A0034000900B40B5
:106790000000000000000000002F000000000700C3
:1067A000070000147F147F1400242A7F2A1200623D
:1067B00064081323003649552250000005030000E9
:1067C00000001C224100000041221C000014083E71
:1067D00008140008083E0808000000A06000000837
:1067E000080808080000606000000020100804028B
:1067F000003E5149453E0000427F40000042615149
:106800004946002141454B31001814127F100027E2
:1068100045454539003C4A494930000171090503A5
:1068200000364949493600064949291E00003636D6
:106830000000000056360000000814224100001439
:106840001414141400004122140800020151090616
:1068500000324959513E007C1211127C007F494997
:106860004936003E41414122007F4141221C007FC8
:1068700049494941007F09090901003E4149497AD6
:10688000007F0808087F0000417F41000020404150
:106890003F01007F08142241007F40404040007FBC
:1068A000020C027F007F0408107F003E4141413E00
:1068B000007F09090906003E4151215E007F091948
:1068C00029460046494949310001017F0101003F45
:1068D0004040403F001F2040201F003F4038403FC5
:1068E0000063140814630007087008070061514929
:1068F000454300007F41410000552A552A550000BC
:1069000041417F0000040201020400404040404039
:10691000000001020400002054545478007F4844D1
:10692000443800384444442000384444487F003808
:106930005454541800087E0901020018A4A4A47C31
:10694000007F080404780000447D400000408084FB
:106950007D00007F102844000000417F4000007C43
:1069600004180478007C080404780038444444384F
:1069700000FC242424180018242418FC007C08049B
:10698000040800485454542000043F444020003C74
:106990004040207C001C2040201C003C4030403CFB
:1069A000004428102844001CA0A0A07C004464548B
:1069B0004C441414141414140000000000000000CF
:1069C0000000000000000000000000F800000000CF
:1069D000000000333000000000100C06100C060010
:1069E000000000000000000040C07840C078400077
:1069F000043F04043F040400007088FC08300000D9
:106A0000001820FF211E0000F008F000E018000030
:106A100000211C031E211E0000F0088870000000E9
:106A20001E2123241927211010160E00000000003B
:106A30000000000000000000000000E01804020058
:106A4000000000071820400000020418E0000000C9
:106A50000040201807000000404080F080404000C7
:106A60000202010F01020200000000F0000000001D
:106A70000101011F010101000000000000000000F1
:106A800080B0700000000000000000000000000066
:106A900000010101010101010000000000000000EF
:106AA000003030000000000000000000806018048A
:106AB000006018060100000000E010080810E00067
:106AC000000F102020100F00001010F80000000030
:106AD0000020203F20200000007008080888700077
:106AE00000302824222130000030088888483000F7
:106AF0000018202020110E000000C02010F8000017
:106B000000070424243F240000F8088888080800AF
:106B10000019212020110E0000E0108888180000C4
:106B2000000F112020110E0000380808C838080096
:106B30000000003F00000000007088080888700016
:106B4000001C222121221C0000E010080810E00097
:106B50000000312222110F00000000C0C000000020
:106B60000000003030000000000000800000000045
:106B7000000080600000000000008040201008003D
:106B80000001020408102000404040404040400006
:106B900004040404040404000008102040800000E1
:106BA0000020100804020100007048080808F000E6
:106BB0000000003036010000C030C828E810E000B6
:106BC0000718272423140B000000C038E000000041
:106BD000203C23020227382008F8888888700000AB
:106BE000203F202020110E00C0300808080838007F
:106BF000071820202010080008F808080810E000F6
:106C0000203F202020100F0008F88888E808100096
:106C1000203F20202320180008F88888E80810006A
:106C2000203F200003000000C030080808380000A2
:106C300007182020221E020008F808000008F808A3
:106C4000203F210101213F20000808F8080800002A
:106C50000020203F2020000000000808F80808005D
:106C6000C08080807F00000008F888C028180800D5
:106C7000203F20012638200008F80800000000000E
:106C8000203F20202020300008F8F800F8F8080005
:106C9000203F003F003F200008F830C00008F808FF
:106CA000203F200007183F00E01008080810E0000F
:106CB0000F10202020100F0008F808080808F00026
:106CC000203F210101010000E01008080810E00049
:106CD0000F18242438504F0008F8888888887000DE
:106CE000203F2000030C302000708808080838007E
:106CF0000038202121221C00180808F80808180074
:106D00000000203F2000000008F808000008F808F4
:106D1000001F202020201F000878880000C83808A5
:106D2000000007380E010000F80800F80008F8001D
:106D3000033C0700073C03000818688080681808B7
:106D400020302C03032C30200838C800C838080035
:106D50000000203F2000000010080808C838080084
:106D60002038262120201800000000FE0202020028
:106D70000000007F40404000000C30C000000000D8
:106D8000000000010638C00000020202FE00000000
:106D9000004040407F0000000000040202020400A6
:106DA00000000000000000000000000000000000E3
:106DB00080808080808080800002020400000000CB
:106DC00000000000000000000000808080800000C3
:106DD0000019242222223F2008F8008080000000B1
:106DE000003F112020110E00000000808080000074
:106DF000000E112020201100000000808088F80083
:106E0000000E112020103F200000808080800000B4
:106E1000001F222222221300008080F08888881818
:106E20000020203F20200000000080808080800023
:106E3000006B94949493600008F8008080800000B8
:106E4000203F210000203F20008098980000000093
:106E50000020203F202000000000008098980000C3
:106E600000C08080807F000008F8000080808000E3
:106E7000203F24022D302000000808F80000000008
:106E80000020203F202000008080808080808000C3
:106E9000203F20003F20003F808000808080000055
:106EA000203F210000203F200000808080800000E3
:106EB000001F202020201F00808000808000000014
:106EC00080FFA12020110E00000000808080800043
:106ED000000E112020A0FF80808080008080800034
:106EE00020203F2120000100000080808080800061
:106EF0000033242424241900008080E080800000D6
:106F00000000001F20200000808000000080800022
:106F1000001F202020103F20808080000080808083
:106F200000010E3008060100808000800080808013
:106F30000F300C030C300F00008080008080800038
:106F40000020312E0E312000808080000080808063
:106F500080818E7018060100008080808080800013
:106F60000021302C2221300000000000807C020231
:106F700000000000003F404000000000FF00000053
:106F800000000000FF0000000002027C8000000002
:106F90000040403F0000000000060101020204041E
:106FA0000000000000000000000000000000F03FB2
:106FB000000000000000F83F00000000000000009A
:106FC0000000004003B8E23F0000000000000000A5
:106FD00006D0CF43EBFD4C3E033333333333E33F33
:106FE000FFAB6FDBB66DDB3F4D268F515555D53F5F
:106FF00001411DA96074D13F65DBC9934A86CD3F2D
:10700000EF4E454A287ECA3F3E5555555555C53F1A
:1070100093BDBE166CC166BF2CDE25AF6A56113F0C
:10702000F16BD2C541BDBBBED0A4BE726937663E0E
:107030000000000000000000587000000000002068
:107040009C0100004C040000B47000009C01002072
:10705000CC060000A8040000011094010101259A4B
:1070600099193F0326604127803F0AD7233C032A12
:1070700070421A0102013E1A3202894E898C49047B
:10708000092383192B13ED4404288009441F8C0A1B
:107090008C0AD0073B12010A24036101169A64048A
:1070A0001114A006401AB0041AC0041AD004040037
:0470B000A00E4000EE
:0400000500000411E2
:00000001FF
